:020000040000FA
:1000000000400020E98D0100258E0100278E0100AF
:1000100000000000000000000000000000000000E0
:10002000000000000000000000000000298E010018
:1000300000000000000000002B8E01002D8E01004A
:100040002F8E01005D3D00002D9501002F8E0100D7
:100050002F8E010000000000E98E01002F8E0100AC
:1000600069E800009D9A0100A19301002F8E010014
:100070002F8E01002F8E01002F8E01002F8E010088
:100080002F8E01002F8E01002F8E01002F8E010078
:100090002F8E0100D5890100A18A0100A5E9000089
:1000A000B5E900002F8E01000000000000000000F4
:1000B0000000000000000000000000000000000040
:1000C00010B5064C2378002B07D1054B002B02D02E
:1000D000044800E000BF0123237010BD2001002070
:1000E0000000000058870300044B10B5002B03D01C
:1000F0000349044800E000BF10BDC04600000000F6
:100100002401002058870300164B002B00D1144B0C
:100110009D46402292029A1A924600218B460F4633
:100120001348144A121A28F033FE0F4B002B00D04C
:1001300098470E4B002B00D0984700200021040068
:100140000D000D48002802D00C4800E000BF20F050
:10015000C7FB2000290028F071FB20F00DFBC046F2
:100160000000080000400020000000000000000027
:1001700018010020E02F0020000000000000000017
:1001800010B54A68014926F029FE10BD843B0300E2
:1001900010B50400080021F070F90300002C03D012
:1001A000012C06D0002003E00348002B00DC0348AC
:1001B00010BD40002043FBE78CE7020084E702000B
:1001C00043684B6083688B60C3680800CB60014B59
:1001D0000B6070476890020030B5040087B00D00D6
:1001E0000020042A25D1200021F047F9AB0722D1B5
:1001F000184B2A689A421ED103AA290011F034FB39
:10020000102026F03AF8144BE2680360039B616803
:1002100053435B184360049B6168019353435B182D
:10022000059983604A43C260002902DAE2689B1A9A
:10023000836007B030BD002301002A00206802F06F
:10024000F5FCE36858436368C01801234000184375
:10025000EFE7C046A8A402002C900200F0B50E0003
:10026000002785B0110003901D00012203233000F8
:10027000009712F021F8102025F0FFFF039B0400E7
:10028000036001234760C36028689E4205D102F0E5
:10029000F5FBA060200005B0F0BD02F0EFFB606050
:1002A000686802F0EBFBA060032EF3D1A86802F0AF
:1002B000E5FBE0600028EDD101480DF087F8C0466D
:1002C00096FB020070B50D004A688B68084904006F
:1002D00026F084FDEA68012A04D10649200026F0B0
:1002E000BCFC70BD0449200026F078FDF9E7C0464B
:1002F000A0FB020060020300ADFB0200136810B512
:100300001400002B05D1A42904D1406825F0BCF9C4
:10031000206010BDB9235B00994201D18068F5E7E8
:10032000024B9942F5D1C068F0E7C046BF02000019
:100330000023820708D10068044A0133904203D0A9
:10034000034BC01A4342434118007047E09002003B
:10035000A4900200044B88600B60044B08004B60C3
:100360000023CB607047C0462C9802005F15020046
:1003700030B585B00500080069460CF0F7FB0400B5
:1003800020000CF055FC011E02D1064805B030BD1E
:100390002B1D0022180023F069F80028F0D0024835
:1003A000F4E7C0468CE7020084E7020070B5050060
:1003B000102025F062FF0400074B696808C023F095
:1003C0004BF8AB68E968A3606B68E0689A0028F0B6
:1003D000C3FC200070BDC046E0900200F7B50400E9
:1003E0000D0000268B0704D10B68214E9E1B734223
:1003F0005E41AB68002B0AD1002E03D01D492000BE
:1004000026F02BFC1C49200026F027FCF7BD002E0F
:1004100003D01A49200026F020FC1949200026F0BC
:100420001CFC002701236A68BA4207D8154920003E
:1004300026F013FC002EE9D01349E4E7BA0001923C
:10044000EA68B9005258002A0FD0042A0DD0002BB8
:1004500003D10E49200026F000FCEB68B900595882
:100460000122200002F03AFA00230137DBE7C04600
:10047000A4900200EBFB0200F2FB0200F8FB02007A
:1004800003FC02001E0703006002030005FC0200DB
:1004900010B5830707D1044B02689A4203D1034980
:1004A000034824F0ABFA10BDA4900200B3FB020095
:1004B000A0A7020070B50D000400FFF7E9FF2900B6
:1004C000201D012222F0D2FF004870BDA4B302001B
:1004D00070B50D000400FFF7DBFF2900201D02228C
:1004E00022F0C4FF004870BDA4B3020070B506003E
:1004F00008680D000124FFF7CBFFB44201D3044884
:1005000070BDA300E958286820F0C7FF0134F4E764
:10051000A4B3020070B50D000400FFF7B9FF280076
:1005200000210CF023FB050028000CF081FB011ECC
:1005300001D1044870BD231D0322180022F096FF4C
:10054000F2E7C046A4B3020010B50400FFF7A0FF15
:10055000201D23F019F8014810BDC046A4B30200C5
:1005600010B5012220F0CAFF004810BDA4B302005C
:1005700070B504000D00FFF78BFF201D022229003B
:1005800022F074FF002804D1034822F022FE0CF070
:10059000A5F8024870BDC04680A90200A4B30200BD
:1005A00010B50400FFF774FF201D22F0CEFF0028D5
:1005B00003D10249024824F021FA10BDD5FB020004
:1005C00080A90200F8B50D0001280BD0002803D047
:1005D00002280BD0002004E08B681448002B00D1C7
:1005E0001348F8BD8B685B001843FAE7032400202A
:1005F0000C408442F5D10F4B0E6820009E42F0D192
:100600004F68A74203D1012076003043E9E7EA684A
:10061000A3009958002906D0042904D002200CF028
:100620003DF9401036180134EBE7C0468CE7020074
:1006300084E70200A4900200F8B5040010200D0029
:1006400025F01BFE0600094B210008C607003000FC
:1006500022F002FFA4002C19A54201D13800F8BDF8
:10066000012202CD300022F001FFF5E7E090020008
:10067000F7B504000E00171E2CD0FFF709FF194D27
:10068000B4422DD000210800FFF7D6FF002105005D
:1006900030000CF06BFA019001980CF0C9FA061EBC
:1006A0000CD1002F1CD0E06825F016FE6B6863604B
:1006B000AB68A360EB680B4DE36011E0201D0022E6
:1006C000310022F0D3FE0028E6D031002800FFF7E9
:1006D000F1FEE1E78842D5D1200020F0F1FE0500CF
:1006E0002800FEBDA4B30200F0B589B00400039059
:1006F000029101920027FFF71BFEB84207D13A0092
:1007000003AB0121224820F04FFF04000137029D76
:1007100000262800FFF70CFEB04207D1320002ABE2
:1007200001211B4820F040FF05000136019B002BF2
:1007300005D00023AA680193A36893420DD0154BFE
:1007400006940493144B05930023079304A820F008
:1007500006FF011E12D101230193002F02D02000B9
:10076000FFF7F2FE002E02D02800FFF7EDFE019BFE
:100770000A48002B00D10A4809B0F0BD2B1D002209
:10078000180022F073FE0028E0D10190E5E7C04692
:10079000E09002002C9802005F1502008CE7020036
:1007A00084E7020073B50C00150000910192002649
:1007B0008B0704D10B68394E9E1B73425E41320099
:1007C0001F2868D819F084FA2810176767671C6714
:1007D0006767676767212D346767673B6767676788
:1007E0006740464A5358675D2900200020F079FE93
:1007F0000400200076BD2900200020F0CAFEF7E7A3
:100800006946022020F0A6FEF2E7002E04D06946D9
:100810000220FFF76BFEECE72900200020F057FED6
:10082000E6E729002000002EE0D0FFF773FEE0E7A6
:1008300029002000FFF71CFF002EDAD1D8E7694617
:10084000022020F05BFED3E7012229002000FFF701
:100850004BFFCDE7012221002800F8E72800FFF731
:1008600067FD002815D0A368AA68934211D129001A
:10087000200020F0CAFEBBE72900200020F0BDFECA
:10088000B6E7201D0022290022F0F0FD044C0028CC
:10089000AFD1044CADE70024ABE7C046E0900200C6
:1008A0008CE7020084E70200F0B50F00496885B0CC
:1008B00005001600002901D0002A05D139002800C2
:1008C00020F0B4FF05B0F0BD0F321309C918009332
:1008D00020F01DFF0F22A868B9687C68324000D163
:1008E0001032009B1E19234BF3185B00C018214BDC
:1008F0000290E3185B00CB18019010209C46210069
:100900000023801A002921D1C3401A48029A844644
:100910006400141B2380009B5B00E41A009B0234DC
:1009200063445A00200028F033FA002E04D07300EC
:10093000023BE35A002B1BD001216E603B78DB07A2
:10094000DA0F2B788B4313432B70BBE76246128878
:10095000013913431A00C2400393019B1A80019A84
:10096000039B023A0192022252421B049444C9E7BB
:10097000013EDAE7FFFFFF7FF0B54B6815005268D4
:1009800089B006000C00934201D22C000D00012119
:10099000227863680A4201D12A781140C9183000D0
:1009A00020F0B5FEB36822780193A3681700029384
:1009B000636829789C46AB684F4003930123180075
:1009C0001F408B4306936346904302006046591EC6
:1009D000019B04936B681B1A07934B1C18D1634649
:1009E0005900019B5918002F02D001230B800231BE
:1009F000019820F00FFE0121706022782B7853407F
:100A00003278DB078A43DB0F1343337009B0F0BD44
:100A1000029B13481B881B189B180593079B5B18A8
:100A20008B421AD8039B039A1B8802321B1803922D
:100A3000069A01399B18059A5A4092B21B0CD71995
:100A40000693049A059B17801A0C049B3F0C0233F3
:100A50000493029B02330293BFE7014BE8E7C046D1
:100A6000FFFF0000F0B5060095B0069353680D0037
:100A7000591C0492009320F04AFE049B00215B68FD
:100A8000B0685A1C5200009328F082F9002373606A
:100A9000049B28005B68591C009320F038FE0499E1
:100AA000280020F0C3FEAB686F680193069B9B682B
:100AB0000393069B5B680293B3680793029BBB4258
:100AC0002DD82ED3039A3900019820F063FE002818
:100AD00023D10123079A686013807360049B1A78FE
:100AE000069B1B785A4001231A4214D032781343D4
:100AF00033706B68002B0ED0012111A8494220F001
:100B0000B4FE11AA3100300021F0B6F8069A29008F
:100B1000280021F0B1F815B0F0BD002801DA00235B
:100B2000DBE7824A029B9B185B009C460022039BEA
:100B3000634405931B8800921AB2002A63DA0022EC
:100B4000019B7C001A537B1C102709936B60019B4F
:100B5000A01C00991B180893791A019B0A91089907
:100B60008B4256D3059B009A1B8893400893029BA7
:100B7000012B0AD91022039B00996344023B1B8876
:100B8000521AD340089A1A430892019B029A1C19E0
:100B9000099B9B1A654A73609B18079A5B00D318E0
:100BA0000A93634602330E936B680B930B9A029B76
:100BB000934239D313005D4A102194460024019AD0
:100BC00063445B00D318009A891A019A9A4200D8AC
:100BD0009EE07368002B07D0544A07999A18520078
:100BE000525A002A00D19DE06B68002B00D175E7B6
:100BF0004E4A01999A185200525A002A00D06DE7C5
:100C0000013B6B60F0E7009A5B0001329BB292B24D
:100C100091E71988009F0800B84002431A800A9A99
:100C20000233D1408AB29AE7A31E20880D931B8815
:100C300000041843089919F05FF80E9B0022E31A8C
:100C40000C931900039B05909C4609928C4212D884
:100C500023889A4234D3D31A5A42190C9BB2228069
:100C60005A1E9341CA18002A2CD003990C9B8C461B
:100C700000210F0041E0099B009F180C63461B8870
:100C8000BB4018436B4609909F8C059B5F430B88C4
:100C90009F4203D2D81B0F9090420CD8D31AFF1852
:100CA0007B420B80BBB23A0C5F1EBB41D2180223C1
:100CB00002319C44CAE70F9B9A1A0A800022F6E789
:100CC0009A1A22800A9B059A023B5A800A930B9B30
:100CD0000D9C013B6B6067E7380C09906046009FF4
:100CE0000088B840099F074318884118B8B24118D6
:100CF000022019808444090C02339C42ECD82388DA
:100D00005918059B2180013B090C521A0593AAE74B
:100D10001A88009F100038418A402043188094B2FE
:100D2000023B52E7013B736053E7C046FFFFFF7F82
:100D3000436870B55A00002384680A4DA218944293
:100D400006D30278D20700D55B4201200B6070BD4C
:100D5000023AAB4203D816881B043343EFE7002066
:100D6000F5E7C046FF7F0000032230B502400121B5
:100D7000002A04D1084C05680B00A54209D00B00DD
:100D8000034006D1002A04D1036804481B1A5842C4
:100D90004341180030BDC04694E70200ECB80200A1
:100DA00010B50400FFF7E0FF012200280AD1032359
:100DB00002002340022B05D103480440063C2200D8
:100DC000541EA241100010BD070080FF044B886034
:100DD0000B60044B08004B600023CB607047C0469B
:100DE0002C980200B925020010B501F05FFD084BF8
:100DF00042680848D31859424B41AC215B428B43AF
:100E0000B02189005B18044907F04CFB0BF066FC2D
:100E100040FDFFFF50AC020008FC0200F7B50400E3
:100E20000E00019301208B180A0000210093009B03
:100E3000934212D82725002900D0053D224F2A00D1
:100E40003900200025F0CAFF009B9E4214D32A00DF
:100E50003900200025F0C2FFF7BD1378272B08D0FA
:100E6000223B5D426B41DBB20132002BDFD02725F4
:100E7000E4E700230100F7E73278AA4205D12A000F
:100E80001249200025F0AAFF1AE011495C2A14D06B
:100E90001F2A09D97F2A15D0019B002B02D053B2FB
:100EA000002B07DB3900ECE70A490A2A05D00A497A
:100EB0000D2A02D0092A05D10849200025F0CDFECF
:100EC0000136C1E70649DCE74200030041000300A8
:100ED00045000300480003004B0003004E000300E0
:100EE00051000300194B70B506000C0098420FD159
:100EF0004968A0680FF0AEFD051E09D0200026F05D
:100F000008F90023ED00236006331D43280070BD5F
:100F1000102025F0B2F96168050081600660A068C4
:100F20000FF07AFD63686860591C2368994208D104
:100F3000A368EB600023EA68A9685354A3602360A8
:100F4000E4E7A06825F0B7F9E860F3E7CC99020080
:100F500070B504000D00002A05D00FF0ADFDC300F0
:100F60000620184370BD0FF075FD0028F7D12A0048
:100F70002100024821F0F8F9F4E7C046CC990200BC
:100F800010B50A000100024821F0EEF910BDC0467C
:100F900060920200094B10B50340062B01D1C00836
:100FA00010BD830708D1064B02689A4204D18168BC
:100FB000C0680FF081FDF3E7FFF716FF070080FF21
:100FC000CC990200064B10B50340062B03D1C00894
:100FD00024F0B9FC10BD8368C0680B60FAE7C04616
:100FE000070080FFF0B50F00002589B01100060052
:100FF0001C003800009503232A0011F05DF90E2033
:10100000AF420FD0012F0FD102AA102104A814F073
:10101000F7FE216802A82A0001F060FC04A9300054
:10102000FFF760FF09B0F0BD2068830722D1164B9F
:1010300002689A421ED104A9FFF7C4FF134B0500B2
:1010400020680340062B13D1C00824F06DFC040077
:10105000002C04D1049928000FF0DEFC04001020BD
:10106000049F25F00AF906608760C5604460D9E7EF
:101070004468EDE704A9012201F0BAFE00220599B7
:101080000498FFF765FFCDE760920200070080FF3C
:10109000F0B58DB00400039101F008FC04A906002E
:1010A0002000FFF78FFF039B01902F489A0705D17F
:1010B0001B6883420AD02D4A934207D0C36800229E
:1010C0000293012103AB029CA0470390002406AACF
:1010D00005A9039801F074FD2500059BA3420ED8D5
:1010E0002900002508A826F003F80A9C059BAB42BE
:1010F00021D808A93000FFF7F5FE0DB0F0BD069B22
:10110000A700D85901F0D2FBB04202D018480CF029
:1011100021FB002C01D0049BED18069BD859154BE0
:101120000340062B05D1C00824F003FC2D18013420
:10113000D3E78068FAE7002D06D02000049A0199D1
:1011400027F00AFE049BE418069AAB00985807A9FA
:10115000FFF738FF079A0100200027F0FDFD079BED
:101160000135E418C2E7C04648E702000CA00200BF
:101170007E000300070080FFF0B58BB00490086884
:101180000D000692079301F091FB0400686801F0DE
:101190008DFB0600A04202D06868FFF725FE08A973
:1011A0002868FFF70FFF040009A96868FFF70AFF26
:1011B000089A0590A3180393049B2700022B19D9C2
:1011C000AB681D498B4206D00121300000912100FF
:1011D00004F04AF80700049B032B0BD0EB68164A77
:1011E000934207D00122210000923000089A04F0B7
:1011F0003BF80390039B059AD91B069B380000938C
:10120000099B21F092F8002806D1079B0138002B9A
:101210000CD00A480CF0DAF8094B9E4208D10100C4
:10122000200022F038F84400012020430BB0F0BD2C
:10123000041B6400F8E7C046A4B302006A00030080
:10124000CC990200F0B5070087B008680D0001F0E6
:101250002DFB04A906002868FFF7B4FE05A90400C9
:101260006868FFF7AFFE03902000022F07D9012323
:101270000093AB68049A2100300003F0F5FF059A53
:10128000041B049BA418064D9C4205D8039927F023
:1012900054FD002800D1034D280007B0F0BDC04622
:1012A00084E702008CE7020073B50D000600694672
:1012B0002868FFF787FE01A904006868FFF782FE2F
:1012C0000100022E02D908480CF072FA019A009827
:1012D000064D824206D8801A201827F02EFD0028DD
:1012E00000D1034D280076BD5800030084E70200BA
:1012F0008CE70200F0B58FB0079010680C00160064
:1013000001F0D4FA0690012C31D0706801F0CEFAC9
:10131000069B984202D07068FFF766FD0DA97068C1
:10132000FFF750FE0D9B089009930DA93068FFF759
:1013300049FE0D9B0B900493079B012B1CD1049B32
:101340005D1E01235B420A9300242700049B039443
:101350000593059B002B13D1039B002B23D1214B1D
:10136000069A0E209A4200D01F480FB0F0BD072306
:1013700009931E4B0893D8E7012300250A93E3E75E
:101380000B9B09995A1901230898009320F0CDFF6F
:10139000002816D1039B002B19D1079B002B09D1E4
:1013A0002F00049B5C1E049B0134E21B934212D16C
:1013B0003068DAE7079B2C00012B0AD001232F00AD
:1013C00003930A9BED18059B013B0593C1E72C0095
:1013D000F7E7039FE7E70B9B0698D91920F0C4FFB6
:1013E000C3E7C046CC99020050920200D700030028
:1013F000F0B589B0049008680D0001F057FA0400B8
:10140000686801F053FA0700A04202D06868FFF74D
:10141000EBFC06A92868FFF7D5FD060007A9686858
:10142000FFF7D0FD069A0590B3180393049B340090
:10143000022B19D9AB681E498B4206D00121380016
:101440000091310003F010FF0400049B032B0BD02C
:10145000EB68174A934207D001223100009238000E
:10146000069A03F001FF03900025079BAB4212D1BF
:10147000039B2000191B21F01DFF013045000120B6
:10148000284309B0F0BD0599200027F056FC00283C
:1014900008D101353400079A039BA6189E42F2D961
:1014A0006D00ECE7200021F0EDFE0600F2E7C046FB
:1014B000A4B3020010B50100014821F047F810BDA7
:1014C000D532020010B50100014821F03FF810BDEF
:1014D000E7320200F7B50600080001A9FFF772FD28
:1014E000019B0500002B01D11348FEBD134B0400E6
:1014F0009E4207D10027019A631B9A4211D8002F00
:1015000007D1F1E70E4B9E42F4D0019A631B9A4239
:1015100001D80C48E9E72078B04701340028F4D11D
:10152000E2E7207807F098F8002803D02078B04749
:10153000071ED9D00134DEE784E70200C18600002F
:10154000D98600008CE7020010B501000148FFF7C2
:10155000C1FF10BD4186000010B501000148FFF732
:10156000B9FF10BD5986000010B501000148FFF712
:10157000B1FF10BD7186000010B501000148FFF7F2
:10158000A9FF10BDC186000010B501000148FFF79A
:10159000A1FF10BDD9860000F0B585B006000C0093
:1015A000170001F083F9694605003000FFF70AFDD6
:1015B0000600042F23D10098A30715D1114B2268F0
:1015C0009A4211D101AA210010F04EF9002802D14F
:1015D0000D480CF0EDF80199029A2800521A711882
:1015E00020F0C2FE05B0F0BD00230100220028005B
:1015F00001F01CFB335C01205B001843F2E7002084
:10160000F0E7C046A8A4020066FC020070B51D0009
:101610008EB0002900D174E018683B4C03002340D1
:10162000062B05D0830726D1384B02689A4222D177
:101630000239012962D80AA9FFF7C4FC060028680C
:101640000440062C15D1C00824F06EF90400002CCB
:1016500004D10A9930000FF0DFF9040010200A9D30
:1016600024F00BFE2A4B85600360C66044600EB018
:1016700070BD4468EBE7012940D80122104210D028
:10168000441021000AA825F033FD0C9B0021220004
:101690001800019327F07CFB0AA91D48FFF722FCE4
:1016A000E5E703A920F0BEFF002805D0049A0399BE
:1016B000174820F059FEDAE7286801F0F9FA1021FE
:1016C000002800D0411006A825F001FD0AA92868CD
:1016D0000BF04CFA040020000BF0AAFA002801D10C
:1016E00006A9DAE701F0CAF9FF2802D909480BF088
:1016F0006DFEC1B206A825F04AFDECE706480CF0E5
:1017000029F80648B3E7C046070080FFCC990200DD
:101710006092020033FC02004CFC02005092020076
:1017200073B50400080001A91600FFF74BFC050083
:10173000042E06D10300019A0749200025F04EFB34
:1017400073BD0649200025F088FA0123019A29007B
:101750002000FFF763FBF3E7C30003008F5903008A
:101760000A001B4B73B51A4005000C000340062B02
:101770000CD1062A04D1441A60426041C0B212E082
:10178000C00824F0D1F80600606805E04668062A23
:10179000FAD1C80824F0C8F8002E05D0002803D0DC
:1017A000B04201D0002076BD69462800FFF70AFC50
:1017B00001A905002000FFF705FC009A019B01002C
:1017C0009A42EFD1280027F0B8FA44426041D5E7A9
:1017D000070080FF084B07B50340062B08D083079E
:1017E00004D10268054B92699A4201D0FFF7FCFAD6
:1017F00001A9FFF7E7FB0EBD070080FF9D1D00005C
:101800000A4B13B503400C00062B08D0830704D104
:101810000268074B92699A4201D0FFF7E5FA01A9E5
:10182000FFF7D0FB019B236016BDC046070080FF79
:101830009D1D0000F0B59BB00B9005910892102102
:101840000EAA12A8099314F0DBFA059B089A93429A
:1018500008D30B9A12AB13CB13C21B6813600B98FF
:101860001BB0F0BD059B19785D1C7D290ED1089B2E
:10187000AB4208D9059B59787D2904D112A825F0DF
:1018800086FC059507E0BC480BF0A0FD7B2906D03F
:1018900012A825F07CFC059B01330593D5E7089B36
:1018A000AB4216D9059B59787B29E7D02B007D29BF
:1018B00003D0212901D03A290DD100252E001A7814
:1018C000212A11D0002206921AE0089A01339A4286
:1018D00001D1AA48D8E71A787D2A03D0212A01D05D
:1018E0003A2AF2D11E00EAE708995A1C91421CD903
:1018F0005A780692723A012A17D802339942E8D9E7
:1019000000211A7805913A2A1FD15A1C5B7805925A
:101910007D2B1DD1089B059A9342DAD90027059BA0
:101920001B787D2B17D09648AEE79648ACE7197820
:101930007B2905D10132013308998B42F7D3C8E7DF
:101940007D29F8D1013A002AF5D1059F0593E6E7F4
:10195000059B0122F0E7002D48D00023287816933C
:1019600006F086FE00283DD0099B1B680793002BDC
:1019700001DD854888E716AA3100280020F0BDFC6B
:10198000209A169B013A04009A4203D87F49804866
:1019900023F034F8219A01339B009D580122099BC2
:1019A00052421A60B44231D27A480BF001FF01343E
:1019B000B44204D223782E2B01D05B2BF7D1611BCC
:1019C00001222800FFF7C4FA002205000100229836
:1019D00007F0D2F8002807D129006F4821F0FFFB5B
:1019E0000AF07CFE2C00E3E74568DBE7099B1B68F7
:1019F000002B01DA694847E7209A013A9342C5D2A1
:101A0000013321999A005558099A1360002F00D08C
:101A1000A6E1069B3C00002B04D0069C733C631E91
:101A20009C41E4B210AA102116A814F0E9F929008B
:101A3000220010A800F052FF16A95948FFF752FAE9
:101A400001235B4205000D931093002F00D18FE01E
:101A50000EF096FF229B059A0293219B3900019379
:101A6000209B16A80093099BFFF7E4FE16A825F01B
:101A70007CFB0026179B0400C3180A930378069387
:101A8000B34208D0474F1900380027F0BDF9B042E3
:101A900000D16EE1013423782B2B4ED000272D2B63
:101AA00002D0202B01D1043701342378232B02D11B
:101AB000133B1F4301342378302B07D1069B002BA7
:101AC00001D13D330693002E00D130360DAA0A997C
:101AD000200020F012FC037807902C2B04D10C3B43
:101AE0001F43030001330793079B1B782E2B06D15E
:101AF000079810AA01300A9920F0FFFB0790079B76
:101B00001C78002C1BD02100274827F07DF90028E5
:101B100003D0079B5B78002B11D02448B4E631003A
:101B2000380027F071F9002804D033000234069EF3
:101B30000693B0E706900600ADE70227B4E716A8C3
:101B400025F0E7FA069B002B08D12800FFF728F9BB
:101B50003C230693002801D002330693002E00D1C7
:101B6000203606231F4229D0732C23D110488BE640
:101B70003C003E00E9E7C04691FD0200D2FD0200B4
:101B8000EAFD0200B9FD02000EFE020058FE02004E
:101B900044A9020071FE020080A902008EFE02002C
:101BA000CC990200D8FE0200DDFE0200EDFE02002C
:101BB00006FF0200632C01D1714865E6069B3D2BB0
:101BC0001FD05E2B1FD03C2B01D13B3B1F43280075
:101BD000FFF7CAF800282DD0632C50D026D8472C08
:101BE00013D8452C26D2002C40D0252C22D02800FA
:101BF00020F001FD220003006249634806F052FC18
:101C0000EEE64023E2E78023E0E7582C53D0622C35
:101C1000EDD1002303930D9B0222029361230196D1
:101C2000009729000EA813F0FFF834E6672C17D8A8
:101C3000652C1BD32800FFF7B3F800286CD0002CCC
:101C400056D06E2C54D0472C3FD8452C41D2252C51
:101C500050D0280020F0CFFC220003004B49CCE7F5
:101C60006F2C1AD0782C26D06E2CC0D10023039371
:101C70000D9B01960293009761230A22D1E7280069
:101C800000F0FCFE0D9B16A90870012201933B0099
:101C900000960EA813F06CF8FDE5FB0602D5802334
:101CA0009B001F43002303930D9B01960293009713
:101CB00061230822B5E70022230003920D9A173B07
:101CC0000292019600971022ABE72300653B022B9E
:101CD000BFD8280000F036FF109B220002930D9B16
:101CE000011C01933B0000960EA825F032F8D2E5C6
:101CF0006724EEE72800802400F024FF244918F030
:101D000055FE109B640002930D9B3C430193011C04
:101D1000009623006622E7E7069B3D2B01D11D4874
:101D2000B2E5002C01D0732C13D116A92800FFF7BF
:101D300067FD109B0100169A002B00DA1092109B91
:101D40009A4200D916930D9B00960193169A3B0078
:101D50009FE7280020F04FFC220003000E494CE7CB
:101D6000069B002B00D058E601235B420D93109395
:101D70006EE66678002E00D0D1E606968BE6C04669
:101D800032FF020065FF0200C8AC020096FF0200AD
:101D90000000C842CAFF0200FFFF0200F0B5A1B078
:101DA00005000C000D920A2800D0E4E10DAB0F9362
:101DB0000123073D1093059215403CD11368BF4A9B
:101DC000934206D10FAA10A9059821F010F80595A5
:101DD00002E0BB4A9342FAD1109B11A907930F9BD3
:101DE00020000893FFF7EEF8002309900A93A30759
:101DF00005D1B44A23689B1A5A425A410A9214AA3E
:101E0000102118A813F0FCFF119A00279446099B93
:101E1000099C63440493049BA3420FD8079BAA48E0
:101E2000BB4229D10A9BA948002B00D0A54818A97C
:101E3000FFF758F8BAE100230593CDE7217825296B
:101E400004D018A825F0A3F90134E4E7049B661C2C
:101E5000B34202D89E480BF0B9FA6178252904D123
:101E600018A825F094F93400EEE70025282915D1AB
:101E7000059BAB4202D197480BF06CFCA01C0600FE
:101E80003378292B23D1311A0122FFF761F80100A1
:101E900005980EF083F80127050001360023340071
:101EA00040220026302104200B9320330693049B0C
:101EB000A34213D800231293049BA34231D9237861
:101EC0002A2B70D1079BBB4221D88348D4E7049BBF
:101ED000B34201D88148BEE70136D1E723782D2BE4
:101EE00003D12C3B1E430134E1E72B2B01D1293BCD
:101EF000F8E7202B01D10643F5E7232B04D0302B44
:101F0000D8D116430691EEE710230B93EBE77B1C29
:101F10000C93089BBF00F85800F0B0FD0C9F129086
:101F2000013401235B421393049BA34292D923788B
:101F30002E2B17D1049B601C83428BD963782A2BEC
:101F400038D1079BBB42C0D97B1C0C93089BBF00B8
:101F5000F85800F093FD0C9F13900234049BA342A9
:101F600000D877E7002D06D1079BBB42ADD9089A70
:101F7000BB009D5801372278672A45D8652A00D3CF
:101F8000B8E0582A5DD01DD81300453B022B00D87D
:101F9000B0E0099B5249E41A00941300514806F03E
:101FA00081FA0AF09BFB200012AA049920F0A5F9FF
:101FB0000400B6E7002313AA0499139320F09DF9B7
:101FC0000400CBE7632A49D0642AE2D103222B0024
:101FD0001340022B0AD1444B2B40062B06D0FF2383
:101FE000DB05E81890430AF0CBF90500139B0A22A1
:101FF0000393129B00960293069B01936123290091
:1020000014A812F011FF1FE7732A16D8722A00D302
:1020100080E0692ADAD06F2ABBD10B9B002B02D05B
:1020200084239B001E43139B00960393129B08225C
:102030000293069B01936123E1E7752AC6D0782AB3
:10204000A7D11300139A173B0392129A0292069A91
:1020500001920B9A164300961022D0E7224B2B4098
:10206000062B05D0AB0716D1184B2A689A4212D11D
:102070001CA92800FFF7C4FB1C9A0100012A01D00B
:102080001A48F9E6129B019320230093330014A809
:1020900012F06EFED8E62800FEF766FE00280BD090
:1020A000280000F0EBFC129B1CA908700193202370
:1020B000012200933300EAE70D48DDE60CA00200A0
:1020C00034C20200609202005CFD0200CC99020062
:1020D00097FC0200A9FC0200D6FC0200C0FC020032
:1020E00027FD0200C8AC0200070080FFFDFC0200D3
:1020F00016FD0200280000F025FD139B22780293B4
:10210000129B011C0193069B14A80093330024F03A
:1021100020FE99E616AA10211CA813F071FE237860
:102120001A00723A51424A41D2B2722B09D00A9B2C
:10213000002B06D0AB0704D1594B2968994200D136
:102140000422290016A800F0C9FB139A1D9B002A3F
:1021500000DA1393139A9A4200D91A00129B1E991F
:102160000193202314A80093330012F001FE1CA851
:1021700024F0CFFF68E6080000F098FB16A90700DE
:102180002000FEF71FFF0590072D22D118A90D98FA
:1021900000F0B2FC03000020834207D0189981426E
:1021A00006DC404B40489F4200D10E2021B0F0BDDC
:1021B000169B1CA8594324F09BFF1E9B01210493EE
:1021C00000930598189B169A23F0F7FC1CA9380079
:1021D0002EE60D9800F06AFBB8420FD11CA90D98AD
:1021E000FEF7F0FE1C9E04901D2D17D8192D4ED21F
:1021F000052D21D0122D1FD00020D7E7284B0D9898
:102200009F4209D101221CA920F00CFA0028CDD050
:102210001C9B1D9E0493E7E7FEF7E6FD1F2DEBD107
:102220000123049A009316993300059820F07DF855
:1022300000282AD01D48B9E7169B002B07D10D981E
:1022400000F034FBB84202D10D9C2000AEE7002E16
:10225000FBD0169B1CA8F11824F04AFF1E9B169A6F
:1022600005991800069326F077FD169A1E9B944652
:102270000593634418003200049926F06DFD1CA9F3
:102280003800FEF72FFE0400DFE709488EE70096CE
:10229000049B169A0599280023F0C5FCC8E7C046A0
:1022A00060920200CC990200509202008CE702007A
:1022B00084E70200F0B5050087B008680C0000F064
:1022C000F5FA0090012D28D96668022D26D0A06865
:1022D00000F0D4FB05000021080024F0A5FB04A9B0
:1022E00001902068FEF76EFE049B0400C7183E4B69
:1022F0009E4241D1BC422AD2207806F0A1F90028A2
:102300000FD1002D0FD121003A1B009820F02CF89E
:102310000100019811F060FF19E0334E01256D4274
:10232000D9E70134E6E72600307806F089F900287D
:1023300002D10136B742F7D82100321B009820F0B5
:1023400013F80100019811F047FFB74209D801982E
:1023500007B0F0BD0136B74203D1002DF7DD013DD6
:1023600006E0307806F06CF90028F3D1002DF6DC99
:10237000BE42ECD23400C4E7300000F097FA009B74
:10238000984202D03000FEF72FFD05A93000FFF77C
:1023900037FA059B0390002B13D114480BF016F865
:1023A0003E002100321B00981FF0DEFF0100019863
:1023B00011F012FFBE42CAD2059BF418002D00DDB9
:1023C000013D2600059B0293002DE9D0029BF318E6
:1023D0009F42E5D3029A0399300026F0AEFC002814
:1023E000DFD00136F0E7C046A4B30200310003009D
:1023F000F0B507008BB00D00022807D8290038007F
:10240000FFF758FF050028000BB0F0BD086800F08A
:102410004DFA08A9049028686E68FEF7D3FD019074
:10242000A86800F02BFB041EE8DB431C1800002109
:10243000059324F0F9FA2F4B05009E4202D12E4855
:102440000BF0B6F909A93000FFF7DAF9099B0690FD
:10245000002B02D129480AF0B9FF089A019B944643
:1024600063440293A3000393099F029BDE1B002C8D
:102470000BD0019BB34208D83A000699300026F0F1
:102480005CFC002821D0013EF1E7EB68A6009F1913
:10249000019A029B01999A1A04981FF065FF38600F
:1024A000002CB0D0059B1C1BEB68A70099193A00C3
:1024B000180026F05AFC6B6800211A1BEB6892008A
:1024C000D81926F065FCAC609DE7039AEB6894464A
:1024D00063440793029BF1199A1BD21B04981FF0C7
:1024E00043FF079B013C1860039B0296043B039348
:1024F000BAE7C046A4B30200C800030031000300DD
:1025000070B50C008AB0050004A920681600FEF71B
:1025100059FD00230593049B0100C218029605ABE8
:1025200006A801940095FFF785F906A90248FEF771
:10253000D9FC0AB070BDC046CC99020010B50400A9
:10254000002906D0044B8A6B03600968002306F05B
:1025500015F820000AF0C2F8D8AB0200F0B504006C
:1025600087B0039202936618002A06D0023A222A04
:1025700003D935480AF02AFF0134B44229D2207821
:1025800006F05EF8071EF7D123782B2B1CD10134FF
:10259000311B200003AA20F0F8F923181C000025A5
:1025A0000193B44217D3002F00D06D4201236D0078
:1025B0001D43019B9C422FD12449039A244805F0D6
:1025C00071FF0299FFF7BAFF2D2BE1D101340127EA
:1025D000DEE70027DCE723781A00303A0092092A68
:1025E00007D9202213431A00613A192ADBD8573B36
:1025F00000930399009B9942D5D9280005F004FC6B
:10260000002816D1039B5D43009BED186B006B40C7
:102610000FD40134C5E70134B44205D2207806F066
:102620000FF80028F7D1C7E7B442C5D1280007B09A
:10263000F0BD019B3A000593F11A05A8039B23F016
:1026400049F8059C0500B4E71501030038010300B3
:10265000C8AC0200F0B504008BB008934318049294
:102660000193019B9C4200D3F6E0207805F0E8FF3F
:10267000071E38D123782B2B37D101340590019BCD
:102680009C4200D3EAE0202322781A43692A33D1FE
:102690000199A21C914200D8E6E062781A436E2AA2
:1026A00000D0E1E0A2781A43662A00D0DCE0E21D07
:1026B000E51C914214D9E2781A43692A10D1227993
:1026C0001A436E2A0CD162791A43692A08D1A27979
:1026D0001A43742A04D1E2791343792B00D10535CA
:1026E000FF26F6051BE00134BBE705902D2BCAD170
:1026F0002C3B01340593C2E76E2A2ED10199A21C0E
:10270000914200D8B0E062781A43612A00D0ABE071
:10271000A27813436E2B00D0A6E05D4EE51C059B0E
:10272000002B02D080231B06F618A5427BD1594905
:102730008CE03D002B786F1C18003038092834D805
:10274000022E15D10A23029A53431B180293019BB0
:10275000BB42EED8002304934DE000220792029280
:102760004D4A250006920022002603920993E1E7D4
:1027700018F092FC051C012E0DD1069918F016F9DF
:10278000011C039817F0A0FD43490390069818F028
:102790000DF90690DBE74149039818F007F9291C69
:1027A00017F092FD00260390D1E7002E03D12E2BC7
:1027B00003D10126CBE7022E16D0099A1A43652AC7
:1027C00012D1019BBB4256D96B782B2B05D1AF1C84
:1027D000019B9F42ABD00226B9E702262D2BA8D140
:1027E0002C3BAF190793F3E7049A002A04D0202268
:1027F00013436A2B13D13D00079B002B02D0029B91
:102800005B420293029818F0FDFB011C23481BF069
:10281000B9F8039918F0CAF8049F061C7FE7002353
:102820000493E9E70135019B9D4205D2287805F024
:1028300007FF0028F6D17AE7019B9D4200D076E79A
:10284000089B002B01D1002F1AD01549154820F004
:10285000CDFC1099FFF772FE00230593002303932C
:10286000002325000493CCE7059B002B00D15EE7F5
:102870002500002656E7019BBB4200D157E769E7D8
:10288000032302209E43084B3043C0180BB0F0BD19
:102890000000C07FFB000300CDCCCC3D00002041F8
:1028A000DE000300C8AC020000008080074BC207B6
:1028B0000AD4074A074B0240062A05D00322064BDA
:1028C0000240022A00D0036818007047ECB80200EA
:1028D000070080FFCC99020048B0020070B50D00DF
:1028E000040016000EF04CF82800FFF7DFFF8368A5
:1028F000002B04D0320029002000984770BD4268A8
:102900000249200024F06AFAF8E7C046A402030056
:1029100010B50A0001000248FFF7E0FF10BDC046F5
:1029200044E80200F7B5050008000E0020F062FC44
:10293000002810D001AA6946300005F053FE009B24
:10294000002B08D01749280024F087F9009CE71EC7
:10295000A400002F09DA310028000222FFF7BEFF91
:102960002800114924F079F9F7BD019B28001A19B4
:1029700011000C3A08390B6812680C4924F02EFA41
:10298000019B1B19043B1A68002A06D1064928003E
:1029900024F063F9033F0C3CDBE70549280024F0F1
:1029A0001DFAF7E762020300254F030086020300C9
:1029B0009B02030010B50400FFF778FF054B006988
:1029C000984203D0431E9841C0B210BD200021F0B0
:1029D0004BFFFAE7F5BA000070B505000C000120C6
:1029E0008D4203D0214B9D4201D1002070BD994200
:1029F000FBD001231D4204D01942F6D12B000D005B
:102A00001C002A001A4B1A40062A05D0AA0711D129
:102A1000184A296891420DD12340062B05D0A307FF
:102A2000E3D1144B22689A42DFD121002800FEF73F
:102A300097FEDBE72340062BD7D0A30703D10D4B2E
:102A400022689A42D1D02800FFF730FF8369002B1B
:102A5000CBD0220029001B2098470028C5D0064B68
:102A6000C01A43425841C0B2C0E7C046A4B30200F6
:102A7000070080FFCC9902008CE70200104B10B5D4
:102A8000984219D00F4A0123904217D0184201D022
:102A9000184110BD830706D10B4B02689A4202D140
:102AA0000CF036FFF5E71FF0A6FD084902000848C4
:102AB00005F0F8FC09F012FE0020EAE71800E8E74C
:102AC00084E702008CE70200ECB802002902030050
:102AD00050AC020010B5C30705D4830706D1054BDF
:102AE00002689A4202D122F00CFE10BDFFF7C6FF29
:102AF000FBE7C046ECB802000F4B70B50D00012497
:102B0000984204D100230B602300180070BD0B4BCA
:102B1000984201D10C60F7E70300234002D0401037
:102B20002860F1E78207F0D1054A01689142ECD1B3
:102B30000CF0EEFEF4E7C04684E702008CE70200EA
:102B4000ECB80200184B10B5984228D0174B9842A9
:102B500027D0C30703D5401018F054FA10BD032343
:102B6000184206D1124A0168914202D122F0D2FDE8
:102B7000F4E702001A40022A08D10E4A0240062A4F
:102B800004D0FF22D20580189843E7E71FF033FDF9
:102B900009490200094805F085FC09F09FFD002065
:102BA000DCE7FE208005D9E784E702008CE702001D
:102BB000ECB80200070080FF0F02030050AC0200D7
:102BC00010B583070CD103680A4CA34202D120F050
:102BD0000EF910BD084CA34202D123F03CFFF8E7E8
:102BE0001FF009FD05490200054805F05BFC09F0EE
:102BF00075FDC0460CA0020048E70200BF010300BB
:102C000050AC020013B50C0001A9FFF7D9FF019BDE
:102C1000A34206D022000349034805F043FC09F013
:102C20005DFD13BDE2010300C8AC0200F7B505006D
:102C30000C0017001E00D3070ED557100197019BFB
:102C4000002B1FDA1B190193002E1DD0002B15DA63
:102C5000002301930198FEBD01A91000FFF74CFF6E
:102C60000028ECD138006C681FF0C5FC220003007E
:102C70000B490C4805F016FC09F030FDA342E9D9D8
:102C80000194E7E7002EF9D1019B002B01DBA34261
:102C9000E0D36A680449054805F004FCECE7C04647
:102CA0008501030050AC0200A901030044A9020001
:102CB00010B50400830710D10D4B02689A420CD165
:102CC0000C4B0340062B06D1C00822F032FE430015
:102CD0000120184310BD8068F9E72000FFF7E6FDEA
:102CE0004369181EF6D0210001209847F2E7C0463C
:102CF00060920200070080FF164B70B504000020B0
:102D00009C4203D0144DAC4201D1012070BD134B45
:102D100000209C42FAD001262640864203D0601053
:102D2000431E98410DE02000FFF7C0FD4369002BD2
:102D300009D0210030009847002804D0401B4342AE
:102D40005841C0B2E2E72000FFF7B2FF0028DCD014
:102D50000138E5E784E702008CE70200A4B3020033
:102D600010B50400FFF7A4FF002809D120001FF0D0
:102D700042FC04490200044805F094FB09F0AEFC53
:102D800010BDC0464102030050AC020070B5040003
:102D90000D001600FFF78AFD036A002B05D03200F4
:102DA000290020009847002818D10D4D2000002E42
:102DB00008D11FF020FC02000A49280005F072FB30
:102DC00009F08CFC042E04D11FF015FC064902000A
:102DD000F3E71FF010FC05490200EEE770BDC046A6
:102DE00050AC0200A9020300D4020300F502030064
:102DF00010B51FF017FC002802D102480AF0AAFC07
:102E000010BDC0466001030070B5050000291CDB41
:102E1000032905D80800002416F05AFF18180606E2
:102E20000123023999430C00FE26B52109023143E2
:102E300028001FF011FC002C04D005492800214374
:102E40001FF00AFCAE61EC6170BD0024F226ECE7D5
:102E500080B0000010B50D4C206824F036FC00282E
:102E600007D00B4B1B78002B03D1206803685B68ED
:102E700098470023074A1370074A13700BF030FC81
:102E80000CF05CFA0EF038F810BDC0465C2900204A
:102E9000CB2D0020CA2D0020392E002070B5050052
:102EA00094B0002804D13F481DF0B8FD14B070BDA7
:102EB00008A809F0EDFB041E19D12E68290004A80A
:102EC00001220EF0C7FE23002200310004A808F002
:102ED00099F90400032001F0A1F8200021F043FD3E
:102EE0000120404201F09AF809F0F0FBDEE70120F2
:102EF000404201F093F809992B48FFF713FD099818
:102F0000FFF7D4FC2949040008F0E6FE0028CDD1E3
:102F10002749200008F0E0FE0028C7D1099C01AA3B
:102F20006946200005F05EFB02AA322104A812F0D7
:102F300067FF009B022B05D9019B1E495A6802A816
:102F400023F04CFF2000FFF7B1FC1B4BC2689A42F4
:102F500010D1236819495A6802A823F03FFFE3689B
:102F6000002B07D05A68002A04D00022996802A8D2
:102F7000FFF7B4FC032001F051F804A824F0F5F8A1
:102F800006F034FC04A824F0C4F80120404201F00B
:102F900045F80B4B9A6C002A00D187E700229A640F
:102FA00084E7C0465803030044E8020014AC020062
:102FB000BCA9020085030300658300008E030300A3
:102FC0007C2E0020F8B54E4C1321200025F0A1FCEA
:102FD0002000032125F033FD4A4C01234A4A1321E6
:102FE000200015F0FBFF01220221200016F026F838
:102FF000464C200013F0EAF9454F3860200013F0EA
:10300000F3FB444D2860102025F03CFE04002968A5
:103010000025414E3A68330013F026FF3F4B1C60F9
:103020003F480DF08DFCE120C0000DF099FC3D49BA
:103030003D480AF07FFE09F071FB06F053FB01F0FA
:10304000A5FE13F031F8300024F086FF22F02EFAAE
:1030500000F064F904F0E0F901F07EFC0AF0D4FC21
:10306000324C3348230088331D600BF0ADFB0BF06E
:1030700089FB0AF0DBFC2F4F3B78012B0ED100239C
:1030800007211A002C4800F051FA031E1DD0010040
:10309000F720400000F0D2FBFFF700FF3B78002B49
:1030A0002AD112F0ABF90028F8D0244820F0E8FA31
:1030B0000BF078FB08220021214825F069FE23004F
:1030C00098348C331D602560AAE7F82292021178AB
:1030D0004D2909D15178502906D1F7205288194934
:1030E000400022F043FDD7E70122174917200AF0DC
:1030F000A5F821F062FCD1E712F0D0F9D3E7C04681
:103100003C29002054290020DF270200DC29002070
:10311000582900205C290020642900206029002013
:10312000004000203C2900203C0100207C2E002093
:10313000552E0000EA000020920303009A030300CA
:10314000FC2E002004E0030004A0020010B5084C8F
:10315000084A0621200013F059FF074A07492000BA
:1031600025F089FD00221E21054824F0FFFE10BD38
:10317000642900204C94020000000020C56F01006B
:10318000DC29002070B505000C200C0023F075F838
:10319000024B45600360846070BDC04664940200C9
:1031A00010B524F07FF8014810BDC046A4B302005A
:1031B00010B5C30708D483070ED10368094A9342A8
:1031C00002D0094A934207D1FFF758FC002801DDDD
:1031D00020F063FA054810BDFFF7B4FC17F0F2FECB
:1031E000F4E7C046ECB8020094E70200A4B3020082
:1031F00001220B4B10B51A600A4A51680029FCD015
:1032000000215160A1220131D2009A585960032354
:10321000D01718408018801022F036FA10BDC04632
:1032200000C00040FCC0004010B5002804D1044894
:1032300012F05CFE034810BD0868FFF71FFCF7E7BB
:10324000E7030000A4B3020080235B051869034B69
:103250001B7843438020C002C01A7047C72D00204E
:1032600080235B051869034B1B7843438020C00211
:10327000C01A7047C82D002070B5084DC4012B68D6
:103280000021181921F0C7FB2868054B00197F3071
:1032900000781B788342F0D270BDC046F42900202C
:1032A000C62D002010B5C3790400002B08D0064AB3
:1032B000037981791068DB01C018013021F0ABFB84
:1032C0000023237210BDC046F429002010B5124B14
:1032D00001001A684379DB01D31818007F300478A5
:1032E000FF2C08D10879C00112185278FF2A0FD09C
:1032F000887990420CD08A799B180132D2B25878E2
:103300007E2A01D08A7110BD00234C718B71FAE7BF
:1033100001204042F7E7C046F429002070B5F824A8
:103320008025A40223786D054D2B4CD12B6980207C
:10333000E41A2B69C002E41A2969001B16F0DCFCB0
:103340002B4B2C4918702B69E21852185D4215401E
:10335000294B2A4A9B1A2A4A9B1880225205116936
:103360009D4234D38020C002401B16F0C5FC254B83
:10337000641B1870E411244BE4B21C70A1200123DB
:103380000025224A22491360C0004D604B68002B83
:10339000FCD01358DBB2A342F7D21E4901330B70A5
:1033A00001235360FFF750FF037805001A4CFD2BF3
:1033B0000FD180235B051869184BC009C018C001E4
:1033C0002818206070BD80242B69E402AFE76D18D7
:1033D000C5E7FFF745FF0378803DFD2B01D1256050
:1033E000F0E7FFF73DFFFD2121F015FBF7E7C046B1
:1033F000C82D0020FF87FFFF1401002000000020DF
:1034000064870300C72D0020C62D002000D0004097
:10341000FCD00040C92D0020F4290020FFFFFF014F
:10342000F7B5254B254F1A78254B14001B783968C2
:103430000133E001405CFF2829D00134E4B29C4212
:1034400000D101249442F4D1802300265B051B693E
:10345000DB090193E30100933B68E2019D182B789F
:1034600028005A425341F61821F0EBFA002810D0F8
:10347000002304E0DA01AA5C002A0AD10133019A90
:103480009342F7D13868009BC01821F0D0FA200091
:10349000FEBD0B4B01341B78E4B201339C4200D1DA
:1034A0000124054B1B78A342D4D1072E02D91FF06B
:1034B000F0F9B6E7FF24EAE7C92D0020F42900203F
:1034C000C62D0020F7B507000D0001240E4B1B7818
:1034D00001930E4B1E68019BA34202D2FF242000E1
:1034E000FEBDE10171180B78FE2B09D18B78AB4240
:1034F00006D103312A00380025F01FFC0028EED049
:103500000134E4B2E7E7C046C62D0020F4290020CC
:1035100010B5054A03791068DB01C01881780022D4
:103520000330FDF715FD10BDF4290020F0B585B07E
:1035300002900D0016000393782948D8FFF7C2FFC8
:103540000400002E3BD0FF2801D0FFF795FEFFF7C7
:1035500067FF0400FF2803D11E491F4821F04EFADF
:103560001E4FC0013B680190FE21181821F053FA4C
:103570003B68019AE9B29818023021F04CFA386899
:10358000019B2A00C018033002990BF037FA0C2077
:1035900022F073FE039A0300002A16D0104A1A6024
:1035A0000E4A1C7112685C71E4011419A278DE7174
:1035B00002329A7101221A72039A5A7202E033009F
:1035C000FF28E4D1180005B0F0BD064AE7E7002364
:1035D000F8E7C046A8030300E8AA0200F429002087
:1035E000ACBA020058BB020007B501A9FEF708F902
:1035F0000199FFF767FFFF2803D10449044821F030
:10360000FDF9FFF739FE03480EBDC046DB0303009A
:10361000E8AA0200A4B30200F7B50192027A0400FE
:103620000091002A02D1244809F0D0FEC579002D6E
:1036300006D1224A17680279D201D25D002A05D14B
:10364000092201251A606D422800FEBD61797E22A3
:10365000C901791808007F30A3790078D21AFF28B1
:1036600009D12079C00138184078FF2819D0C01A34
:10367000824200D902000198461B964200D91600EA
:10368000002EE1D0009A01335019C918320025F0FC
:1036900063FBA3799B19DBB27E2B04D0A371AD1918
:1036A000D4E70022E7E70023A3716379DB01FB186D
:1036B0007F331B786371F2E7BE030300F429002017
:1036C000F0B585B00393037A040002910192002BB8
:1036D00002D1304809F07AFEC379002B08D02E4A77
:1036E00003791268DB019B5C019A0092002B25D1C3
:1036F0000923039A13600A3B0193019805B0F0BDBA
:103700007E22A379D71A009A974200D917006079D0
:10371000214E0133C001C01833683A0018180299CD
:103720000BF06CF9A379DB19DBB27E2B0AD0A37105
:10373000029BDB190293009BDB1B0093009B002B79
:10374000DED1DAE70023A371FFF76AFE0500FF2848
:1037500009D12079FFF790FD002323721C23039ADF
:1037600013601D3BC8E760793368C0011818290051
:103770007F3021F050F93368ED015819617921F05B
:103780004AF962793368D2019B187F331B786371E1
:10379000CEE7C046BE030300F4290020002170B527
:1037A000080023F041F9012405000C4B1B78A342CB
:1037B00001D2280070BD0A4AE3011068C0180378DE
:1037C000FE2B08D1817800220330FDF7C1FB0100F8
:1037D000280010F001FD0134E4B2E6E7C62D002018
:1037E000F429002073B501A9FEF70AF80199FFF743
:1037F00069FEFF2803D10E490E4821F0FFF800258D
:103800007E260D4B1C68C301E31859789B78023360
:10381000DBB2C201A2187F321078FF2804D1C81A87
:10382000401921F031FF76BDF31AED180023F0E7BF
:10383000DB030300E8AA0200F42900201FB5034AB5
:10384000034B22F056F905B000BDC046CD32000052
:10385000A5320000044B054A05481A60054A5A6023
:1038600000221A817047C046FC290020200307006F
:10387000A4B3020074696275F7B51600314A0B00F3
:1038800088321768002F02D12F4809F09FFD0221CE
:103890002E4C2F4DE167A324E4002C592D4AE4B2AD
:1038A00006343C192C4F3D68A54204D12B4B1160C6
:1038B00001930198FEBD2578002832D1601C002BB1
:1038C00004D12900FDF75CFB01900BE05A68AA4285
:1038D00000D92A000100186825F047FA01226B0080
:1038E0001A430192002E0ED0621953785B42336066
:1038F000D37811791B0209040B43917852790B4359
:103900001206134373603E68A91D6118721A2000E5
:1039100025F02BFA0223751B0E4A063D3D6013600D
:10392000C7E7022D04D8002303600E330193D9E7C3
:103930002100042225F010FAE91E201D0022FDF7C7
:1039400007FBC1E77C2E00206C04030004E100E0CB
:103950000010004000E100E0082A0020A4B30200AB
:103960007FB5002101AA0800FFF786FF0A4B9842A5
:103970000FD00121019B03905A00029B0A438B4008
:103980000492064A032013400B4303A9059302F057
:1039900071FE07B000BDC046A4B30200FEFFFF7F6A
:1039A000002213B501AC11002000FFF765FF094BA1
:1039B00098420ED02378022B08D96378012B05D1C9
:1039C000A378002B02D1E378012B02D0024809F042
:1039D000FDFC16BDA4B302004C04030002220B4BF5
:1039E00010B5DA6700220121094B5A61094A1161B9
:1039F0005A69002AFCD0084C88342068002803D07B
:103A000022F06AFC0023236010BDC04604E100E000
:103A1000FC100040001000407C2E002010B5FFF785
:103A2000DDFF014810BDC046A4B30200F8B5FFF7A2
:103A3000D5FF364C26786578063601357543280063
:103A400022F01BFC324A861916600022314B4519C0
:103A500088331860304B01211D60304B5A60802242
:103A6000D20511605A68002AFCD003212C4B615604
:103A70002C4A00259950A178043A9950617A08326D
:103A800099506168284A08269950217A274A284F78
:103A900099500121274A9D5004329950264A9E5040
:103AA0008122247892042243A324E4001A510224A0
:103AB000224A9C50224A9F50224F043A9F50182776
:103AC000214A9F50214AC0279850C12292009E50FF
:103AD0001F4ABF00D0591F4E0640C020000230438D
:103AE000D051C020400014501460102280301C5867
:103AF00022431A50184A5560596051680029FCD079
:103B00000021116101229A60F8BDC046FC29002005
:103B1000082A00207C2E0020F8290020FC0000400C
:103B2000001000400C0500001C05000024050000EA
:103B3000FFFF00002C050000140500003405000004
:103B40003C050000211001005405000004050000A0
:103B500000E100E0FF00FFFFFC10004010B5FFF7A0
:103B600065FF014810BDC046A4B30200F0B50500D2
:103B70008DB01600002802D0694809F0EBFD694BB2
:103B800009AA190091C991C21A781F7A06925A7827
:103B900005929A78039203229A5604925A685B7AA5
:103BA000019202937368AB424CD9EB000793B36860
:103BB000EA009B181A68002A1BD0042A19D05868FA
:103BC000FEF788FFB368EA0004009858FDF7E2F9B1
:103BD0000200B338FF3806282ED816F079F8040C06
:103BE000131920262800631EFA2B00D995E0E3B2B2
:103BF00006930135D6E7631EFD2B00D98DE0E3B2B5
:103C00000593F6E7532C00D987E0E3B20393F0E77E
:103C1000072C00D981E0444B1B570493E9E7022CA1
:103C200000D97AE0E3B20293E3E70194E1E7FF2CE5
:103C300000D972E0E7B2DCE73C493D4804F032FCD1
:103C400008F04CFD3B4B09AC88331B68002B12D1AC
:103C5000069B27722370059B6370039BA370049BD4
:103C6000E370019B0A93029B63722E4B07CC07C340
:103C700031480DB0F0BD069B2A4D2370059B637043
:103C800022882B889A420FD0FFF7A8FE039B277249
:103C9000A370049BE370019B0A93029B63720ECC9A
:103CA0000EC5FFF7C3FEE3E70222244B2449DA677F
:103CB0000022244B4A6101321A614A69002AFCD071
:103CC000039809AA907004981772D07001980A900E
:103CD00002985072134870CA70C01B4A04989850DA
:103CE0000398043A98500298083298500198174A5D
:103CF0009850174A9F5000224A6001325A604A6821
:103D0000002AFCD000220A61C02101329A60114BC6
:103D1000013249005A501A60AAE70F498DE7C046A0
:103D2000F6030300FC290020EE0303001104030046
:103D3000C8AC02007C2E0020A4B3020004E100E025
:103D4000FC100040001000400C0500001C050000A5
:103D50002405000000E100E027040300214BF7B533
:103D60005A68214D002A03D000225A600132AA600D
:103D70001A69002A34D000221A61A323DB00E85814
:103D80001A4BC2B2883319680C78A24201D21400CF
:103D900008708023DB00EB58012B1FD1144E154A0D
:103DA0003768A31D12680193FB189A4216D3621C50
:103DB000380024F0D1FFA923DB00EB58621CBB5470
:103DC00015F0DAFE3368020A1C19E270020C227147
:103DD000019AA0709B18000E607133600123AB60E4
:103DE000F7BDC046FC100040001000407C2E0020B3
:103DF000082A0020F8290020F7B5314F00933B0036
:103E0000883301921A680E00002A02D12D4809F069
:103E1000DDFA02212C4B2D4CD96700232C4D636118
:103E200001332B616369002BFCD0A323DB00EB582B
:103E30000099DBB27118994203D9B3423DD39B1B61
:103E40000093009B8837F31813703B68010001331F
:103E50001800320024F080FF009B002B06D0386849
:103E6000013680191A00019924F076FF002363605F
:103E700001332B606368002BFCD00123AB6000236F
:103E800023612369002BFCD00023636101332B6184
:103E90006369002BFCD00023636001336B606368AF
:103EA000002BFCD00023C021022223610133AB6030
:103EB000084B49005A501A60F7BD1E000023BFE7A7
:103EC0007C2E00206C04030004E100E0FC100040A4
:103ED0000010004000E100E007B501A9FDF790FCEB
:103EE000019B020003210248FFF786FF01480EBD37
:103EF000EA030300A4B302001FB5012201A9FEF7E3
:103F000077FF002301981A000299FFF775FF014817
:103F100005B000BDA4B30200030010B50548002B96
:103F200003D11FF056F908F0D9FB09681FF057F9C3
:103F3000F9E7C04614AC020010B503480968FEF763
:103F4000F1FC024810BDC04644E80200A4B30200E0
:103F5000F0B5802787B02B4D02907F422C78002C43
:103F60001CD063B2002B12DA6E787C40E4B2002ED3
:103F700014D0013CE4B2FF2C02D101350135EDE74C
:103F800004AB981D0121067005F0F2FBF1E704ABCC
:103F9000D81D0121047005F0EBFBEFE7052702981F
:103FA0001FF07BFB0124BC4227DA0025164E2200BD
:103FB000290030000BF0A2FB6B4601901B79002B0F
:103FC00015D0631E1A002900300003930BF096FBF6
:103FD000031E0CD12200290030000BF05BFBFF22F6
:103FE000019B290013403000621E0BF053FB01358A
:103FF000052DDBD10134E4B2D5E7013F002FCED14E
:1040000007B0F0BD870403001C00002010B5C820D5
:10401000FFF79EFF004810BDA4B3020010B50400D6
:10402000431C02D0024804F09BFA024B1C6010BDF6
:10403000A42E0020782E0020014B024A9A6470477B
:104040007C2E0020A42E002030B507240278084DD5
:10405000A24314000222224302707F22039C41608B
:104060002240D400028883602A402243028030BD6F
:1040700007FCFFFF10B50B00072401782340A14384
:1040800019437F23017004990A4C0B40D90003881F
:10409000426023400B430380039B04685905064B91
:1040A000C90A23400B430360029B8360059BC360E6
:1040B00010BDC04607FCFFFFFF03E0FF70B513789B
:1040C00004000A3BD8B20F2809D90A001048114948
:1040D00004F0E8F90025636A1860280070BD002527
:1040E00052781B021A43E36AAB420AD1238C0025A3
:1040F000042BF2D10849064804F0D4F9636A186029
:10410000EBE7206BA90009589142E6D00135EBE7B7
:10411000D8AB0200A8060300BD060300F0B50400FA
:1041200085B00D00100003A9A26A1E0021F022FF35
:10413000002809D12A000B490B4804F0B3F9636A3F
:104140001860002005B0F0BD0398FEF7C3FC030023
:10415000B343F7D0030000962A000449024804F054
:10416000A1F9ECE764060300D8AB02007C0603006B
:10417000F7B51F0013780E000A3BD9B2050021489D
:104180000F2904D850781B02184321F0D7FB1524BF
:104190000378009315231C491B1B0193A300CB1A22
:1041A000190055310978009A91421FD119005631F2
:1041B000427809788A4219D1573381781B788B422B
:1041C00014D1002B0FD1019B9A000F4BD05CB84249
:1041D00008D93B0032000D490D4804F063F96B6AC1
:1041E00018600020FEBDC378002BECD0013C002CF1
:1041F000D0D132000749064804F054F96B6A1860C0
:104200002000EFE7FB82030020070300D406030031
:10421000D8AB0200ED060300F0B5137885B00500B9
:104220000E00462B47D101A9100021F0D3FE019BBF
:10423000834240D003781A000A3A0F2A0AD80200B3
:104240000F2331002800FFF793FF01248440200052
:1042500005B0F0BDB32B2ED121F0B7FE040021F044
:10426000AFFE02900378B62B25D10127A73B220091
:1042700031002800FFF77CFF3C0003A9844002982E
:1042800021F0A8FE039B02909842E0D09D2102A855
:1042900021F0AFFE029A039B9A42D8D00F2331003F
:1042A0002800FFF765FF3B00834002981C4321F084
:1042B00087FE0290EEE732000349044804F0F2F86A
:1042C0006B6A00241860C2E705070300D8AB020040
:1042D000F0B50E0087B0040004A930001F00019261
:1042E00021F031FB019B0500002B0FD1A4239B0083
:1042F0009E4205D1BF21090220001EF0ADF919E050
:10430000BE4B9E4200D088E0BD49F5E7019B012BE2
:1043100000D09AE00A23FF339E420DD101003A6893
:104320002000FFF7CBFE010020001EF0DFF900287F
:1043300000D116E207B0F0BDB24B9E4209D1010098
:104340003A682000FFF7BAFE010020001EF026FAAE
:10435000EDE7AD4B9E420AD101000F233A682000E1
:10436000FFF706FF8E21C000C9010143C4E70378AF
:10437000622B3BD1049B032B07D0052B36D1C3788E
:104380005F2B33D103796E2B30D101230E265B4294
:1043900069789E480293B300F31AC3181A002B32AF
:1043A00012788A4209D1AA7894461A002C321278DF
:1043B000944502D12A331B780293013E002EEAD1A4
:1043C000029B013329D03A6829002000FFF776FECE
:1043D000049B0200052B03D12E79773E73425E4188
:1043E0003300029920001EF09DF9A0E7884B9E4201
:1043F00001D1884980E7884B9E4201D187497BE7FC
:10440000874B9E4212D129003A682000FFF704FF33
:10441000FF231B02B421184215D0019B2A008149B9
:10442000814804F03FF8636A186083E77F4B9E423F
:10443000F3D13A6829002000FFF7EEFEFF231B02AC
:104440001842EAD1BC2109028FE7019B022B00D060
:1044500021E17B68764A1B780A3B0F2B48D89642AD
:1044600012D13A6801000F232000FFF781FE7A681D
:10447000060029000F232000FFF77AFE310002001A
:1044800020001EF01CF955E700226A4B02929E4262
:104490001AD18026F6013A68290007232000FFF789
:1044A00067FE7A680190290007232000FFF760FE6D
:1044B000019A0300310020001EF0FAF83AE7029B4F
:1044C000013302930F2BA8D0029B03229E005A4B6C
:1044D0002800991924F0B7FC0028F0D1EB78002BC4
:1044E000EDD1564BF65C80233601DB011E43D2E74B
:1044F00096421AD1802607233A6829002000FFF748
:1045000037FEFF23019029007A682000FFF706FE9E
:104510000100019BB6011B0231431943ECE6A026C2
:10452000E9E7C026E7E7E026E5E787239B009E4210
:10453000F5D01E3B9E42F4D0414B9E42F3D0414BFE
:104540009E4251D0404B9E4250D0404B9E424FD055
:104550004F339E424ED03E4B9E424DD03D4B9E42ED
:1045600000D05AE705233C4A9B009B5A290002933E
:104570003A6807232000FFF7FBFD7E68039033783D
:10458000452B6BD1300021F060FD002866D1300052
:1045900021F01BFD0378A62B60D105A921F01AFD9F
:1045A0000599060021F000FD022857D1300021F0C6
:1045B00007FD07233200070029002000FFF7D8FD80
:1045C000029B0600DB0451D51F233A00290020007E
:1045D000FFF7A4FDF100039B029E80011E433143BF
:1045E000F826F6003040C0E60023BCE70123BAE716
:1045F000019BB8E70323B6E70423B4E7E602000013
:1046000030BF00000B0200000F0200002505030070
:104610002202000072B600002302000062B6000011
:104620009F020000DF050300D8AB02009A020000E1
:104630008902000001020000290603002806030089
:10464000C50200006E0200006F020000710200004F
:10465000C1020000C302000058F602002A004449CB
:10466000444803F01FFF636A1860D6E66B460822D1
:104670009B5E002B07DA3E233A0029002000FFF75B
:104680004DFD4008A6E77C233A0029002000FFF7F3
:1046900045FD80089EE7019B032B00D0BDE69E23CD
:1046A0009B009E4222D100263A6807232900200061
:1046B000FFF75EFD7A680190072329002000FFF7CD
:1046C00057FD1F230290BA6829002000FFF726FD3E
:1046D000019F029B374381013943DE0031430BE6E2
:1046E00080263601E0E780267601DDE7224B9E42F8
:1046F000F6D0224B9E42F6D0093B9E422BD1C026DB
:1047000007233A6829002000FFF732FD07230190B4
:104710007A6829002000FFF72BFDBA68760113782C
:1047200002900A3B0F2B0DD8072329002000FFF72A
:104730001FFD029BD900019B194331430F008101EA
:104740003943D9E58023DB001E43290007232000DD
:10475000FFF7E4FCEDE70A4B9E4200D05DE6D02671
:10476000CEE708490348646A1EF040FD2060E1E599
:10477000B4050300D8AB0200790200000702000074
:10478000C502000014060300F7B50E000700110073
:10479000300021F009FC0025040004281ED97C6AA1
:1047A000134914481EF022FD206000242000FEBDA5
:1047B00073780002184321F0C1F80236019024F00A
:1047C0003BFB022811D1019B1B78722B0DD1019B61
:1047D0005A782B0030339A4207D10135A542E5D0F3
:1047E00030780A38C3B20F2BE2D97C6A0249D8E785
:1047F0004F050300D8AB020082050300054B10B53E
:10480000186822F05EFF044B002800D1034B18000B
:1048100010BDC0465C2900208CE7020084E702003E
:1048200010B5034B186822F054FF024810BDC04673
:104830005C290020A4B3020010B5034B186822F0D5
:10484000B6FF20F021FF10BD5C29002010B5034BFE
:10485000186822F0B3FF20F017FF10BD5C2900207C
:1048600010B5034B186822F0B0FF20F00DFF10BD0B
:104870005C29002010B5034B186822F05BFF20F084
:1048800003FF10BD5C29002030B593B009F08AFF0A
:10489000184C200023F05BFB174D286812F04CF8F1
:1048A000200023F059FB09F06DFF20F0FFFD1EF002
:1048B00072F90400296803A822F0F9FE0F4B2000CA
:1048C0000A93039B0B93049B0C93059B0D93069BF0
:1048D0000E93079B0F93089B1093099B01931193D1
:1048E00020F0A5F8200020220AA90AF087F8044841
:1048F00013B030BD642900205C29002055BA11C0D6
:10490000A4B30200F8B5114D0400286822F0D9FEC6
:10491000002802D12000FFF7B7FF0D4B1B78002BBA
:104920000DD10C4E3478E4B2002C08D10127286850
:10493000377003685B689847054B34701F702868B0
:1049400012F0D6F820F0A0FEF8BDC0465C29002089
:10495000CA2D0020CB2D0020F0B58DB01EF01BF924
:104960000E4B02689A4217D1046941680894446961
:104970008268C36809948469C0690A9484466C4655
:1049800005910692079308A8E0C8E0C4604620603D
:104990000348006822F075FE0DB0F0BD55BA11C095
:1049A0005C290020F0B58FB00692426809939446C6
:1049B0000368040002939B6804300093634403601F
:1049C0000E001EF0F5F8059060681EF007F9431C14
:1049D00063600378A24A0193831C636043780021DB
:1049E0000093C31C63608378B5000393031D636069
:1049F000C3782000049323001033A360059B143078
:104A00009A1893000793C318E360079B0C331A00AE
:104A1000089324F0BDF9099B009A5B190B93059B41
:104A20009B1A039A0A939D1A2F1D009ABF00E7193B
:104A30000123B24264D2019A1A4207D13300009A8C
:104A40008849894803F02EFD07F048FE009B033596
:104A50009900099BAD005918009B6519F01A01F0E7
:104A600009FE009E043F68600022964200D070E07C
:104A7000069B002B03D1019B1B0700D4D6E0022329
:104A80000026019A1A400992B24204D0069820F0FA
:104A90009EFE060038600027029B0B9DDB68089392
:104AA000069B9F425ED10A9B029805339B00E1184A
:104AB0000A00049D0C30002D00D080E0049A920082
:104AC0008918079A2032A2188A4200D980E0143B44
:104AD0000693009B089A9B00D3180793039B9D4263
:104AE00000D27FE065680DA80D951EF061F82818CA
:104AF0000578461CFF2D00D0A7E066600FB0F0BD22
:104B0000019A1A4205D00335AD00584B6519043F90
:104B10006B60069B002BA7D1019B1B07A4D4009BB5
:104B2000049A9A1AB24212D8009A049B991A320037
:104B30008900009B9A4297D29300029D581828182A
:104B4000089D0069EB1AE31818610132F1E73300A0
:104B500076E7099908989300C958C31AE3181961B0
:104B6000013282E7009B039800221B189C462968AB
:104B7000944505D8099B002B1CD1CA083C490EE07E
:104B8000089B90001858884212D1059B013B9B1A44
:104B90009B00E3185A69002A05D0CA0835493248F3
:104BA00003F080FC50E76A685A610137083577E7FF
:104BB0000132DDE76A68300020F042FEF5E7166852
:104BC000002E02D1AE0086591660013D043272E714
:104BD000081D0968002903D1121A92102649DEE740
:104BE000010071E7069AAB00D71AE7193A69002A63
:104BF00016D1082000996E180899B6008E190799E9
:104C0000C958019B03420DD0049B029804339B00BA
:104C10001858043003F0B0FF002803D043683B610C
:104C200001355BE732681549D208B8E7039B002BD2
:104C300002D0134808F08EFD019B9B0700D451E77A
:104C4000039820F0C4FD38604CE7ED43059BED1858
:104C5000AD00651968690AF0EBFD6861300047E74F
:104C6000FDFFFF3F7407030050AC020004A00200E8
:104C7000DC070300AD070300FD0703002F08030056
:104C80005F0803000048704716FCFFFF00487047AC
:104C900016FCFFFF82B007B591B204920593052977
:104CA00009D01B2902D104A810F0C2FD002003B0D6
:104CB00008BC02B0184704AB5B88032BF6D106A9E9
:104CC0000822684624F048F80349049A059B0868BE
:104CD00011F026FFEAE7C046602900200022044BBD
:104CE0005A60044A08321A60034A13607047C0468B
:104CF0000C2A002060990200A02B0020F8B5214E5C
:104D00003568696801292DD9AA684B1ED05C0A282C
:104D100028D1002B01DC1C0009E0581E145C0A2C71
:104D2000F9D00300F5E7105D202802D10134A1423B
:104D3000F9D8002B0BDD601C814208D1581E0028D9
:104D400005D00138175C0A2F0CD0202FF7D052184D
:104D5000023AE31A14789B083A3C624254411C1907
:104D6000002C00D1F8BD084F04223900280022F0A1
:104D700092F90421380004F0EDFC3369013C04335E
:104D80003361EDE7142A00209B6F030010B5202249
:104D90000021024823F0FCFF10BDC046DC2E00209D
:104DA000084B10B5426818600020986018750138EB
:104DB000D86008005A601A6199611EF061FCFFF723
:104DC0009DFF10BD142A0020F8B503780400002BC5
:104DD0001ED0104D286E002804D0210024F022F8A7
:104DE000002815D0200024F027F8471C380021F0B7
:104DF00051FA061E0CD03A00210023F0ADFF2A0024
:104E0000054B5C321968043B99609342FAD12E66D7
:104E1000F8BDC0467C2E0020F42E0020F0B5B84C22
:104E200002002068A568436885B00193002D00D07A
:104E3000FDE0531E042B11D8636801998B4200D109
:104E400095E0012A00D12AE1022A07D1236962688C
:104E5000934200D94FE10122524288E0032A00D157
:104E600085E0042A00D12FE1052A00D107E1062AB6
:104E70000ED12369019A9342AD416D42002DEADDC6
:104E80002368290098682369C01804F063FC1FE0B8
:104E90000B2A21D1019B2269991A22F0BCF92368BF
:104EA000019A5B68934204D213002269981A04F0B5
:104EB00087FC2268236951689068C91AC01804F0F9
:104EC00049FC236858682369C01A401B04F066FC3B
:104ED00023695D192561BEE70E2A13D1E368002B13
:104EE000B9DB013BE3606268019B991A22F093F9F8
:104EF000E368002B18DB1633824A9B00D3189968AD
:104F000020680FE0102A16D1E368062BA3DC5D1C95
:104F10007C4A17339B00D318996800299BD063689B
:104F2000E560436022F03CF963682269D61A226882
:104F30005568ED1A0AE0152A0CD123696268616888
:104F40009A1A22F070F9236962689E1A0127002ECE
:104F50002FDCA4E70D2A0DD16B481EF091FB2068D1
:104F600022F003F96368C018FFF72EFF002210003B
:104F700005B0F0BD01231B2A62D0082A01D07F2A88
:104F800020D121696268914200D864E700238668D5
:104F9000B618F75C202F13D101339F18B942F8D807
:104FA0000426032B00DC033E891B320022F03BF970
:104FB0000127300004F0F2FB23699E1B266178E094
:104FC0000126F1E7092A28D1636822698068D11A8D
:104FD000C0184E4A03AB02F025FB061E00D13AE78B
:104FE0000027431C0BD1A0691EF04AFB63682269AD
:104FF000D11A22689068C01804F0ACFB4FE723690F
:105000002068F918039B01375A1C03921A7822F082
:10501000F0F8BE42F3D1350041E71300203B5E2B90
:1050200000D918E7216922F0EDF8012537E7012DB5
:1050300008D104234F2A03D002235B2A00D0002387
:10504000A36008E7022D20D11300303B092B03D8C1
:1050500003232275A360FEE60023A360412A00D14A
:1050600052E7422A00D139E7432A00D101E7442A16
:1050700000D1EBE6482A12D0462A00D0EBE6002702
:10508000019B22693E009D1A0EE00021032D29D1CB
:105090007E2A24D1237D312B01D0372B0DD1002541
:1050A0002F00236962689E1A0023A3609E4200DDE0
:1050B0007FE7002F00D1E1E6F1E61A00FB25343A44
:1050C0002A42DCD0332B0AD12169019B994206D2B6
:1050D000012222F0A8F8002501272E00E4E7002590
:1050E0002F00FAE7042D04D1462AC8D0482AD6D08A
:1050F000A5E7A160AFE6002501262F0059E7C046CD
:10510000142A00207C2E00209C3F030044E802006B
:10511000044B88600B60044B08004B600023CB609D
:105120007047C0462C980200FD2B020013B5040006
:10513000080001A9FBF746FF002C03D0012C07D083
:10514000002004E0019B0548002B00D1044816BD57
:1051500001991EF0AFF840002043F8E78CE7020009
:1051600084E70200F0B585B00400080003A915002B
:10517000FBF728FF0600002D07D10300039A2F49F3
:10518000200021F02BFE05B0F0BD039B0200C318E8
:10519000002101200193019B934206D82727002973
:1051A00000D0053F3A0026491AE01378272B08D093
:1051B000223B5D426B41DBB20132002BEBD0272753
:1051C000F0E700230100F7E730001EF040F805008B
:1051D00030001EF057F80600AF4205D13A001949D9
:1051E000200021F0FBFD14E017495C2D0ED02B00B0
:1051F000203B5E2B01D82A00D5E714490A2D05D0A3
:1052000013490D2D02D0092D0CD11249200021F097
:1052100024FD019BB342D7D83A000949200021F070
:10522000DDFDB0E7FF2D02D82A000B49D8E70B4B74
:105230002A000B499D42D3D90A49D1E7C300030094
:105240004200030041000300450003004800030042
:105250004B0003004E00030051000300FFFF00005D
:10526000C8080300CF080300F7B51E0008AB1D787F
:10527000294B0C001700984206D12B003200390050
:10528000FDF7D4FC2018FEBDF30715D57610019666
:10529000019BE219002B2ADA00213F260127501E2C
:1052A000A04219D2002900D001932000002DEAD19C
:1052B0001A491B481FF0A2FB01A93000FDF71CFC96
:1052C0000028E5D130001DF096F916490200164875
:1052D00003F0E8F807F002FA0278B243802A01D01E
:1052E00039000133421E002BCDD01000D8E720003A
:1052F000012600243F27904204D3002C00D00193C4
:105300001000D3E7013BBED3340001300178B9432C
:105310008029F0D10130F9E760920200AE08030065
:1053200044A902008608030050AC0200F0B587B023
:1053300004000E001700FDF7B9FA02A905002000CD
:10534000FBF740FE0400042F4ED1B30734D1274BA6
:1053500032689A4230D105AB04AA03A930001DF08F
:1053600082FE059B224FBB4204D0032B02D0214872
:1053700008F01EFA039B2600BB4207D00122210041
:1053800000922800029AFFF76FFF0600029A049B22
:10539000A118BB4206D00121280000912100FFF78F
:1053A00063FF01000E208E4204D88A1B28003100C2
:1053B0001CF0DAFF07B0F0BD0023029A0093210031
:1053C00033002800FFF750FF0278012153B2002B71
:1053D00006DA4023012101E001315B081342FBD1D1
:1053E0000122FBF7B5FDE5E70020E3E7A8A40200F2
:1053F000A4B3020066FC020010B504000C2020F0EB
:105400003CFF034B4460036001235B42836010BD9B
:10541000C89A020001220020074B08495A60086020
:10542000A821DA60064AC9005A5006495A50043188
:105430005A5005495A50704700A000400CAC00403B
:10544000FCFF0000440500004C050000034B04482D
:105450001B78002B00D103487047C046CD2D00209B
:105460008CE7020084E70200F8B5A826324A334BE5
:10547000F600196813680420CB18C9181160304A67
:105480008C4612781B11170009112E4A2E4C2F4DF5
:10549000002F48D0002B3ADA9051C31AA920C0003F
:1054A000135081239B00002937DA591A13515151A7
:1054B0000123274CD3602378002B22D03F2225489C
:1054C000254B01688C331B6801310A409D5C1C4BE5
:1054D0001B78002B01D0803D6D001C2302606246CA
:1054E0006B4308339B1A154A9B1013601F23194006
:1054F00007D11A4B1A78002A03D01948197009F0FD
:1055000069FA01232278042053402370F8BDA927AB
:105510000433FF00D0519351C3E7535181239B00C3
:10552000C9181151C4E7043390515351A920812364
:10553000C0009B001350F3E7302A0020402A0020CF
:10554000D800002000A000404C05000044050000E9
:10555000CC2D0020342A00207C2E0020D9000020F1
:10556000BB2C020030B585B001220400080001A95F
:10557000FDF73EFC029A202A00D920220023019D3B
:10558000934204D0E85CE11808710133F8E7014860
:1055900005B030BDA4B3020070B5040008001500CA
:1055A000FDF76CFA1F2802D90C4807F00FFF002DF9
:1055B00002D10B4808F0CEF82418042D04D10120A4
:1055C00023795B00184370BD2800FDF757FAFF28C8
:1055D00001D90448E9E720710348F4E7080903000A
:1055E0001C09030039FC0200A4B302000123A0221D
:1055F000834010B5134CD20513510300C133124C34
:10560000FF339B009C50114B8900C918A223DB007B
:10561000CA580F4C00022240CA50F82252011040D2
:10562000C022CC589202224310430322C850CC58C7
:10563000084822432043C850C046C046C046CA500E
:1056400010BDC0460C0500000303000000600040D0
:10565000FFE0ECFF031F0000A0221E21114BD2002F
:1056600070B59C58104D8C439C50A324E4001D51F0
:105670000E4C0F4D0F4E5C5104355E510E4D8000A7
:105680005C51A5240D4DE4001D51084C0C4D001932
:105690000C4C185104341D510B4C185198580143AF
:1056A000995070BD00F0014040A1004000600040F2
:1056B0001C05000044A100402405000048A1004052
:1056C0004CA100402C0500003405000010B504007A
:1056D0000A4903F0F5FB0A4BA0211C600123607905
:1056E000084A8340C9058B500021FFF77FFF002047
:1056F000FFF7B2FF0022044B1A7010BDD8B10200B0
:10570000382A00200C050000D800002070B50D00DC
:105710000400134E2800310003F0D2FB31002000BA
:1057200003F0CEFB0F4BA0221C600F4BD2051D6077
:10573000607901242100814026000C4BD150697909
:105740008E400021D650FFF751FF68792100FFF706
:105750004DFF2000FFF780FF054B1C7070BDC04659
:10576000D8B10200382A00203C2A00200C05000095
:10577000D8000020F8B50025FFF74CFE214B28008B
:1057800090331D6009F0F4F8A0221E201E4B1F4923
:105790001D701F4BD2001D601E4B1F4C1D608B588F
:1057A0001E4F83438B50A223DB00E2581C4E3A402D
:1057B000E250E2581B493243E2500122E5501A4BB5
:1057C000186843799A401300A022D205535003F081
:1057D00061FB164B1B78AB4213D0154B1149E258B5
:1057E0001740E750E25816430122E650E550114BAE
:1057F000186843799A401300A022D205535003F051
:1058000049FBF8BD7C2E0020CD2D002000F001408A
:10581000302A0020402A002000600040FFE0ECFF1A
:10582000001F03000C050000382A0020D8000020CB
:10583000140500003C2A0020F0B53E4E8DB0330028
:1058400090331B680500002B03D1FFF793FF0DB0C9
:10585000F0BD002801D008F097FA684606F018FF5E
:10586000002822D133009033186807F0B9F90400FA
:1058700006F02CFF002D01D008F090FA2E4B2022CC
:105880001D6833006D118C3301356D011B681540A7
:105890005D19002C2DD1903621002800346023F0B2
:1058A00077FA0122254B1A70D1E7002D01D008F0BC
:1058B00075FA019B2249186806F00EFA00240500CB
:1058C000A042DBD1019F3800FCF7F0FF1D4B98424E
:1058D0000BD12900012000F0CDFE2A000400F86061
:1058E0001F211948FBF734FBA060019B0024B3641F
:1058F000C4E72000FCF7DAFF144B984209D03300CC
:1059000000229033124913481A601DF06FFCB064F6
:105910009DE763682B60A3686B60E368AB602369F5
:10592000EB6063692B61A3696B61E369AB61236A17
:10593000EB61B6E77C2E0020342A0020D90000203D
:105940009CAB020034AA0200D6080300AC9B020004
:10595000F608030050AC020010B5FFF70BFF01483A
:1059600010BDC046A4B30200F0B589B00493734BD8
:1059700003901B780E001500002B01D0FFF7FAFEF4
:105980006F4C8C342368002B06D16D4A4020903236
:10599000136020F072FC206080226A4BD200DA672C
:1059A0000122694C694BE250FFF734FD0023684A3D
:1059B000F021A3500432A3500832A350C22209039D
:1059C0009200A150634F093AFF3AA3500594BE429A
:1059D00000D0A3E0B54200D09DE05F4D07AC2800A9
:1059E00003F062FA002805D001235C4928002370E7
:1059F00003F066FA5A4D280003F056FA002805D045
:105A0000012356492800637003F05AFA554D2800C7
:105A100003F04AFA002805D0012350492800A3705A
:105A200003F04EFA002307AA5F1C9B5C002B39D0C1
:105A30004D4ABB00043BD458A02203213D006379AA
:105A4000D205C133FF339B00995007ABEB5C002BB1
:105A500026D00426444BAA00D3580193012263792F
:105A6000A0219A40A123C905DB00CA50019B053340
:105A7000180002931DF001F9012811D16379A021CA
:105A800098403A4BC905C85002981DF0F6F8002816
:105A900006D1013E002EE1D1019949E00225D4E76B
:105AA000022DFBD10123022FBDD12B4801F0BEFCFA
:105AB000FFF70CFE0021039807F058F80025012499
:105AC0003F221F4B802190331860294B1D70294BBA
:105AD0001C70294B1A601A4B12198C33186823F06A
:105AE00057F92800FFF7A8FE244B144E1C60059BB5
:105AF00050221C6022492800347008F005FF049BE6
:105B0000AB4219D00E4B3278002A15D09A6C002A7D
:105B100012D120BFF7E71B4807F01CFE300001F050
:105B200085FC0400BD42C3D0280001F07FFC0100C9
:105B30002000FFF7EBFDBDE709B0F0BDCD2D002043
:105B40007C2E002004E100E000A00040FC0F0000DB
:105B500004050000A4B302006CA20200A8B1020078
:105B6000B4A20200C4A20200789B02000C0500004F
:105B7000CC2D0020D9000020342A00200CAC00409D
:105B8000695400004109030010B5084B86B002AC0F
:105B90000093019404230CF0BFFB02982379E26880
:105BA000A168FFF7E1FE024806B010BD849B020029
:105BB000A4B30200014B1878C0B27047CD2D00206D
:105BC00010B5242020F059FB0400044B202208C00B
:105BD000802123F0DDF8200010BDC046AC9B020000
:105BE000F8B5070008000D001600FCF75FFE304B0B
:105BF00098425BD1781F0F2858D814F069F808082C
:105C00003257575757575757575757303055FFF751
:105C1000D7FF04230400EA5CE2540133242BFAD1B9
:105C20003000FCF743FE224B98423FD10121052F63
:105C300002D0122F00D002390422FF20B35CA55CF1
:105C4000803B4B435B19FF2B03D90500DB179D43BA
:105C50002B00A3540132242AF0D12000F8BD2C00DF
:105C6000DEE7FFF7ADFF04230400EA5CE2540133F2
:105C7000242BFAD13000FCF765FF0F211DF022F82C
:105C80002100FF25221D24311378803B4343DB1381
:105C90008033FF2B03D92E00DB179E433300137094
:105CA00001329142F0D1D8E72C00E3E70024D4E799
:105CB000AC9B0200F0B585B00C00FBF76BF903AAB2
:105CC000070002A92000FCF77BFF029E039B350022
:105CD0001035AD002800019320F0CFFA04002C22EB
:105CE0001030002123F054F867602700104BE66362
:105CF0002360104B019EA3600F4B403DE3600F4BB0
:105D0000403763610E4B7519A3610E4BE3610E4B77
:105D100023620E4B63620E4B6363AE4202D12000DE
:105D200005B0F0BD01CEFBF735F901C7F5E7C04678
:105D300018B80200555D0000B55D0000196600004E
:105D4000B1660000795D0000B1670000A565000044
:105D50000CA0020070B50C0005000B6805495A68DC
:105D600021F03CF821682800403122000CF08CF929
:105D700070BDC046843B0300136870B5002B10D182
:105D80000568EE6BB34200D170BD9C002C19246CE9
:105D9000A14201D00133F5E702339B001B58136089
:105DA000F2E7024902481EF029FEC04663090300DB
:105DB000A0A70200F0B51700C26B85B0CE19050090
:105DC00001910393964206D033002549254802F0FD
:105DD00069FB06F083FC0021300000F04BFC04005E
:105DE000019B05609B001A0003990830029322F082
:105DF000B3FF0298BA0008302018002122F0C8FF33
:105E0000029A039B94466344F7191E00019BBB4210
:105E100002D3200005B0F0BD3068FBF7BBF80021CD
:105E20000200EB6B0293029B994204D10E490D488C
:105E300002F038FBCDE78B00E818006C824201D0FD
:105E40000131F0E7E3189968002901D00749EEE72E
:105E5000726808369A60019B02330193D6E7C04608
:105E60007407030050AC0200DC070300AD07030019
:105E7000014B58687047C0467C2E0020014B1868C3
:105E80007047C0467C2E0020F0B5194E87B03368AD
:105E9000050000200C0001931FF099FC3060009079
:105EA00020681EF060FD019B07003360114E022D3B
:105EB00003D0A068FCF7FAFC0600210063680831F3
:105EC000A81E039300F0D6FB009B049005930022CC
:105ED00003AB0321300006F053FD074B04009F4243
:105EE00003D0010038001FF061FB200007B0F0BDB7
:105EF0007C2E002018B80200A4B302001FB569462A
:105F000006F034FE0400200006F092FE002802D1C4
:105F1000044804B010BDFCF7EFFE0028F3D102489E
:105F2000F7E7C0468CE7020084E702001FB5694628
:105F300006F01CFE0400200006F07AFE002802D1C4
:105F4000044804B010BDFCF7D7FE0028F3D0024887
:105F5000F7E7C04684E702008CE7020010B5FCF7C3
:105F600029FD034B002800D1024B180010BDC0468C
:105F70008CE7020084E7020037B5FCF77FFD01AB38
:105F80007F2806D80121187001221800FAF7E0FFD7
:105F90003EBD1E49820988420BD8402149420A432E
:105FA0001A703F2202408020404210435870423114
:105FB000EAE7174C010BA0420ED82024644221438B
:105FC000197080215F344942224020400A43014336
:105FD00099705A700321D7E70E4CA04212D81024B2
:105FE000850C64422C431C703F2580242940644268
:105FF0002A40284021432243204359709A70D87088
:106000000421C1E7044807F0E1F9C046FF0700009A
:10601000FFFF0000FFFF100077090300F0B589B013
:10602000019204000D0000222F490198029302F012
:10603000A3FD0090002801D043680093012C16D0E6
:10604000A4002B19002427000193019B9D4224D01A
:10605000009B2E68002B04D0310018001EF08AFC33
:106060000600002C37D137002C680435EDE70024FA
:1060700004A9286806F07AFD27000390039806F02B
:10608000D7FD051E0CD1002C07D12200174901981D
:1060900002F072FD00281BD04468200009B0F0BD5A
:1060A000009B2E00002B04D0290018001EF062FC7B
:1060B0000600002C09D03A003100029807F08EF952
:1060C0000B4B984201D025003E002C003700D5E74D
:1060D000084807F07BF93A003100029807F07EF992
:1060E000034B9842C1D1BEE7561300002E110000A9
:1060F0008CE702009809030037B501A90500FBF7FA
:106100007FFB1E4B04002B40062B05D0AB072AD18A
:106110001B4B2A689A4226D1019920001DF0CAF82B
:106120000190012822D1207843B2002B04DB01200A
:1061300023785B0018433EBD7F23013418403F3B6A
:10614000034208D13F22237819009143802905D0CA
:106150001FF09AFAEFE798435B10F1E780011340D4
:1061600001341843EFE7019B012BE0D0019A054968
:10617000054802F097F906F0B1FAC046070080FF23
:10618000CC990200B109030050AC0200F0B5140034
:1061900087B00290039100222349200002F0ECFC1A
:1061A000002205002149200002F0E6FC0123040042
:1061B000049305931E4F002D07D068681D4B98422D
:1061C00003D004A9FBF71CFB07001B4E002C07D0D3
:1061D0006068184B984203D005A9FBF711FB060035
:1061E0000024029B154D9C420AD10023059A01937D
:1061F0000093310028000EF0BBFD0E4807B0F0BD43
:10620000002C07D00023049A019300933900280042
:106210000EF0AEFD0399A3000022C9582800FCF738
:106220005DFB0134DDE7C0468E15000096110000CD
:106230009E6F0300A4B30200254F030044E8020050
:1062400010B5040086B06A4602A810210FF0D8FDF0
:10625000012221006846FCF741FB02A90248FAF737
:1062600041FE06B010BDC046CC99020070B50C6866
:10627000E30726D4A30703D1174B22689A4220D004
:10628000012820D94868FCF7F9FB06002000FCF73C
:1062900059FC051C300014F0B5FE011C0F4817F026
:1062A00071FB011C041C281C14F080FB16F0DAFFA3
:1062B000211C14F0A3F9032302249843084B044340
:1062C000E418200070BD2000FCF73CFC16F0CAFF6B
:1062D00006F056F80400F4E7ECB802000000204194
:1062E0000000808030B50B0085B01400012802D971
:1062F000094807F02FFA09480121C2680192019D5F
:106300000022A8472200039003A901200DF0C4FF3A
:10631000039805B030BDC046050A030048E70200F7
:1063200013B504000800FAF735FE6A4601002000A4
:1063300006F09EFB009B0248002B00D1014816BDD1
:106340008CE7020084E7020037B50024022800D958
:106350008C6848680D68FAF71DFE0A4B0100002C96
:1063600000D0094B6A4628009847009B002B07D0B5
:1063700001991C00002903D01800FCF703FF04005A
:1063800020003EBDD5CA000071CA000070B50400EF
:1063900008001500FAF7FEFD2A000100200006F0B3
:1063A000C1FB014870BDC046A4B30200F8B5032686
:1063B000050007003540022D16D10E4B0340062B79
:1063C00012D0FF23DB05C418B443201C002113F0B6
:1063D00059FE002806D080231B06E418B443064B60
:1063E0002C43E7183800F8BD380009F069FA0700B7
:1063F000F8E7C046070080FF000080807FB50B00F3
:10640000012803D100211868FCF782FA102102A8A4
:1064100020F05DFE0C4902A81CF0E6FB032804D125
:106420000A481CF0D6FE06F059F9039B0193002B95
:1064300003D1042801D10648F3E702A90548FAF779
:1064400051FD07B000BDC046FB820300BCA902009D
:1064500018A80200CC99020010B506F0C1FB002874
:1064600004D103481CF0B5FE06F038F910BDC04653
:106470009CAB020010B5022803D0054905481EF068
:10648000BDFA4A680B20096806F0A8FF10BDC04697
:10649000EB090300ACAA02007FB50D4D0400A84231
:1064A00013D00C4E012201003000FCF717FA0A4904
:1064B000300020F0D2FB04230293084B0394DB69E5
:1064C00002AA0321064801939847280004B070BD32
:1064D000A4B3020044E80200254F030058B10200B3
:1064E0001C9D0200F8B50E0000280FD10400284BB7
:1064F0001D680021080020F097FA00270600BD4221
:1065000032D10025AC423ED13000F8BD0868830787
:1065100014D103681F4A93420DD11CF06BFF050094
:106520003068FCF7C3F91C4BC26800249A42E0D1E2
:1065300034680434DDE7194A934201D0FCF7B6F918
:10654000856B002DECD0164B2A689A42E8D00025C6
:10655000E6E7EA68FB009958002904D0042902D034
:1065600030000DF039FE0137AB68BB42F1D8C8E707
:10657000A268EB009958002904D0042902D0300009
:106580000DF02AFE01356368AB42F1D8BCE7C04686
:106590007C2E002058B102007DB6000018B8020021
:1065A00034C20200044B88600B60044B08004B604F
:1065B0000023CB607047C0462C980200AF2D02002C
:1065C00070B50E0010490400002520F046FB7368EA
:1065D000AB420AD8012B03D10C49200020F03DFB2F
:1065E0000B49200020F039FB70BD002D03D0094974
:1065F000200020F032FBAB00F31801229968200044
:10660000FCF76CF90135E2E7A20D0300300A030044
:106610006002030005FC020070B50D0001281ED0C9
:10662000002803D0022807D0002004E04B680E4861
:10663000002B00D10D4870BD00260D4C6B689E42AA
:1066400003D3012064002043F5E7B300EB189968F9
:10665000022006F023F9401024180136EEE74B68BB
:106660005B001843E7E7C0468CE7020084E70200BE
:1066700004A0020070B506000D000B48002E0DD0DE
:10668000B41CA40020001FF0F8FD084B4660036016
:10669000002D03D00023083CA34200D170BDE9586F
:1066A000C21891600433F7E704A002000CA00200B6
:1066B000F0B5070085B00E0014001D2803D9002591
:1066C000280005B0F0BD01238340324D1D4044D168
:1066D000314A13421FD1F82292051342EFD0200015
:1066E000FCF7E4F82D4B426A9A4205D020002C4971
:1066F0001EF0DCF8041E0CD0230031006268083361
:1067000000920831726838000BF02AF9254D0028F4
:10671000D6D1254DD4E72000FCF7C8F8204905F074
:10672000DBFA0028CBD07368626829009818FFF75D
:10673000A1FF07003100736808379A00050008318F
:10674000380022F009FB2100706863688000381867
:106750009A00083122F000FBB2E703A91000FCF711
:10676000CBF90025A842ABD00398104D0028A7DD37
:10677000736800215843FFF77DFF05002B003000B0
:10678000083300930830039B726804211FF015FA48
:1067900096E7C0468000100020000400A5650000B8
:1067A0000CA002008CE7020084E7020004A00200B3
:1067B00030B5040085B0042A2DD1032540680D4072
:1067C0001FD1164B0A689A421BD101AA0BF04CF854
:1067D000002802D1124806F0EBFF019B0298290025
:1067E000C01AFFF747FF050021006B6808319A00C7
:1067F000019B08309C00091922F0AEFA280005B070
:1068000030BD0A00002301002068FCF70FFA0230B7
:1068100080000559F2E70025F0E7C046A8A4020071
:1068200066FC0200F0B50C001100002285B01E00CD
:106830000092012320000BF03FFD184D002C1ED0CC
:106840003568AB0703D1164B2A689A4217D010203F
:106850001FF013FD00210400306806F087F90025C1
:1068600004260390039806F0E3F9071E0AD12800D6
:106870002100FFF7FFFE050020001FF02DFD28007E
:1068800005B0F0BDAE4205D8F10020001FF013FDA9
:1068900004007600AB001F510135E3E704A00200BD
:1068A0000CA002000022104B10491A6003001233A2
:1068B000FF3341185A701A7004338B42FAD1010029
:1068C0000300002209310833FF311A709A705A70A0
:1068D000DA7004338B42F8D1C3237F229B00C25469
:1068E000034B044A1A607047442A00201103000039
:1068F00004000020320A0300F0B500267E24320096
:1069000031009300C318FF335F7C7F2F4CD09B7CFA
:10691000F618F6B2531CDBB2EF2E2AD9C1267D251C
:10692000B60086193700AC469C4516DA9B00C318A2
:10693000FF3359749974D97419757D230232D2B218
:10694000934211DA9300C318FF335C749974D974BD
:10695000197500260132D2B2D3E73D68043FBD600D
:1069600001256D42AC44DFE73568013B7560043EAC
:10697000E6E77D2FEED80D4DEF5D01252F42E9D0E2
:10698000C1227D26920082189E4208DA9A0082185F
:10699000FF3254749174D17411751A00D9E71568D7
:1069A000013E5560043AEFE7F0BDC046150B030009
:1069B00070B5002140250D4C8B00C318FF335A7C65
:1069C0007F2A11D0A25C0131C9B22A42F4D05A7D8B
:1069D0007F2AF1D0A25C7F2AEED9DA7D56B2002E52
:1069E000EADD0132DA74E7E770BDC046C40A03008D
:1069F0000300F7B500214B4A1333FF338218197097
:106A000004339A42FBD1FC2300249C462200844498
:106A100053B2002B04DA444B444A1A60002008E0C9
:106A200063461F69BC4205D37F234432920013544E
:106A30000120FEBDDE68355D602D01D9203DEDB23F
:106A4000611CC9B28F4251D0735C602B01D9203BCD
:106A5000DBB2232D4DD1303B092B02D9324B344AC6
:106A6000DBE70234E1B28F4204D8FF2BF6D8437043
:106A70000C00CDE7745C2500303D092DF5D80A25C2
:106A80006B430131303BE318C9B2ECE70136512EBC
:106A900030D10023274C1F5DDEB22A2F0CD1264FA8
:106AA000FF5CAF4208D19300C318FF335E74447893
:106AB00001321C75D2B2DBE70133512BEBD11F4CF5
:106AC000493B08342678AE4208D0013C002B02D165
:106AD000154B1B4AA1E7013BDBB2F3E7002BF7D0D4
:106AE00014004334A4000419A370C1E7232DB5D0CA
:106AF00000230026F7B201970F4FF75DAF42C5D1D3
:106B00000C4FF75D2A2FC1D09F42BFD1930001994E
:106B1000C318FF3359744178013202341975D2B267
:106B2000E1B2A5E71203000004000020350A0300CB
:106B3000470A0300540C0300030C0300A50C0300D8
:106B4000550A030010B51130084A0949FF3003788F
:106B50007F2B00D110BD02240457002C03DCCB5C3A
:106B600043700430F3E7D35CFAE7C046B30B03008D
:106B7000630B0300F0B50023070085B09E00BE192B
:106B80003100FF314A7C9C467F2A01D105B0F0BD1F
:106B90004F4B02209C5C63460133DBB20442EDD0D4
:106BA000012560462C4242D15419E0B20090494878
:106BB0007C35801840780190C87C097D0290039153
:106BC000C1218900791808009D4226DA9B000098AF
:106BD000FB18FF3358740198941C98740298E4B21F
:106BE000D874039818753B48634682183000FF300C
:106BF0009578027D023300927D22C67CDBB29A42F8
:106C000010DA9B00FB18FF335C749D74DE74009AED
:106C10001A7563460333DBB2B0E70468013D446094
:106C20000438D1E70868013A48600439E7E70130E1
:106C3000C0B2010044318900C95D0029F7D07F2925
:106C400008D008242248405C204297D124390129E9
:106C500000D893E73000511CC9B200911D49FF30A4
:106C6000891849787D250191C17C0291017D0391AC
:106C7000C121890079180C009D421FDA9B00009CFD
:106C8000FB18FF335C74019C124D9C74029CDC74F5
:106C9000039C1C75941CAA1863469678027D0233E7
:106CA00000927D22C57CDBB2E4B29A420BDA9B00F3
:106CB000FB18FF335C749E74DD74A8E72668013D01
:106CC0006660043CD8E70868013A48600439ECE79C
:106CD000C40A0300630B0300F7B500229300C31836
:106CE000FF335C7C002C03D10132D1B20A00F5E7FE
:106CF0007F2C00D126E1102693490D5D511CC9B2AD
:106D0000354227D0DC7CAD06ED0FA4462C00C12512
:106D10001434AD001F7D019445196D368E4214DA8E
:106D20008D00019C4519FF356C740024AC746446D9
:106D30002F75EC745C7C352C00D0C5E05A7B834CFD
:106D4000A25C5207D2D5102285E02C68013E6C600F
:106D5000043DE3E74E2C1CD118220D24DD7C5C742D
:106D60001E7DC1239B00C31870348C420CDA8B004B
:106D7000C318FF335A740022DD749A741E75B5E788
:106D80001B22EAE71C22E8E71F68013C5F60043B26
:106D9000EBE74F2CF4D0502CF4D06DB2002D2BDA51
:106DA000DD7C002D28D00D004435AD002D5C002D7C
:106DB00022D1961CF5B20195AD004519FF356F7CC7
:106DC0007F2F19D0604EF75D7F2F15D9EF7C002FF4
:106DD00012D0C1237D229B00C318019C944206DD82
:106DE0001F236B740023AB74EB742B757EE71C6858
:106DF000013A5C60043BF0E7172C2ED15C7B013A32
:106E0000D2B2452C1DD11B3C5C7315004335AD003F
:106E10004D4C2D5C655D7F2D00D867E70132D2B205
:106E200092008218FF32557C002D00D180E0645D15
:106E30007F2C00D85AE7D27C002A00D056E71E32B9
:106E400009E0392C01D10D3CDEE73F4A125D7F2A73
:106E500000D84BE712225A7448E7182C07D15A7B06
:106E6000394CA25C7F2A00D840E71322F3E7202C9C
:106E700005D15A7B3C2A00D038E7163AEBE7482C7C
:106E800015D15C7D7F2C02D14B245C7403E02E4D28
:106E90002C5DA406F8D55C7C2B4D2D5DED0700D450
:106EA00048E75D7B202D3CD10C3C5C741EE73C2CFC
:106EB000F1D15A7D7F2A00D118E7234CA25C9206BB
:106EC00000D513E73F22C6E72A2C16D1DA7C1C7DB9
:106ED000C1237D259B00C3188D4209DA2B258B0029
:106EE000C318FF335D740025DA749D741C75FDE6CC
:106EF0001E68013D5E60043BEEE72C2C11D1DA7C6C
:106F00001C7DC1237D259B00C3188D4204DA8B00B4
:106F1000C318FF332D25E5E71E68013D5E60043B85
:106F2000F3E7452C00D170E7392C00D0DEE66CE7A2
:106F3000527D7F2A00D1D9E6A25C7F2A00D8D5E60F
:106F40001E2288E7F7BDC046C40A0300150B0300E4
:106F5000F0B50022060085B0130044339B009B5D12
:106F60007F2B31D05B4CE35CDB072AD51300511E2D
:106F7000C9B244318900584F7118013BDBB2002B74
:106F800023D008787F2803D0385C04397F28F4D9CF
:106F900099007118FF31487C7F280ED02027255C8E
:106FA0003D4204D04C4D285C0425284205D0887C05
:106FB0004508AC460130604488740133DBB293422B
:106FC000E6D10132D2B2C7E70023022712E06B07F5
:106FD00008D4EB070DD56246FF32937CD9085B1AC3
:106FE000937406E0039B039A9B7B99080133CB18AB
:106FF0009373029B9A00B2181100FF3194464A7CA9
:107000007F2A64D034485D1C845CEDB2029565B281
:10701000002D21DA029A9200B218FF320392527CBC
:107020000192855C019C2A0041257F2C00D015002F
:1070300040242242CBD1019C123C012CD9D84022C1
:107040000233DBB244339B009B5DC35C1342D0D060
:107050008B7C013B8B74CCE71E4DAA5C08252A4231
:107060000ED0029B9B00F318FF335A7C7F2AC0D0BE
:10707000825C3A42BDD006229A7405229A73B8E720
:107080003C421AD00133DBB21A0044329200925DC6
:10709000002AF7D07F2AACD00F498A5C3A42A8D0A8
:1070A0009B00F318FF339A7C520801329A746246AF
:1070B000FF32937C5B08013392E710231A4298D089
:1070C0004B7BC35C3B4294D08B7C023BC2E705B058
:1070D000F0BDC046150B0300C40A030070B50400E0
:1070E000FFF7E0FB2000FFF783FC23000022FC33C6
:1070F000DA601A61904226D02500224E113533689D
:10710000FF35934203D029001F4806F079FB200089
:10711000FFF7E2FD2000FFF74BFC2000FFF712FD18
:107120002000FFF715FF2000FFF724FDC4222B00ED
:107130009200A1181A78502A06D97F2A07D0002079
:10714000124B134A1A6070BD04338B42F2D133687C
:10715000002B02D00F4819F061FC2000FFF7CCFB98
:107160003368002B03D029000B4806F049FB2000B0
:107170001BF04AFE054B0949186821F053FE4342B3
:107180005841E0E7582A00206C0A03000400002060
:107190007B0A0300A10A0300B10A0300320A0300BC
:1071A00070B504000800FBF769FC0500431002D02D
:1071B0000F4806F00BF90F49200001F081FE00286E
:1071C00007D0A02203216379D205C133FF339B008E
:1071D0009950012362799340A022D205002D04D05A
:1071E000A121C9000448535070BD0449FAE7C046C4
:1071F000FB0C0300B8B10200A4B302000C050000B0
:1072000070B505000800FBF739FC0B2303410400AF
:10721000DB0702D4094806F0D9F82800084901F034
:107220004FFEFF22A40092001440A0226B79D205E9
:10723000C133FF339B0003489C5070BDCD0C03004D
:10724000B0B10200A4B3020010B50C49040001F073
:1072500037FEA022D205002805D004216379C1336E
:10726000FF339B00D150A223DB00D0586379D84074
:10727000012318401EF008FA10BDC046B0B102004C
:1072800010B5040001F0E8FD0A4B984205D00A4B06
:10729000984202D0200001F0EDFDA0226379D205D2
:1072A000C133FF339B0098580007800F1EF0ECF9A4
:1072B00010BDC046B0B10200C8B10200032370B5D2
:1072C0000B4004000800022B14D1194B0B40062B75
:1072D00010D0FBF737FC15F06FFC0022154B13F0B4
:1072E0001BFF15F0F9FB144B0500984205D9134814
:1072F00006F06CF8FBF7C2FBF5E71149200001F03E
:10730000DFFD002807D0A02203216379D205C13315
:10731000FF339B0099506079290006F0B5FB002DE2
:1073200003D10849200001F0CBFD074870BDC046DD
:10733000070080FF0000E03FFF030000DA0C0300BD
:10734000F8B10200A8B10200A4B3020013B50A49C3
:10735000040001F0B5FD05216846615611F068FD95
:10736000684611F08BFDA0230021044ADB00D150B8
:107370001EF08AF916BDC046A8B102000070004098
:1073800010B50800FBF77AFBFA239B00584306F080
:1073900057FB002802D0024806F018F8014810BD3B
:1073A000BE0C0300A4B3020010B50800FBF766FB97
:1073B00006F046FB002802D0024806F007F8024813
:1073C00010BDC046BE0C0300A4B3020010B50400FB
:1073D00001F042FD0C4988420DD00C4B98420AD076
:1073E000200001F06DFDA02200216379D205C13398
:1073F000FF339B009950200007F0BCF9044B002894
:1074000000D0044B180010BDE0B10200C8B102006A
:107410008CE7020084E70200A0230C220249DB056E
:107420005A5024315A5070474407000010B50400E8
:10743000FBF73CFA064B984208D0064B984205D021
:10744000054B984202D0054806F084F9200010BD93
:107450003CA30200F4A1020030A20200AE0C030023
:10746000F0B50D00002785B0110003901E00280024
:10747000104B022200970AF01FFFAB1C9B00180064
:1074800002931EF0FAFE0400039B013D0360456079
:107490003368029D8360083D0437BD4202D120005D
:1074A00005B0F0BD0021F05905F060FBE3199860CC
:1074B000F2E7C046FFFF0000F7B503780400002B99
:1074C0001FD0402B20D101230193002304221E0052
:1074D0001D00190094462278002A3ED1013200296D
:1074E00010DC002D0EDC002E0CDC033B934209D98E
:1074F000013C23785C2B05D00199002901D00A2B8F
:1075000000D100221000FEBD3F491BF0DEFC002828
:10751000D9D13E4920001BF0D8FC0028D3D13C49EA
:1075200020001BF0D2FC0028CDD13A4920001BF0EE
:10753000CCFC0028C7D1384920001BF0C6FC00282D
:10754000C1D1364920001BF0C0FC0028BBD1344912
:1075500020001BF0BAFC0190B7E76778272A11D109
:10756000002B4DD0032B09D1272F05D1A278272A34
:1075700004D10234243AD31A0134ACE7012BFBD8EE
:107580000122F8E7222A11D11A006046824309D16C
:10759000222F05D1A278222A02D102346246EAE7DC
:1075A000002B01D0022BE7D10222E4E75C2A0AD1AA
:1075B000272F03D0222F01D05C2F04D11A00571E91
:1075C000BA41A418D8E7002BD6D15B2A12D006D82E
:1075D000282A0DD0293A57425741C91BCCE77B2AAC
:1075E0000AD07D2A0AD05D3A57425741ED1BC3E7C6
:1075F0000131C1E70135BFE70136BDE7013EBBE719
:10760000272FBDD1B2E7C046476B03001C0D030016
:10761000220D0300260D030032640300548703008B
:1076200041390300F0B58BB00793431803900492DF
:1076300001930093009B5C1E039BA34201D900931E
:1076400010E0207801F008F8002801D00094F1E75C
:10765000207801F00DF80028F8D123785F2BF5D0C1
:107660002E2BF3D07D4B1D68009C019B9C4202D2C7
:1076700023782E2B21D1009BE71A019B9C4241D3FA
:107680000024260002940194AB68A34256D8019BC3
:10769000002B00D084E0009B039A93422FD1704CC2
:1076A0003A002100180021F048FB002827D1079B51
:1076B000E41907301C60C01B22E00134D5E7013615
:1076C000AB68B3421BD9F3000293EB68F200985801
:1076D0000028F4D00428F2D009A9FAF791F8099B00
:1076E0000100BB42EBD13A00009821F0ACFB00282E
:1076F000E5D1EB68029A9B185868002804D1002055
:107700000BB0F0BD0026DBE7032318420CD1036861
:10771000544A934205D11BF06DFE0500631C009393
:10772000A2E7514A934201D0FBF7C0F8856B002DC8
:10773000E5D04E4B2A689A42F0D0E0E7EA68E300D1
:10774000985800281CD004281AD009A9FAF758F82C
:10775000099B06900593BB4212D301003A000098A2
:1077600021F071FB00280BD1029B002B12D03B00B3
:107770009E4202D3059A9A4204D2019B013301939F
:10778000013481E7029AD15C069AD25C914205D11C
:107790000133EDE7069B059E0293EEE71E00ECE742
:1077A000019B012B01D0BE4254D9029B079ADB19E1
:1077B0001360F01BA4E7029BEA68DB0098580028DE
:1077C0003AD0042838D009A9FAF71AF8099B03908F
:1077D0000593BB4230D301003A00009821F033FBFF
:1077E0000190002828D133000F220F33DC171440FA
:1077F000E41824112401A41B012C00DC1034059A88
:1078000033199B18402B0DD9039A194904981FF07E
:10781000E5FA099E10E0174904981FF01EFA019B33
:1078200001330193019B9C42F5DC039904981FF0FE
:1078300014FA099BF6183619029B01330293AB68C0
:10784000029A9342B7D80C4904981FF006FA012017
:10785000404255E7002340260293F0E77C2E0020AB
:10786000100D030058B1020018B8020034C2020023
:10787000180D03009E6F0300254F030010B5040090
:107880001FF073FC1AF0B1FF01280BD0064920004D
:107890001FF086FC20001FF068FC1AF0A6FF0228EB
:1078A00000D0002010BDC046660D0300F0B59DB0AD
:1078B00000AF0C68032835D9CB68FB60042835D0AD
:1078C0000D6900206D102BD41C232000F918F9F746
:1078D00097FF7861002D5AD0954C9649606808F062
:1078E0005DFB0600606800229349043001F044F912
:1078F0001823FA18D11804003000F9F781FF3B6B08
:10790000013D0100C318002C05D1994203D2013B6F
:107910001A782E2AF9D1013D0ED299420FD187480B
:1079200005F054FD864B0025FB60CDE70025CBE735
:10793000013B1A782E2AEED09942F9D3EBE7FE6983
:107940005C1A2500002E01D0751C2D192B006A46EB
:107950000E33DB08DB00D31A9D46220018003B6182
:1079600021F0FAF9002E08D02E233A69601C135535
:1079700010187969320021F0EFF92900386909F00F
:107980009BF806243B69C0000443FD617B61200035
:10799000F9F700FB01F0C4F8061E15D02E21786916
:1079A00021F032FA00280BD0654BFA689A4207D1D1
:1079B0007B69C11A180009F07FF801F0B1F80600E0
:1079C0003000BD461DB0F0BD182318000125FA187F
:1079D000D2183818103B4021C0181FF091FBBE6030
:1079E0003E61FB69AB4205D2554BFA689A42E7D03B
:1079F000BE68E5E7AB4204D07B695B5D2E2B00D00F
:107A000094E02900786909F057F87B6A3860002B08
:107A100017D12A00082479691833F81800191FF0C3
:107A20003AFB1823FB181819FFF728FF78607B68CA
:107A3000002B14D13A684349434800F033FD04F069
:107A40004DFE18230824FA182F2110190EF0E4F91E
:107A50003B693969EA1A7B6959181823DDE73868E8
:107A600001F05EF8041E4BD1386801F027F8FB697D
:107A70000400AB4213D1354BFA689A420FD17B68B0
:107A8000012B0FD0324A2B4940681DF0D9FE182235
:107A90000823BA18D11820001BF032FA30E07B68B6
:107AA000012BF4D10022796AB86AF9F751FAF4216E
:107AB0000200FF31200005F035F87B6A18227B6058
:107AC0000823B818C0182F210EF0A6F91822082391
:107AD000B818C0181F491FF063FB18220823BA18F2
:107AE000D0181FF042FB1AF080FE022806D118229F
:107AF0000823BA18D11820001BF002FA7B687B62B9
:107B0000BB68002B0CD07A693B699446E91A634440
:107B1000180008F0D1FF22000100B86805F002F853
:107B2000002E00D126006B1C3B61BC60013558E77C
:107B30007C2E0020860F00009E0F00002A0D0300FF
:107B4000A4B30200490D0300CCA8020084E70200A0
:107B5000760F00005E0D0300184BF7B530CB0F0019
:107B6000160001281AD94B68154A934207D0990785
:107B700011D114491C688C420DD11C001D00022833
:107B80000CD0BB68934209D09A0704D10D4A1968FA
:107B90001C00914202D0002005F0DCFD01A93868EC
:107BA000F9F72EFE019A0100002310201DF0DEFFE0
:107BB0002A003100230005F0C1FBFEBD7C2E002011
:107BC000A4B3020034C20200F0B58BB00600080076
:107BD00011001A0010AB1F78314B05AD01950093D1
:107BE00005230AF099FB912000011EF046FB2D4B66
:107BF00004A91860059B476043706B682A4F0370A7
:107C0000AB6804008370EB68C3702B7C30003B6072
:107C1000F9F7F6FD0025254B03900C201D601EF0A2
:107C20002CFB234B06000360FDF7CAFFB060FDF795
:107C3000C7FF204B204A1860204B11001D70204BBD
:107C400070601D701F4B30001D602B00FDF78CFE17
:107C50002000049A03991BF0D3F82000FFF73EFAA6
:107C60000400A84207D1FDF785FD0E4B1C60164BA2
:107C7000186805F0ABFB0122144B1A70FDF79AFF50
:107C80000028FBD1124B943318603B68002B04D0C2
:107C90000C4B1048196818F047FE07480BB0F0BDB0
:107CA00010A40200102F0020582A00204C2A002087
:107CB0005CA40200482A0020A4B30200D02D0020BA
:107CC000CE2D0020502A002004000020CF2D0020BF
:107CD0007C2E00206A0D030000220D4910B50B78A0
:107CE000DBB2934210D10B4A1478002C02D001244D
:107CF0000C701370084B1B78002B07D0074A1368D1
:107D000020331360064B1A68100010BD8268FBE731
:107D1000CE2D0020CF2D0020D02D00204C2A002079
:107D2000482A002073B501A9F9F76AFD019B0600F6
:107D30001748502B17D8802040001EF09EFA154C93
:107D400005002300943318600023019A9A420CD155
:107D50005B232800AB540AF0C5FF2B00002808D194
:107D6000943420600C4805F031FBF15CE954013398
:107D7000ECE75A1B0133591E09789B29F9D12900D8
:107D800006481AF0F1FA00239434236076BDC04609
:107D9000790D03007C2E0020870D0300CC99020092
:107DA000D2235B005843134AF0B51368000C83429A
:107DB00006D9114C2368013323601368203B1360FC
:107DC0001F23050001270D4E9D431468A5420BD8C3
:107DD00003401A1D202A00D92022094C246893420E
:107DE00004D3084B1860F0BD3770EEE7E518297131
:107DF0000133F4E74C2A0020502A0020D02D002027
:107E0000482A0020542A002070B506000D000028E2
:107E100014DD002907DD154811F0F8FF0124B042F8
:107E200009DB002407E00100C020000611F0EEFF8E
:107E30000124A842F5DDE4B2200070BD002907DD71
:107E4000C020000611F0E2FF0124B042F3DCE8E7B5
:107E50000024A042F0D00100044811F0D7FF012314
:107E6000A84200DC231CDCB2E6E7C046FFFFFF3F70
:107E700070B504000D0010491EF0EFFE6968012284
:107E80002000FAF72BFD0D4E200031001EF0E5FE1C
:107E9000A96801222000FAF721FD310020001EF020
:107EA000DCFEE96801222000FAF718FD04492000F1
:107EB0001EF0D3FE70BDC0469D0D030005FC020000
:107EC0006002030070B5060010200D0014001EF0C3
:107ED000D4F9034B466085600360C46070BDC04642
:107EE000A8A4020010B5FAF72DFE054912F05EFDB8
:107EF0000323020002209A43024B1043C01810BD16
:107F0000E02E65420000808010B5FAF71BFE05499F
:107F100012F04CFD0323020002209A43024B10434F
:107F2000C01810BD35FA8E3C0000808010B5FAF7FD
:107F300009FE011C13F030F8024B002800D1024B5F
:107F4000180010BD8CE7020084E7020010B5FAF7B4
:107F5000F9FD440064080849201C13F01DF80028AE
:107F600005D10549201C12F0A1F8002801D00348D2
:107F700010BD0348FCE7C046FFFF7F7F84E7020097
:107F80008CE7020010B5FAF7DDFD034B0340022039
:107F90001843024BC01810BDFCFFFF7F000080801B
:107FA00010B5FAF7CFFD440064080849201C12F010
:107FB000F3FF002807D10549201C12F06DF80028B6
:107FC00001D1034810BD0348FCE7C046FFFF7F7F97
:107FD0008CE7020084E702001FB500230193FAF743
:107FE000B1FD01A915F020F90322030002209343FB
:107FF000064903435B180293019B934303435B18B9
:1080000002A90393FEF736FB05B000BD0000808097
:1080100070B50D00FAF796FD041C2800FAF792FDE2
:1080200012F0D0FF0100201C15F0DAF80323020043
:1080300002209A43014B1043C01870BD000080809D
:108040001FB500230193FAF77DFD01A915F09EF8F5
:10805000032302249843074B2043C0180290019841
:108060001DF012FB02A903902000FEF703FB04B0F1
:1080700010BDC0460000808070B50D00FAF762FDAB
:10808000041C2800FAF75EFD011C201C15F096FB6D
:108090000323020002209A43014B1043C01870BD15
:1080A0000000808070B50D00FAF74CFD041C28001C
:1080B000FAF748FDC00FC3076000400818430323C8
:1080C00002249843014B2043C01870BD00008080FB
:1080D00070B50D00FAF736FD041C2800FAF732FDE2
:1080E000011C201C15F0F2FA0323020002209A431F
:1080F000014B1043C01870BD0000808010B5FAF726
:1081000021FD14F059FE0323020002209A43024B82
:108110001043C01810BDC0460000808010B5FAF7AB
:1081200011FD15F081FA0323020002209A43024B4D
:108130001043C01810BDC0460000808010B5FAF78B
:1081400001FD15F01FFA0323020002209A43024B9F
:108150001043C01810BDC0460000808010B5FAF76B
:10816000F1FC15F075F90323020002209A43024B3B
:108170001043C01810BDC0460000808010B5FAF74B
:10818000E1FC15F027F90323020002209A43024B79
:108190001043C01810BDC0460000808010B5FAF72B
:1081A000D1FC14F067FF0323020002209A43024B24
:1081B0001043C01810BDC0460000808010B5FAF70B
:1081C000C1FC15F087FA0323020002209A43024BF8
:1081D0001043C01810BDC0460000808070B50D006F
:1081E000FAF7B0FC041C2800FAF7ACFC011C201CB8
:1081F00015F0C8FB0323020002209A43014B1043F1
:10820000C01870BD0000808010B5FAF79BFC0021FB
:10821000041C11F037FF002802D0074805F0D6F8FB
:10822000201C15F06FFD0323020002209A43034B2C
:108230001043C01810BDC046B50D0300000080807B
:1082400070B5060008680D00FAF77CFC0021041CDC
:1082500011F022FF002802D0184805F0B7F8201CC2
:1082600015F014FB041C012E06D1032302209C43AD
:108270002043134BC01870BD6868FAF763FC0021F7
:10828000051C11F009FF0028E6D1FE21281C8905F4
:1082900011F0F2FE002803D00A490B481CF0AEFB97
:1082A000281C15F0F3FA011C201C12F0A7F9032377
:1082B000020002209A431043DBE7C046B50D0300DD
:1082C00000008080A40D030004AD0200F0B50E0094
:1082D0001100002285B0B71C03901C0030000D4B2C
:1082E0000092BF0009F0E8FF38001DF0C6FF4660AD
:1082F00006000500039B083F03600836E719BC42EF
:1083000002D1280005B0F0BD002101CC04F02EFC04
:1083100001C6F4E7FFFF0000F7B505002C200E00B2
:10832000170001931DF0BBFF040005708660878174
:10833000072D01D0012D0FD1337872780A3B1B0233
:108340001343E381019B20206375042363841DF0A4
:1083500094FFA0622000FEBD014B5B5DF1E7C046CB
:10836000C70D0300F7B50D001100002206000092B2
:1083700028001F000B4B09F09FFF10201DF08AFF03
:10838000041E08D1084B094A094C5A620023266092
:108390002000A360FEBD39002800FEF76BF9E06005
:1083A000F4E7C046FFFF00007C2E002004A002007E
:1083B000942E002010B5013810C9FEF75BF9E0607B
:1083C000004810BDA4B30200F8B57F2553B20400E5
:1083D0000E0017001540002B0ADB6B1E012B07D87F
:1083E0000B6858681DF0AAFA010020001EF035FC49
:1083F000022D16D10F4920001EF02FFCF368002B30
:1084000002D05A68002A04D10B4920001EF025FC36
:10841000F8BD012A07D1002299682000FAF75EFA18
:10842000F6E7002DEAD03A00F1682000FEF7C8F820
:10843000EEE7C046213A0300FB820300C36803480D
:108440005A68002A00D098687047C046A4B302005A
:10845000136810B51400002B0BD0FC23FF33994296
:1084600006D10C4B52689A4202D10023C38023608C
:1084700010BD094B994201D1C368F8E7074B026868
:108480009A42F5D1064B9942F2D1FFF7D7FF20600F
:10849000EEE7C046A4B30200030200009CAB02005A
:1084A000E30200000EB470B5050087B010201DF087
:1084B000F1FE041E0BD11A4B1A4A1B4C9D61186227
:1084C0005A62200007B070BC08BC03B018470021F6
:1084D000056081600120FEF7CDF82521E0600500F0
:1084E0000B9820F091FC061E09D10B9820F0A4FCFB
:1084F000320001000B98F8F72BFDA860E1E702A815
:1085000010211EF0E4FD0CAA0B9902A801920DF0B7
:10851000D7FC02A90548E568F8F7E4FCEDE7C0469A
:108520007C2E002004A00200942E0020CC99020092
:1085300010B50300820708D1064A0168914204D1B0
:10854000054AD9680120914203D00449180003F07C
:10855000C3FB10BD18B8020065830000DCA7020051
:1085600010B50400FAF7A2F9034BC2689A4200D092
:1085700024690023A36010BD65830000F8B51600D0
:108580001D0004000F00FAF791F9154BC2689A42DA
:1085900000D02469A068002811D10C301DF07AFEAB
:1085A000A06000280AD003236360E288A1689300DA
:1085B000CB180332E2801F605E609D60F8BDE388E7
:1085C000A18802338B42F0DB0331890001221DF0C8
:1085D0007FFE0028F2D0A388A0600333A380E4E7E5
:1085E0006583000070B5150004000E00FAF75EF90F
:1085F000064BC2689A4200D02469A368002B02D1BE
:1086000033602B6070BDE2883260FAE7658300005A
:10861000F8B5050010200C001F0016001DF02DFEFF
:10862000054B44608460A4190760C4606B60034B11
:108630002860AB60F8BDC04621320200373202002C
:1086400000237F2803D8034B1B5C9B07DB0F18001C
:108650007047C046CE0D030000237F2803D8034B8C
:108660001B5C1B07DB0F18007047C046CE0D0300D4
:1086700000237F2803D8034B1B5C5B07DB0F18002C
:108680007047C046CE0D030000237F2803D8034B5C
:108690001B5C5B06DB0F18007047C046CE0D030065
:1086A00000227F2808D8054B0132195C0C2319429F
:1086B00002D15F384242424110007047CE0D0300A4
:1086C00000237F2803D8034B1B5CDB06DB0F18005D
:1086D0007047C046CE0D030000237F2803D8034B0C
:1086E0001B5C9B06DB0F18007047C046CE0D0300D5
:1086F00070B50400FAF7DAF800230C49DA005218D2
:108700001568A54205D1516809481EF0A6FA012056
:1087100070BD0133612BF1D1064B9C4203D09842CE
:1087200001D00020F4E70449EEE7C04640AD020066
:1087300044E8020048E902004E0E0300FF23032232
:10874000DB05CB1810B59343042804D811F0C0FA08
:1087500006030F0416000021080010BD0021181C9C
:1087600011F08AFC0A490028F6D00A49F4E7181CDF
:1087700012F028FC012140000143EDE780210906A9
:108780005B18022193431943034BC918E4E7C04621
:108790008CE7020084E7020000008080FF23DB05F5
:1087A00010B50400C81803239843002386B0019332
:1087B000063300931022613302A903F00BFB02A9D8
:1087C00020001EF04AFA2E2102A820F01DFB0028EE
:1087D0000FD1652102A820F017FB002809D16E21D6
:1087E00002A820F011FB002803D1034920001EF04D
:1087F00034FA06B010BDC0468404030030B50C0046
:108800001100002285B01D0000920123200009F014
:1088100053FD002C23D02868124B0340062B06D0B2
:10882000032420420ED1104B02689A420AD103A9B8
:10883000F8F7E6FF0022039900921300F9F70AFF08
:1088400005B030BD03002340022BF9D0FAF77AF9C6
:1088500003000220A3431843044BC018F0E7044868
:10886000EEE7C046070080FFCC9902000000808040
:1088700002008080F0B5050087B010000191FAF782
:1088800061F9041C0390681F182800D9BDE011F09D
:108890001FFA0D121F24333E6F81BCBCBCBCBC0D43
:1088A000121F24333E6F9FA8ADB2B7000198211C60
:1088B00011F00AFD03E0211C019812F0A9F90190C2
:1088C00003230198524A9843013B03439B187CE0E1
:1088D000211C019812F06AF8F1E70021201C11F028
:1088E000CBFB002803D04B494B481CF087F803A969
:1088F00001A81AF008FDE3E70021201C11F0BCFBE1
:108900000028F0D1211C019811F078FED7E7002152
:10891000201C11F0B1FB0028E5D1211C019814F0B6
:108920004DFF0021041C019011F0A6FB002807D088
:10893000039A0023002A01DA80231B060193BFE774
:108940000021201C039E012711F09CFB002800D170
:10895000071C0021301C012511F094FB002800D1D8
:10896000051CFFB2EDB2AF42AAD0311C201C9FE71C
:10897000019D0021281C11F07FFB002805D000215B
:10898000201C11F07FFB0028ADD1211C281C14F005
:10899000F9FF94E70021201C11F06EFB0028A2D102
:1089A00003A901A81AF0AFFC03220220019B184979
:1089B000934303435B180493039B934303435B1864
:1089C00004A90593FDF756FE0300180007B0F0BD9B
:1089D0000199201C11F06AFB104B0028F5D1104BB7
:1089E000F3E70199201C11F04DFBF5E70199201CDC
:1089F00011F042FBF0E70199201C11F061FBEBE75D
:108A00000199201C11F048FBE6E70023DDE7C04692
:108A100000008080A40D030004AD02008CE702007A
:108A200084E7020010B504004868002204300749BA
:108A300000F0A2F8064A002803D04068F8F7CAFE02
:108A40000200044920001EF0C9F910BD860F000085
:108A5000FB8203005534030070B5150012680C004A
:108A60004068002A0AD1CC0006210430214300F0DE
:108A700083F8002801D043682B6070BD03799B0701
:108A80000BD50C4B9842F8D10B4EF36D002B03D154
:108A900001201CF09CFEF065F06D06216A68E40080
:108AA0002143002A03D11CF0D5FE0023E4E71CF08B
:108AB000C7FEFAE7249D02007C2E002070B5062533
:108AC000C0000543012229000B4800F055F8446816
:108AD0000600002C0ED108201DF0CFFB074B040030
:108AE000036001201CF073FE2A00606004491CF042
:108AF000A7FE7460200070BDB82E002058B102009F
:108B0000860F000010B50C000621C00001430122B1
:108B1000024800F031F8446010BDC046B82E002075
:108B200073B50625C3001D43060000222900104826
:108B300000F022F8041E18D1020029000D4800F0B0
:108B40001BF8041E12D0EA216A46FF31406803F088
:108B50008FFF009B002B08D000216A4608001BF005
:108B600011FF61683000FFF7CDFF606876BDC04639
:108B7000B82E002084B00200F0B587B000920278D1
:108B800004000F00930703D5009B002B00D0F5E0F5
:108B9000D307DB0F0ED07A4B3B40062B43D0032389
:108BA0003B4003D177493868884203D0009B012BB2
:108BB00000D0E3E0019353075FD52368A568DE0882
:108BC000F600AE19B54230D3009B012B00D0D5E0A2
:108BD0002368D9086368994210D104316160A068A4
:108BE000C9001DF068FB23686268DB08D21ADB004D
:108BF000A060D200C018002120F0CAF80721236825
:108C0000DD086A1CD2000B4013432360A368ED000B
:108C10005D195B4B2F601F40062F21D00122237866
:108C2000934323701CE00123C4E72868B8421AD19B
:108C3000009B022B14D129002368721BD210083B21
:108C4000013A6F6828002360D200083120F08DF8C7
:108C50002368DD08A368ED005D1900236F602B60B9
:108C6000280007B0F0BD019B002B04D13900F9F7B3
:108C7000B3FE0028DCD10835A4E76368002B05D1DA
:108C8000009B012B7AD1200000F07EF83C4B3B404A
:108C90000593062B27D1F8081CF046FE0390616867
:108CA000039811F0AFF800260491049B0293029BF5
:108CB000DD00A3685D19286800281BD1009B012BEB
:108CC0005CD107212368DA080132D2000B4013433C
:108CD0002360002E00D0350000236B60059B2F60C1
:108CE000062B9BD1BCE73900022003F0D7FD4310CF
:108CF0000393D4E7042803D1002E1DD12E001BE0DE
:108D0000B84211D1009B022BAAD123680298083BDC
:108D100023600130616811F075F8A368C900CB5871
:108D2000002B25D12B609BE7019B002B04D1390040
:108D3000F9F752FE0028E5D102986168013011F080
:108D400061F8049B02918B42B1D1009B012B15D19C
:108D5000002E0FD023683500083323600023736092
:108D6000059B3760062B00D17AE72378009A57E7F6
:108D70000423D7E7200000F007F890E700256FE70D
:108D8000070080FFCC990200F7B543680400019307
:108D90005A1C002317495800455AAA4206D90133E4
:108DA000222BF8D15508AD18213B1D43E800A768D8
:108DB0001DF075FA07232268656013400122002523
:108DC000236013432370A060019B9D4203D13800B0
:108DD0001DF082FAF7BDEE00B959002908D0042928
:108DE00006D001222000FFF7C7FEBE19736843605A
:108DF0000135E9E770F60200F8B5050000230468C4
:108E000086681449621C5800405A824206D90133D0
:108E1000222BF8D15008821801201043002328602B
:108E20006B6080001DF03BFA3700A400A860A41915
:108E3000A74203D130001DF04FFAF8BD3968002970
:108E400005D0042903D0012228001AF00FFB0437B3
:108E5000EEE7C04670F602000379044AD35C002BAB
:108E600000D183790248DB00C0187047D12D002063
:108E7000A0B1020010B50400FFF7EEFF22790368ED
:108E800002490348FFF70EFB03F028FC633403009C
:108E9000C8AC0200002803D001210379014AD15453
:108EA0007047C046D12D002010B5FFF7D5FF034B0A
:108EB0004068C01A431E9841C0B210BD758E0000B4
:108EC00070B506000C00FFF7C7FF0C4D2B002833D0
:108ED000984204D12A001032002394420BD0002380
:108EE000A04208D0436830009847641B3379044A95
:108EF000E410D4540123180070BDC046A0B1020094
:108F0000D12D0020F0B589B0002807D1664B674805
:108F100019681DF0A2FE664809B0F0BD0D68654BEA
:108F20009D425BD1002108001DF07EFD002405005C
:108F30000590614B5A680192944217D300255F4A0D
:108F400005A901200BF0A8F907AA06A905981DF0AC
:108F500082FD069B03339B0801939B000393019BB7
:108F6000524EAB4210D156493000D2E79B68019374
:108F7000019AE3009958002904D0042902D028005E
:108F80000BF02AF90134D4E72F00AB000293079BC2
:108F9000029A9858F8F71EFC010030001DF05DFEA3
:108FA000019BFF18069B9F4212D212231C1A002C11
:108FB00007DD013C07D2039A029B94466344029367
:108FC000E5E71234F3E73F4930001DF046FEF0E7D5
:108FD0003D4930001DF041FE0135C0E72800F9F79A
:108FE00065FC3A4B42689A4200D16D682800FFF751
:108FF0007FFB061E00D08EE72C4C354920001DF06B
:109000002CFE31002800F9F783FC280019F0F3FA50
:109010003049020020001DF0E1FEAB0732D12B6881
:109020002D4A93422BD128001AF0E4F91CF01DFCC4
:1090300000250600A84200D16DE773689D4200D369
:1090400069E7B268EB00D3181F68002F15D05B6882
:109050002249200001931DF000FE00213800F9F79D
:1090600057FC1F4920001DF0F8FD00210198F9F779
:109070004FFC154920001DF0F0FD0135DDE7194AD0
:10908000934203D02800F9F711FC0500A86B0028D3
:1090900000D140E7830700D03DE7134B02689A42B6
:1090A00000D038E7C2E7C0460800002044E80200CC
:1090B000A4B302004614000084B0020094B1020080
:1090C000753403009E6F0300254F03000D0200005E
:1090D00099340300A134030058B102009D6F0300CE
:1090E000B134030018B8020034C20200002803D0D3
:1090F000012807D0002004E08B680448002B00D131
:10910000034870478B685B001843FAE78CE702005E
:1091100084E70200034B48600B60002308008B606B
:10912000CB60704758B202007FB5040001220800EE
:1091300001A9F9F75DFE0022217940200BF0E6FA43
:1091400001000500029810F0D7FD636806001A0AB6
:10915000824218D2A368C1186943E0681DF0ABF8D9
:109160006368E060DBB22A00A06863606843E3687C
:109170007243181801991FF0EFFDA36804489E1967
:10918000A66004B070BD121A1202DBB21343EAE704
:10919000A4B30200F7B5FF27456804000191BD4361
:1091A0001DD101792A0040200BF0B0FA6368060057
:1091B0003B408027A1683F011F430831414367605E
:1091C000E0681DF078F86368E0601A0AA368013A65
:1091D000013372435E43290080191FF0D9FD2079C5
:1091E000019BA268E1680BF031FCA36803480133DE
:1091F000A3606368013BFF3B6360FEBDA4B3020054
:10920000F8B5002207000D00010040200BF07EFAA7
:10921000060010201DF031F8084B0400012F00D08B
:10922000074B2800277123606368A560DBB2704399
:1092300063601DF022F8E0602000F8BDF0B202008B
:10924000B4B2020070B506008AB00C0015001228F6
:109250005CD003D8052826D0002454E01B2800D178
:109260006CE01F28F8D1012207A9280019F0DAF9CB
:10927000032300284FD01C4213D13B4B22689A4253
:109280000FD1012204A920001AF09CF90123079AAA
:1092900000930599089B049819F047F8334C00286F
:1092A00031D1334C2FE0012204A920001AF08AF9B1
:1092B0002800012207A9F9F79BFD069B00220393D2
:1092C0006B464020197B0BF021FA0100060008983C
:1092D00010F012FD069BA16803936B464118050030
:1092E000187BFFF78DFF059B04001A000499C068E6
:1092F00003931FF031FD2A000598E36872431818A4
:1093000007991FF029FD20000AB070BD1100200050
:10931000FFF70AFFF7E7EA070DD41D4203D1154B0B
:109320002A689A4207D003232B40022BB9D1124B53
:109330001D40062DB5D0114804F03AFA012204A9C7
:1093400020001AF03FF9012207A9280019F06AF954
:109350000028A6D0089B059A00930499079B30002B
:109360001CF061FC9AE7C046F0B202008CE70200F4
:1093700084E70200ECB80200070080FFFB820300D4
:10938000F0B5050087B00E00012808D08B0726D164
:109390000B68264A934202D0254A93421FD10122EC
:1093A00003A9300019F03EF9002818D00022290046
:1093B00040200BF0ABF901000700049810F09CFC72
:1093C000060001002800FFF71BFF320004007A436B
:1093D0000399C0681FF0C0FC200007B0F0BD30004A
:1093E000F9F766FC071E00D0471039002800FFF788
:1093F00007FF00210400300003F0B8FB00260090B6
:10940000009803F015FC031EE6D0002F04D11900CC
:109410002000FFF7BFFEF3E7721C0192E168320003
:1094200028000BF013FB019EEAE7C04660920200A1
:10943000F0B2020070B50E7904000D00012E0DD1BE
:1094400019491DF00AFC3300AA68E9682000F7F703
:10945000E5FC164920001DF000FC70BD32001449E7
:109460001DF0BCFCAB68002BF3D0124920001DF0AE
:10947000F4FB0026AB68B34204D80F4920001DF06E
:10948000ECFBE6E7002E03D00C4920001DF0E5FBC5
:109490003200E96828790BF0A1F9012201002000CF
:1094A000F9F71CFA0136E5E7B63403006002030061
:1094B000C2340300CD340300DD05030005FC0200C7
:1094C00070B5050086B0161E44D0032480680C4099
:1094D0002BD1214B0A689A4227D103AA08F0C4F97C
:1094E000002802D11D4804F063F9042E1AD122008D
:1094F000297940200BF00AF9049B06000093039B96
:1095000028790193019A009B991AFFF779FE039934
:10951000049A0400521A71437243EE68C0687118CD
:109520001FF01AFC200006B070BD0A0000230100E5
:109530002868F9F77BFB02002879042E04D1E9683A
:109540000BF04CF90400EDE73300E9680BF07EFA0C
:10955000034CE7E71400E5E7A8A4020066FC02005C
:10956000A4B3020037B50C00110000221D000092C8
:109570000123200008F0A0FE002C05D121000120CD
:10958000FFF73EFE040016E02968CB0705D48B07E1
:1095900013D10C4B0A689A420FD10800F9F76EFA02
:1095A000010005000120FFF72BFE2A000400002126
:1095B000C0681FF0EDFB20003EBD0120FFF7E0FE7C
:1095C000E0E7C046ECB8020037B50400A06803F03D
:1095D0002FFB019000280ED06568074B9D4205D0F7
:1095E00001AB00220121280003F0CAF9F9F784FB3E
:1095F0000028EBD001983EBDA4B3020030B58DB079
:109600000500684603F044F8011E10D12A1D012010
:109610001BF0B8F90122EB6804005B1001335B001A
:109620001343EB6003F052F820000DB030BD0198F9
:10963000054A0368934205D0044A00249342F3D0BC
:1096400003F04CF80024EFE79CAB020044A90200B1
:10965000044B0B6003684B60436808008B60012378
:10966000CB60704768B3020010B502491DF0F5FAEF
:1096700010BDC046D134030010B50400034B036095
:1096800040301DF012FE200010BDC046E4B50200BF
:1096900010B50F4C20001FF00AF8002808D0200059
:1096A0001EF0D7FF0B4B1B68984202D1FAF7C4FC9F
:1096B00010BD3F21084A138801330B400749098830
:1096C0008B42F5D01188064C13806054F0E7C046F9
:1096D0005C2A0020782E0020BC2D0020BE2D00200A
:1096E000F12D0020002210B5044B05491A80054BCE
:1096F00005481A801EF0E0FF10BDC046BC2D0020BA
:1097000091960000BE2D00205C2A0020034B188893
:10971000034B1B88C01A431E98417047BE2D002082
:10972000BC2D0020084A094B10881988884201D1B5
:1097300030BFF9E713880649C85C3F21138801331D
:109740000B4013807047C046BE2D0020BC2D00206A
:10975000F12D002070B504004518AC4205D02178E9
:1097600002481EF07AFF0134F7E770BD5C2A002042
:1097700070B504004518AC420DD02378064E0A2B74
:1097800003D10D2130001EF068FF217830001EF05B
:1097900064FF0134EFE770BD5C2A002070B504005F
:1097A0000825002C08D02100082C00D929000348E6
:1097B000641AFFF7CFFFF4E770BDC046DF34030043
:1097C00070B5050004000826002C08D02100082CE4
:1097D00000D931000448641AFFF7BCFFF4E7280001
:1097E000FFF7DCFF70BDC046D634030010B50100A2
:1097F00001481BF031FE10BD1C000020142313B5DE
:10980000064C00931922182120000DF04DFF044A48
:10981000044920001FF02FFA13BDC0465C2A002027
:10982000000000207996000010B5024B672219F065
:10983000D6FF10BDFD40020010B5024B972219F073
:10984000CEFF10BD59AA0000F7B50F0011001A0095
:10985000C38A8579868A019300230400837143615A
:109860000F4B19F0BCFFA368002B17D1E18A002928
:1098700008D0A38A002B05D1206B1BF083FC206B42
:109880001BF000FBA38AE28A3900200019F058FF80
:109890006B1E9D41019BA571A682E382F7BDC04668
:1098A00075A6000010B54379C26A012B03D11000E0
:1098B00019F072FB10BD0B00006B024919F096FB0A
:1098C000F8E7C046ECBC02007FB50B7804000D0041
:1098D0004E1C002B0AD0032B0BD103A928001CF02F
:1098E00034FB03990600206B1BF063FA300004B0D0
:1098F00070BD012B07D18E1C49780429F6D0006B6E
:1099000005F0F0F9F2E7042B0BD14B788978006B66
:10991000090219431BF095FA28001CF051FB0600C0
:10992000E4E7052B15D14379042B04D02649006BBD
:109930001BF093FAF0E788784B780002184303A9EC
:109940001CF001F80399246BF7F71AFB01002000C3
:10995000EEE71A000A3A0F2A09D803A9280019F0DD
:10996000C3FE039906002000FFF79CFFBEE7082B0B
:109970000CD103A928001CF0DEFA039B226A9B008D
:1099800006009958206B1BF068FAAFE703AB02AAF8
:1099900001A928001CF045FB05000299206B05F089
:1099A00055F9019B094A9B009B582900039A200006
:1099B0009847A368002B04D0E368002B01D1029BD9
:1099C000E360039E92E7C046A4B30200ECB5020038
:1099D000F7B506000192FFF777FF04270500019B0A
:1099E0009D4200D1F7BDA91C30006C78FFF76CFFD9
:1099F0002F3CE4B205003900082C01D8024B195D58
:109A0000306B1BF09DFBEAE7E834030010B54379A7
:109A1000C26A012B03D1100019F0CFFA10BD0B0060
:109A2000006B024919F0E2FAF8E7C046FCBC0200FC
:109A300010B54379C26A012B03D1100019F0BDFAA9
:109A400010BD0B00006B024919F0D0FAF8E7C046D0
:109A5000DCBC0200836870B504000D00002B09D146
:109A60001100054819F0C2FBA060200029000C304D
:109A70001AF0D7F870BDC046D8AB020010B5024A44
:109A8000FFF7E8FF10BDC04630380300F0B5040012
:109A90000D00E162002162712B7891B005920161A5
:109AA0009F4A072B3BD1059B012B06D00200836BFD
:109AB00008321B680599406B9847AB6818000893FB
:109AC0001CF07EFA63790890032B0FD10D90402192
:109AD0000DA81CF08EFAA36B02009B680D99606BB9
:109AE0009847A368E882002B00D0D4E008981CF0C7
:109AF00067FA08900378002B4FD00A3B0F2B47D80A
:109B00000DA919F0F1FD95220D9B9200934244D0CE
:109B10000AD80125483A93420DD0824A089920007C
:109B2000FFF798FF11B0F0BD7F4A934202D07F4A01
:109B30000325F0E7002508981CF042FA1821089048
:109B400008A81CF056FA089B07900693069B079AF4
:109B5000934224D16379012B15D9A36B29005B684B
:109B6000606B98476379042B0DD10023E06A03955D
:109B70000293C18A626B0191009393680521D268B8
:109B80000069FAF777FAA368002B00D083E0C9E7F1
:109B90000100674A2000FFF75DFF0225CBE7069B27
:109BA00008931B78222B04D106981CF009FA069022
:109BB000CCE71F2B01D05F4AB0E709A906981CF03B
:109BC00009FA03780600432BF5D11CF0F9F9099B3B
:109BD0009842F0D109A930001CF0FCF90378070085
:109BE0000A3B0F2BE7D81CF0EBF9099B06008342D8
:109BF000E1D00378472BDED11CF0E2F9099B9842B3
:109C0000D9D10AA9380019F06FFD30001CF0DDF938
:109C10009F210B900BA81CF0ECF901000B981CF095
:109C2000C3F99B220A9B0600920093421BD1012894
:109C300004D10B9803780A3B0F2B01D93E4A6DE7FC
:109C40002669731C2361059B012B21D00DA919F0F6
:109C50004BFDA36B0D9ADB683100606B98470028C1
:109C600016D1364A5AE7364A93421AD1012803D10F
:109C70000B980378032B01D0324A4FE7059B012B49
:109C800006D0666B1CF070F9010030001CF09CFAE5
:109C9000A368002B88D0200008990C3019F0C1FF70
:109CA00040E789229200934222D1012803D90B98E0
:109CB0000378032B01D0244A30E7059B012BE7D022
:109CC0000CA91CF042F901270B900B980378032B89
:109CD00001D01E4A22E70DA91CF037F901370B907D
:109CE0000D9A0C99606B1CF076FABE42EDD1CFE76D
:109CF000059B012BCCD0032800D95CE70B9B1800F7
:109D00000D931CF05DF90E901CF05AF9A36B0F90A7
:109D10001F6932000DAB0A99606BB847B8E7C046BF
:109D2000253703004937030091020000DA020000E2
:109D3000563703007E370300A1370300BD37030009
:109D4000FF010000CD370300E93703000E380300A0
:109D5000F0B587B001920A000593531E9A410D0099
:109D600006000599019804921CF01EF92C1E039020
:109D700009D02B7800243A2B05D102002100306B4A
:109D80001BF071FA2C00049B019F0293059B9F42DC
:109D90001ED1002C3BD1039A049B944663441900C6
:109DA000306B1BF054FA002D3ED1019B9F422CD00A
:109DB000019B9C423BD120001CF007F900220100CE
:109DC000300000F039F801981CF0FAF80190ECE747
:109DD0003B783A2B0CD1002C12D1049B306B5A1ECD
:109DE000039B3C00D218029BD21A19001BF03BFACD
:109DF00038001CF0E5F8029B070001330293C5E729
:109E00000C4A39003000FFF725FE07B0F0BD002DE9
:109E1000CBD0AC4208D120001CF0D7F800220100C2
:109E2000300000F009F8C0E700222900F8E700221E
:109E30000199C5E75B350300F0B50B7817001A00F0
:109E40000A3A85B004000D000F2A10D803A9280093
:109E500019F04AFC03992000002F01D0022F03D1F2
:109E6000FFF7D4FD05B0F0BDFFF71CFDFAE76A4A25
:109E7000192B00D8CBE01A3B2A2B00D182E005DC5D
:109E8000062B08D0292B11D0644AC0E02B2B00D11F
:109E900094E0972BF8D1002F00D0B7E003A9280059
:109EA0001CF098F80200039B00219BE002A9280007
:109EB0001CF090F80600022F03D001002000FFF7ED
:109EC00003FD30001CF07CF80299060019F001FC3B
:109ED0000028D9D13378A22B13D1300003A91CF06C
:109EE00079F8060030001CF06BF8039A019090425C
:109EF00007D2022F03D031002000FFF7E5FC019EBE
:109F0000F0E73378482B21D1022F06D1206B1BF0CC
:109F100044F8206B1BF000F80EE030001CF055F800
:109F200001002000FFF7D0FC206B012FF2D11BF0C5
:109F300008F8206B1AF0D8FF30001CF041F80299A5
:109F400019F0C7FB002800D08CE79DE7492B9BD177
:109F500030001CF03AF803A919F0C6FB012F07D115
:109F6000206B1AF0E4FF0399206B1AF095FFE3E7EA
:109F7000022F02D1206B1AF0F9FF0399206B1AF01F
:109F8000BEFFD9E703A928001CF024F803990600B6
:109F900019F09FFB002800D076E7002F36D135005E
:109FA00003A928001CF016F806001CF009F8037835
:109FB000A92B1BD100231A00310013E0002F25D15B
:109FC00003A928001CF006F80399050019F081FB8D
:109FD000021E02D03B003A0066E72B78A62BDFD0AA
:109FE000030029002000FFF7B3FE3BE7AA2B05D1B1
:109FF00003A91BF0EFFF039B0200DDE7C12B00D19B
:10A0000042E71BF0DDFF320003004DE7044A290060
:10A010002000FFF71FFD25E7FC3403001435030083
:10A020002F350300F0B5170085B0040008000D00BF
:10A030001BF0C6FF3900060019F04BFB0190002809
:10A040001FD02379002B17D0E36A1E78002E13D17E
:10A05000F6212000FF31FFF725FC29002000FFF743
:10A0600033FC330032000121206B1BF03AF9206BE6
:10A070001AF071FF05B0F0BD29002000FFF724FCA5
:10A08000F5E733786D2B1DD1290001222000FFF761
:10A09000D3FE30001BF099FF4378811C4E3BDBB2AE
:10A0A00018260A2B01D8234AD65C2000FFF70CFCA7
:10A0B0003100206B1BF044F8022229002000FFF73A
:10A0C000BBFED7E76E2B2ED1300003A91BF082FF19
:10A0D00006000700039BBB421FD101992000FFF738
:10A0E000F3FB206B1AF023FF002229002000FFF76A
:10A0F000A3FE019BB342BDD030001BF061FF019B6A
:10A100000500834202D0206B1AF011FF31000022BB
:10A110002000FFF791FE2E00EBE738001BF050FF08
:10A1200001970700D6E731002000FFF7CDFB019A29
:10A13000C3E7C046F1340300F0B50B788FB00A3B9B
:10A140000400019103920F2B00D906E108001BF0D7
:10A1500037FF0378432B00D0FFE001981BF030FF5E
:10A160000BA91BF037FF037842780A3B1B0213430D
:10A17000A14A934200D0F0E01BF022FF03780500D3
:10A18000472B00D0E9E01BF060FF002800D0E4E09E
:10A1900028001BF015FF0B9B984200D0DDE0280043
:10A1A0001BF013FF9F210C900CA81BF022FF0C9BAF
:10A1B00007000293012302980D931BF001FF050095
:10A1C0000C90B84200D1BDE01BF0FAFE0C90B842F2
:10A1D0000ED00378032B00D0BFE00DA91BF0B5FE15
:10A1E0000D9B0C90002B00D1B7E0B84200D0B4E03A
:10A1F000029B1B784533DBB2022B00D8ADE02B78F5
:10A200004533DBB2022B00D8A7E00B9B1800059367
:10A210001BF0D6FE039B0700984200D100270D9B40
:10A2200026690493238B26830693638B0793E38B22
:10A230000893731C6383A38BE383331D23612B7803
:10A24000D91E03930B00591E8B410993039B032BCB
:10A2500003D029002000FFF737FB02992000FFF709
:10A2600033FBF11C206B1AF0ADFEB11C206B1AF011
:10A270006CFD206B1AF05BFE002201992000FFF7B5
:10A28000DBFD05992000FFF71FFB711C206B1AF006
:10A290005CFD0499206B1AF08CFD1221206B1AF0E2
:10A2A0004FFF206BF11C1AF050FD039B206B032B1A
:10A2B0004CD01AF046FE206B1AF058FE049B206B1F
:10A2C0001921002B00DA1A2100251AF039FFB21CDF
:10A2D0000121206B1AF082FE069B2383079B638378
:10A2E000089BE383AF4218D0206B1AF034FE039B27
:10A2F000032B02D0206B1AF02EFE39002000FFF74E
:10A30000E3FA2569206B6B1C290023611AF05AFEC1
:10A310000999206B01311AF05EFC3100206B1AF0B4
:10A3200014FD206B1AF017FE039B032B02D0206B49
:10A330001AF011FE002F03D02900206B1AF005FD42
:10A340000FB0F0BD2D4B029D029351E71AF0EFFDC7
:10A3500029002000FFF7B8FAB0E7238B25690293A4
:10A36000638B6E1C0493E38B66830593AB1C06938F
:10A37000A38B0198E383224B2B432383EB1C2361A4
:10A380001BF01EFE01002000FFF79EFA07000121CE
:10A39000206B1AF074FE3100206B1AF0D6FCA91C59
:10A3A000206B1AF07FFE002201992000FFF744FD88
:10A3B00039002000FFF788FA0700206B1AF006FC2E
:10A3C000002803D13100206B1AF0FCFDA91C206B82
:10A3D0001AF0BBFC206B1AF071FE029B2383049BD6
:10A3E0006383059BE383039BBB42A5D03900200018
:10A3F000FFF76AFAA0E7C046A2020000DA6C030089
:10A400000080FFFFF0B589B005000591049200932C
:10A410000191002904D09F2105A81BF0EAFD0190BD
:10A4200000231E001F00059C03930293019BA3427F
:10A430001AD1002E0DD0029B002B00D079E0286BA2
:10A440001AF020FD039B002B00D077E0286B1AF058
:10A4500019FD049B286B002B00D174E033003A00F7
:10A4600000991AF047FF0AE02378BB2B14D1BA3BBE
:10A470001E4206D0374A21002800FFF7EBFA09B048
:10A48000F0BD012320001E431BF09FFD0290200021
:10A490001BF096FD0400C9E7BC2B0BD1BA3B1E4252
:10A4A00001D02D4AE7E7022320001E431BF08DFD5B
:10A4B0000390ECE7BD2B2AD120001BF086FD0400A1
:10A4C0001BF07EFD0378C12B0BD128000622210052
:10A4D00019F015FA009B2000013300931BF070FD6A
:10A4E000D6E723780A3B0F2B01D91C4AC3E707A9FB
:10A4F000200019F0F9F804000799286B1AF0A1FC64
:10A5000021002800FFF7E0F9013704008EE7002E54
:10A5100001D0134AAFE7002F01D0124AABE7210068
:10A520002800FFF7D1F9009B0400013300933E009F
:10A530007CE702992800FFF7C7F983E70399280011
:10A54000FFF7C2F985E733003A0000991AF0C9FE17
:10A5500095E7C0464D380300643803007C3803009B
:10A560009D380300B8380300F0B589B004000391AA
:10A5700003A83D211BF03DFD0027E36A02905E7DAC
:10A580000398029B984215D118001BF01EFD029BF8
:10A5900003901B780100320020001D2B59D119F0C7
:10A5A00059F90500013F57D229002000FFF72EFA84
:10A5B00009B0F0BD05A91BF00DFD6821039003A8AB
:10A5C0001BF017FD06A90500039819F08DF89623D6
:10A5D000069AFF3301909A4213D003992000FFF7A7
:10A5E00073F9013703900398A84229D105992800EF
:10A5F00019F06FF800280CD129002000FFF764F94A
:10A6000007E0019B9D4207D8174A00212000FFF771
:10A6100021FA059B0393B3E701981BF0D1FC854217
:10A62000F2D107A9019819F05FF8079B0F4A9342EE
:10A6300004D00F4A9342E7D10426EAE70126E8E76F
:10A6400007A919F051F807990390206B1AF024FC20
:10A65000C9E719F049FBA4E7002301211A00206B88
:10A660001AF03FFE9EE7C0461436030011020000B8
:10A6700006020000F7B50A780E00130008215D3BC2
:10A680008B43DBB20400002B02D101338371F7BD91
:10A6900013005E3B8B43DBB2002BF8D013000A3B68
:10A6A0000F2B2FD95C2A11D101A930001BF092FC8D
:10A6B00007001BF085FC019B834205D01BF080FC4A
:10A6C000019B0500834208D1002506E030001BF005
:10A6D0007CFC07001BF074FC050001A9380019F090
:10A6E00003F8A379002D02D02A78002A0CD1002B80
:10A6F000CDD1E38A002BCAD0184A31002000FFF7E1
:10A70000A9F9C4E73700DFE7002B1ED0A38A013385
:10A710009BB2A382012B09D1E18A206B002911D0C1
:10A720001AF030FD0021206B1AF046FD29002000B0
:10A73000FFF7CAF8206B01991AF083FB206B1AF01F
:10A7400047FDA4E71AF09EFBECE7E38A29000133FA
:10A75000E3822000FFF7B8F899E7C04632360300DD
:10A76000F0B504000E00056987B002936B1C0393DB
:10A77000AB1C03612900006B17001AF05DFC200080
:10A7800018F0BAFF31002000FFF79EF8206B1AF096
:10A790009BFC691C206B1AF015FC2900206B1AF039
:10A7A000D4FA206B1AF0EAFD2669731C2361029B20
:10A7B0009F4218D1A38B206B013BA3831AF054FC5A
:10A7C000206B1AF0E0FD0399206B1AF0BEFA0C9B87
:10A7D000002B03D019002000FFF776F83100206B22
:10A7E0001AF0B3FA1BE038001BF0EFFB00230593CF
:10A7F000236905000193013323610378002B10D1F5
:10A800001BF0DEFB1BF0DCFB029B984224D03C4A91
:10A8100029002000FFF71EF9A38B013BA38307B09B
:10A82000F0BD07008B2B07D11BF0CFFB07001BF0FF
:10A83000C7FB05A918F058FF206B1AF078FB390008
:10A840002000FFF741F82121206B1AF079FC019AD2
:10A850000021206B1AF0C2FB28001BF0B1FB059908
:10A860000700002948D1206B1AF075FB0025059BD5
:10A87000AB4209D02569206B6B1C236129001AF0BB
:10A88000E7FB200018F038FF39002000FFF71CF824
:10A89000059B0700002B02D0206B1AF015FC206BE3
:10A8A0001AF037FC059B002B19D00E21206B04F009
:10A8B00019FA2900206B1AF048FA0E21206B04F0D7
:10A8C00011FA05992000FFF7A1F820000599FFF77C
:10A8D000AFF8A38B206B013BA3831AF0C5FB3100BB
:10A8E000206B1AF06FFB0199206B1AF02EFA0121F0
:10A8F000206B1AF070F95AE72000FFF787F8B5E7E8
:10A90000DA380300F0B587B0039143790400012BD6
:10A9100007D1C36A0D001B78002B04D1194AFFF739
:10A9200099F807B0F0BD692103A81BF062FB029003
:10A930000398029B9842F4D005A90B2718F0D4FE87
:10A94000059B0390019302ABFF183A000199E06A5E
:10A9500018F0E2FB3B780600002B0DD0019A0100B5
:10A96000E06A18F004FC3378074A002BE0D1290094
:10A970002000FFF76FF8DBE70378042BD8D0034AF9
:10A98000F5E7C0467F360300A4360300C236030055
:10A99000F0B587B0039144790500012C09D10191EC
:10A9A00003A869211BF025FB02900398029B9842A3
:10A9B00001D107B0F0BD05A90B2718F095FE02AB39
:10A9C000059EFF1803903A003100E86A18F0A4FBD6
:10A9D0003B78002B08D10378012B05D0074A019959
:10A9E0002800FFF737F8E0E704703100E86A18F054
:10A9F000B5FB0028D9D00470D7E7C0466036030005
:10AA000010B5084B428B04009A4202D1064AFFF768
:10AA100021F8A28BE38B618BD21A206B04F088F9AA
:10AA200010BDC046FFFF0000FC35030010B5084B09
:10AA3000028B04009A4202D1064AFFF70BF8A28B60
:10AA4000E38B218BD21A206B04F072F910BDC04643
:10AA5000FFFF0000E7350300F7B50B7804001A008C
:10AA60000A3A0E000F2A08D801A9300018F03CFE5F
:10AA700001992000FEF7DCFFF7BD432B44D1694666
:10AA800030001BF0A7FA01002000FEF71DFF03783D
:10AA90000500A22B10D101A91BF09CFA050028008B
:10AAA0001BF08EFA019B0700834205D0290020008D
:10AAB000FEF70AFF3D00F2E72B78482B16D128005D
:10AAC0001BF083FA01002000FEF7FEFE0500206B5C
:10AAD0001AF06DFA0099280018F0FBFD0028CBD180
:10AAE000214A31002000FEF7B5FFC5E7492BF7D119
:10AAF00028001BF06AFA01A918F0F6FD019905007B
:10AB0000206B1AF03DFAE5E7442BE9D108001BF071
:10AB10009CFA0028E4D130001BF057FA06001BF025
:10AB200054FA050001002000FFF796FF28001BF0F3
:10AB300047FA0378A92B9FD0AA2B0ED101A91BF0AD
:10AB400049FA019B0500834296D020002900FFF7B7
:10AB500083FF28001BF034FAF3E7C12BC0D00100BB
:10AB60002000FFF779FF87E775350300F7B5022668
:10AB70000D00C16A0400097D314005D0344A290026
:10AB80002000FEF767FFF7BD0191297808000A3819
:10AB90000F281DD8280001A918F0A6FDA279E36AA4
:10ABA000002A03D01A8B01321A8302E0DA8A0132BA
:10ABB000DA82012601990029E5D06B46DF1C3A00B4
:10ABC000E06A18F0A9FA3B78002B3CD1214AD6E77D
:10ABD0001A32914204D128001BF0F7F901A9DBE7F2
:10ABE0001A33994223D1A379002BC7D1012728001A
:10ABF000A7711BF02AFA03260028DBD128001BF0DE
:10AC0000E4F90278E36A0A3A0F2A09D828001A7D83
:10AC100017431F751BF0D9F901A918F065FDC9E7A5
:10AC20001A7D280017431F751BF0CFF9F2E72800A3
:10AC30001BF0CBF901A918F057FDE36A1A7D164302
:10AC40001E750526B6E70223467003709BE7C046D3
:10AC5000FD3603000C370300C36A70B51B7804008F
:10AC60000D00072B04D00C4A0021FEF7F3FE70BD47
:10AC70001100280018F02DFD002807D00E21206BB0
:10AC800004F030F8206B1AF03FFBF0E729002000B9
:10AC9000FEF71AFEF6E7C046E3360300C36A70B556
:10ACA0001B7804000D00072B06D0022B04D0174A96
:10ACB0000021FEF7CFFE70BD1100280018F009FD3D
:10ACC000061E07D00E21206B04F00CF8206B1AF042
:10ACD00036FBF0E72B78C42B12D128001BF075F956
:10ACE00001002000FEF7F0FD3100206B1AF0C7F9DB
:10ACF000206B0E2103F0F6FF206B1AF02FFBDAE732
:10AD000029002000FEF7E0FDE0E7C046F938030027
:10AD1000F0B50D0085B004001100280018F0D9FC32
:10AD2000071E05D00021206B1AF046FA05B0F0BDD1
:10AD30002B784E2B0BD1206B01211AF03DFA290004
:10AD40002000FEF7C1FD206B1AF042FAEEE7B32BAC
:10AD500061D128001BF039F905001BF031F9029090
:10AD60000378B62B4DD103A91BF034F9039B029055
:10AD7000984203D09D2102A81BF03BF92B784E2B63
:10AD800020D103990298266B1BF00EF9411C30006C
:10AD90001AF012FA29002000FEF796FD206B1AF037
:10ADA00017FA0127029E039B9E4210D1002FBDD1AE
:10ADB00031000298246B1BF0F7F8411C20001AF0B8
:10ADC00012FAB3E729002000FEF77EFDEAE73378A8
:10ADD000310020000193FEF777FD019B0600002F54
:10ADE0000BD04E2B05D00F4A29002000FEF732FE73
:10ADF0009CE7206B1AF0ECF9D5E74E2BD3D10A4A29
:10AE0000F2E72B7804224E2B00D0052229002000E7
:10AE100018F075FD8AE729002000FEF755FD012195
:10AE2000206BCCE78D350300B0350300F0B504008E
:10AE30000D00002662711100C56206612A0087B00C
:10AE4000006B03F071FE6279012A01D1EE832E843A
:10AE5000AE683378542B0AD130001BF0B6F80100ED
:10AE60002000FEF731FD206B1AF04EFA2AE02B7815
:10AE7000002B08D131002000FEF726FD0E21206BAB
:10AE800003F030FFEFE7072B21D130001BF098F8DB
:10AE900063790500012B07D100230100A371402233
:10AEA0005F4B200018F09BFC28001BF089F81BF07A
:10AEB00087F801002000FEF707FD206B19F086FEE1
:10AEC0000028DBD0206B19F054FE07B0F0BD022B38
:10AED00017D1012A07D100234732A3713100514B0A
:10AEE000200018F07CFC30001BF06AF80100200004
:10AEF000FEF7EAFC2B7D5B07B5D5206B1AF02BF82B
:10AF0000BCE7033B032B50D830001BF059F805A9D0
:10AF10001BF060F81BF054F867790390012F09D1FA
:10AF20000B2202ABD2183900E06A18F0F5F80223C0
:10AF30000370EF822B78032B20D10021206B1AF0B5
:10AF40002EF92B78062B27D1206B19F09BFF0121BE
:10AF50002000FEF7A7FC206B19F094FF206B19F07E
:10AF600091FF0023059A009303993300200019F004
:10AF70007AF92B78062B00D075E77FE7042B04D1F4
:10AF80000021206B1AF018F9DBE7052BD9D100213D
:10AF9000206B1AF028F9D4E720000121FEF782FC8B
:10AFA0000121206B1AF06BF8DBE7012A07D1DE21C3
:10AFB00005AAFF31280018F0AFF80223037005A995
:10AFC000A86818F091FBF82120004900FEF76AFC00
:10AFD000F0212000FF31FEF719FDE989206B19F0FF
:10AFE00030FFFA2120004900FEF710FDA8681AF092
:10AFF000E7FF1AF0E5FF01002000FEF765FCDE2107
:10B000002800FF3118F078F80378022B00D135E7DB
:10B01000DE214288FF31206B19F0EBFD23E7C046AB
:10B02000873E02007B3E0200F8B5164B0400A833B1
:10B030001B681600002B24D1056901226B1C0361DB
:10B040002B0019F096F8BE210700FF31206B19F094
:10B05000FDFD3100380018F03CFB061E09D1390017
:10B060002000FEF731FC330032000121206B1AF082
:10B0700038F90121206B1AF054F92900206B19F0DE
:10B0800064FEF8BD7C2E0020F0B585B005000E00F2
:10B090000192FEF719FC03780400A22B03D101A949
:10B0A0001AF098FF0400EB6A1B78072B00D070E0C1
:10B0B000337872780A3B1B021343504A934268D19B
:10B0C0002378472B65D120001AF0BFFF002860D0FD
:10B0D000DE212800FF31FEF7E5FB0121EA6A936AD1
:10B0E000928C002A06D1464A21002800FEF7B2FCC5
:10B0F00005B0F0BD5878084211D059682800FEF715
:10B10000D1FB019920001AF04FFF02280ADC00232E
:10B11000286B1A0002211AF0E4F8200036E0013A08
:10B120000833DEE720001AF04BFF0378492BEED1FD
:10B1300020001AF045FF1AF043FF0378472BE6D1B1
:10B1400020001AF03DFF07001AF03AFF0600380011
:10B150001AF03BFF03A918F0C7FA03990122286BE4
:10B1600019F0A6FE30001AF070FF0021884203D1CA
:10B1700030001AF02AFF0100002301222800FFF707
:10B1800041F920001AF01CFF1AF01AFF1AF018FFFC
:10B190000400019BA342ABD020001AF011FF019BD9
:10B1A0000600834224D02378492B21D10378472BF2
:10B1B0001ED120001AF009FF070030001AF045FFE9
:10B1C0000024A04203D130001AF0FFFE040003A9BE
:10B1D000380018F089FA00220399286B19F068FEEC
:10B1E0002800002301222100FFF70CF93000CDE7F1
:10B1F00021002800FEF768FBCAE7C046C70200002E
:10B20000CF350300F0B59BB01500069038220F0033
:10B210000CA800211E001DF0BBFD069B0BAC5B685B
:10B220000B97236201235B421193069B26711868DA
:10B230001AF0C6FE1AF098FE606280001BF02FF82C
:10B240000022A06200950025069B11001B682000CB
:10B2500018F05CFA19F077FC2B000390206304953A
:10B26000626A0792954202D2A268002A41D0002B5E
:10B270005DD10593059A079B934202D00D9A002A4F
:10B2800058D00499039819F063FC0025149A0D9B7B
:10B290000592954200D213E1002B0CD0169B0EA80C
:10B2A000996818F0BEFC169B0E9A0493DB890B99E3
:10B2B0000D98FDF763F9039819F052FC18980028CF
:10B2C00001D017F057FC002406981AF0C8FE159B11
:10B2D0001B681D69149B159803939C4200D219E1C9
:10B2E0001AF0FAFF0D99002900D11BE1080001F0C6
:10B2F000F5F9A16AAA005658002E13D03269002A27
:10B3000010D117F0AAFB737D3061012231002000BB
:10B31000042B09D1FEF7BAFB2369049A9A4200D2A2
:10B320000493012301359BE7FFF780FDF4E7002339
:10B330001D0095E70599159B8900CB58002B37D048
:10B340000120998C8C46197D01421BD06446601EF9
:10B35000C000002C16D00226996A09184D78354293
:10B3600029D0002A0ED00F00508816780890506817
:10B370005578099011CF11C2089A0E704A80099A27
:10B380004D704A600021DE249983FF348C451ADC1D
:10B3900000218C4535DC5E68002E09D00021B28C7E
:10B3A00009920A00099881423BDB0020824263D166
:10B3B000059B01335DE7002A02D1012D00D10A006F
:10B3C000013C0838C5E7986ACA0082181878012835
:10B3D00004D15068A04208D10131D7E7157801287F
:10B3E00003D9002D01D1012010701078022803D05C
:10B3F000012550782842EFD0988B451C9D835080C2
:10B40000EAE7986ACA0082181078032807D1012455
:10B410005078204203D1988B5080001998830131D5
:10B42000B7E7B06ACD0040190890007803380128CA
:10B4300012D800240EE09F6AE00038180778042F25
:10B4400007D1089D6F683D004768BD4201D1428029
:10B4500001320134A445EEDC0131A3E79C6AC1004E
:10B4600061180C78042C03D101254C782C4202D0B1
:10B470004C88A4184C8001308445EFDCD98A92B204
:10B480005118D982998B52189A8391E7039B022213
:10B4900021000BA81793FFF7C9FC0D9B0593002B08
:10B4A00004D1032221000BA8FFF7C0FC0D9B0593DC
:10B4B000002B2DD1042221000BA8FFF7B7FC27E0B9
:10B4C000002B00D0EAE6159B0593059AAB009C582B
:10B4D000002C1DD0637D042BD8D1189B0593002B25
:10B4E00004D10499139817F02EFB1890002317939A
:10B4F0000F4B032221000BA81993FEF7C7FA0D9BEF
:10B500000593002B04D1042221000BA8FEF7BEFAFC
:10B510000135BBE6A3001858002801D017F0E3FD61
:10B520000134D7E60A00280017F0A3FA1BB0F0BDDB
:10B5300018980200F8B5124A0E00124B12499042B8
:10B540001AD0C4688C4203D0012430602000F8BDBA
:10B55000406B002812D004689C42F0D10500002402
:10B5600047680835BF00EF19BD42EFD2310001CD69
:10B57000FFF7E0FF2418F7E70024E7E70400E5E71A
:10B580000CB202000CA002007DB60000F7B5050069
:10B590000C00AB68002B0AD0344AE168914206D017
:10B5A000E358002B03D00422EB681A60F7BDA06BB0
:10B5B000002820D06B680430D900062300221943EC
:10B5C000FDF7DAFA002816D0297C4268EB68286873
:10B5D000002904D00100002001F0F0F9E6E700287E
:10B5E00007D02249E5688D4203D021498C4200D022
:10B5F00000692100F0E72B68002B16D1646B002C4A
:10B60000D4D01C4B22681A4F9A420BD12600636893
:10B61000194A08369B189B00F3180193019B346864
:10B620009E4216D3BC42B4D1C0E72A7C002AE5D1A1
:10B630000E4AE1689142E1D00D4A9442DED0186989
:10B64000EA68696801F014FAEB681B68002BD5D032
:10B65000ACE7BC4201D10436E0E721002800FFF747
:10B6600095FFEB681B68002BF5D09FE77DB60000C7
:10B670000CB202000CA00200FFFFFF3FF0B58FB03C
:10B680000E0005A9019202930700FFF753FF041D66
:10B69000A40020001AF0F1FD0500002180C017F081
:10B6A000ABFE22002800103A103000211DF070FB84
:10B6B000012E05D1029B1B680393042B00D189E066
:10B6C00007AC0822002120001DF062FBF2220023BB
:10B6D00009A8FF324260E63AFF3A39008260C4604E
:10B6E00003740993FFF752FF079804282FD1059898
:10B6F000029BC468019A3100A04728612800F7F72F
:10B70000D5F8B84266D1EA220023FF32390009A8F1
:10B71000089307930B9309950A92FFF737FF079B4E
:10B72000002B57D00198304336D107AA010019F0F9
:10B7300029F90400294B9C424CD0200016F05BFFF5
:10B74000274902002748FCF7ADFE00F0C7FF00289C
:10B75000D4D0019A324306D106AB0121069701F0FD
:10B760000FF90500CAE7019B5D00AD190135AD0079
:10B7700028001AF082FD2A1F0390029980C01DF054
:10B78000EBFA711C039B019A206801F0F9F805009F
:10B7900003981AF0A1FDB1E7019B5C00A4190234E3
:10B7A000A40020001AF069FD22000700079B0299FF
:10B7B00003600393089B083A436008301DF0CCFAFD
:10B7C0003A000199300019F0DDF8040038001AF051
:10B7D00083FDAFE728000FB0F0BDC046A4B3020060
:10B7E0006339030050AC0200F0B5146889B017004B
:10B7F000002C0ED1436803AD82686960596B0392D7
:10B80000AC60EF602C74002905D111492800FFF7C6
:10B81000BDFE09B0F0BD0F4B0A689A4210D14B68CB
:10B8200008310E000193019B9C42EED0A300F15819
:10B830002800FFF7ABFE3B68002BEAD10134F2E7AA
:10B840002800FFF7A3FE3B68002BE2D1DDE7C046EE
:10B850000CB202000CA0020010B54A6801491BF0AE
:10B86000BDFA10BD5D3A0300F0B58BB005000E00C7
:10B8700014000021082268461DF08AFA00211022D7
:10B8800006A81DF085FA202307936B4605950893BB
:10B890002968E023002C02D0042C10D1E623FF33CA
:10B8A00005A80693FFF772FE0221009F042F0ED118
:10B8B000220031002869F7F769FA0BB0F0BDFC23CC
:10B8C00005A85B000693FFF761FE0321EDE7381E34
:10B8D000F3D002AB002202950396049401F050F8D5
:10B8E000042CEAD00048E8E7A4B30200F0B5204BEE
:10B8F0008BB08200D35803AF0C0008220021060051
:10B90000380001931DF044FA019B05AD6B601423D0
:10B91000AB600023280021680594EF602B74FFF7CB
:10B9200035FE0398042805D12169300000F0B6FFE8
:10B930000BB0F0BD00280AD0210019F01BF8022E30
:10B94000F6D1F7F7C7F8440001202043F0E7022EB4
:10B9500001D00020ECE7E2232168FF3328006B6070
:10B96000FFF714FE3B68002BF3D16400ECE7C04600
:10B9700054B80200F0B55642564103238BB00C0078
:10B980000190002117007642082203A81E401DF0F6
:10B99000FFF90823079303AB0893002305ADF7369F
:10B9A000FF36216828002B7405940696FFF7EEFDFC
:10B9B000039B002B09D1002F07D1F733FF332168F8
:10B9C00028006B60AF60FFF7E1FD039804281AD1EF
:10B9D0002069F6F76BFF154BC2689A4211D1002F10
:10B9E00007D02368586819F0A9FF010001981BF0DF
:10B9F00034F980223A4321690198F6F76FFF0BB0C2
:10BA0000F0BD3A00F7E7002805D0210018F0B2FF9A
:10BA100000220100F0E7200016F0EDFD23000200F7
:10BA2000034901981BF0DAF9E9E7C0466583000095
:10BA30001239030070B504000D000B491BF00DF91D
:10BA4000696800222000F6F749FF084920001BF032
:10BA500004F9A96800222000F6F740FF04492000FD
:10BA60001BF0FBF870BDC0461B3A030005FC02004A
:10BA7000683A030010B5C468002C06D14268044936
:10BA80000448FCF70FFD00F029FEA04710BDC0469A
:10BA9000243A030050AC0200F0B5154B89B01600F3
:10BAA0008200D5580C000C220021070068461DF0CA
:10BAB0006FF9182303A84560836000256B46216851
:10BAC000C36003940574FFF761FD009B042B06D14E
:10BAD00032002169380001F081FC09B0F0BD181E68
:10BAE000FBD06A4629000120029618F04BFFF4E7CC
:10BAF000CCB60200F0B51700EE228DB0040003931F
:10BB0000002307A852004260CD3A05ADFF3A0E006F
:10BB100021688260C560037405936B600794FFF72A
:10BB200035FD0598002809D1200016F064FD0C4968
:10BB300002000C48FCF7B6FC00F0D0FD039B042883
:10BB400006D13A003100206900F01AFF0DB0F0BDB7
:10BB5000009332003B00696816F056FEF6E7C046D7
:10BB60004739030050AC0200F0B50D0085B001A9C3
:10BB700007001600280002AA17F039F900230199DE
:10BB8000029899422CD13C201AF089FB2A4B019A49
:10BB900003602A4B04008360294B4760C360294B34
:10BBA0000361294B4361294B8361294BC361294BB5
:10BBB0000362294B4362294BC362002A06D0029BD1
:10BBC0001968096B0163012A18D94563A66303A9A3
:10BBD0002000FFF7AFFC012813D9214801F0BAFD7E
:10BBE0009A008258D468002C06D152681D491E481C
:10BBF000FCF758FC00F072FD0133C2E71B68436399
:10BC0000E4E7A36B0022181D1849FCF7B5FF051ED9
:10BC10000ED0032243681A400AD11968144B4968B0
:10BC2000994205D1031D0121124818F077FD686083
:10BC3000200005B0F0BDC04618B8020075B900007C
:10BC40007DB60000F5BA0000EDB8000099BA00001A
:10BC50008F46020069B800000F480200C547020085
:10BC6000ED390300C439030050AC02008E0F000010
:10BC700045020000A0B7020037B50D001C000023EC
:10BC80001100009301220333280006F015FB012D5B
:10BC900004D0032D06D0074801F05CFD2068F6F7BC
:10BCA00005FE3EBD2068F5F775F9A2686168FFF7EB
:10BCB0005BFFF6E7413A03001FB5064B0A0001930C
:10BCC0004B6802938B68010001A8039300F002FF08
:10BCD00005B000BDDCB70200F8B50E00032713491C
:10BCE000134AB0421CD003003B401BD104688C4275
:10BCF0001AD1406B002814D003689342F1D105009B
:10BD000044680C4B0835E418A4002C192868A54297
:10BD1000E5D23100FFF7E0FF002802D10435F5E756
:10BD20000120F8BD0020FCE71800FAE718B802006F
:10BD30000CA00200FFFFFF3FF0B585B005000191A8
:10BD400008008B0717D10B68134A93420BD10123CC
:10BD5000029301AB03930024029E039FA6420DD1E0
:10BD60000E4805B0F0BD0E4A934204D103AA02A9C1
:10BD700017F03DF8EFE70B4801F0ECFCA300F95891
:10BD8000094B994206D02800FFF7A6FF002801D1F1
:10BD90000134E3E70548E4E718B8020084E702004D
:10BDA0000CA002008B3903000CB202008CE70200E9
:10BDB00010B5830703D1054B02689A4202D00448AC
:10BDC00001F0C8FCFFF7B8FF10BDC04618B802006C
:10BDD00024390300F0B58BB0079310AB10CB009063
:10BDE00001911B78062A12D8012A08D93F230B702B
:10BDF0000B0001330193002301990B7001E0002A2D
:10BE0000F9D101209042804140420BB0F0BD009931
:10BE1000002929DA019B01995F1C2D230B708021D9
:10BE200009068C46009B63440093019BFF21099304
:10BE3000009BC90518000840884222D120234E21CA
:10BE4000079AF81C1A4013001143009A540212D1A9
:10BE500049225A403A70462253407970BB70002301
:10BE6000FB70019BC01AD0E7019F002BDDD0390089
:10BE700001370B70D9E74124634039707B70B9708A
:10BE8000EDE7002C00DA06240199013A7D1A551BD2
:10BE90002022079911430291672940D1002C00D13B
:10BEA000CEE1002B79D0A64A934200D9D4E0A5492F
:10BEB00000980EF005F9431E98410023002630300B
:10BEC00003932033059004939F4B039A0099D05815
:10BED0000EF0ECF8002808D0049B039AF6189B4B50
:10BEE0000098D1580EF062FD0090049B5B10049303
:10BEF000039B04330393182BE6D115330393009A65
:10BF00008F4B93425DD38F4900980EF0D9F80028EB
:10BF100051D0002E7CD0FE239B05009351E0002BD6
:10BF2000C1D1029B662B38D1631CAB4200DBAC1E37
:10BF3000029B651C049300231E0003930593E343B7
:10BF4000DB171C40049B652B00D0EEE0651C002332
:10BF50000693069B9D424CDD00980FF033F87B1C46
:10BF60000893030030333B70059A069B934205D13A
:10BF7000002C03D0BB1C08932E237B700FF042F8DB
:10BF8000011C00980EF044FE71490EF00FFD069B57
:10BF9000009001330693089FDBE7631DAB4200DB93
:10BFA000AC1F029B652B00D1AFE0002504930395E5
:10BFB00005952E00C3E7009865490EF0F7FC0136A1
:10BFC0000090029B662B03D0672B39D1042E37DCFF
:10BFD000059B3B70029B672B01D1731EE418631C09
:10BFE000AB4200DBAC1E002C15D166230137039455
:10BFF0000493029B662B00D0B0E0012E00DDDDE053
:10C00000544900980EF05CF8002800D0ACE0D5E070
:10C010002B2303937FE72E23250030227B70BB1C4C
:10C02000013E1F00002E76D0002D05D1039501237F
:10C030005B42059367334DE01A70013D0133EFE732
:10C040006B1FA3426CDC029A672A66D01300AC1FF8
:10C0500000250493059572E70023002603932033FF
:10C0600004933A4B039A0099D0580EF015F8002823
:10C0700008D0049B039AF618334B0098D1580EF061
:10C0800095FC0090049B5B100493039B0433039383
:10C09000182BE6D12E4900980EF012F8002805D092
:10C0A00000982D490EF082FC01360090029B662B11
:10C0B00012D1AE4214DAA3190133AB4204DBAC1B3C
:10C0C000023C631C00D10024002335190393013581
:10C0D00005966633049332E7029B652B00D0B1E0EE
:10C0E0006B1FA34200DCAC1F2B2300250393059597
:10C0F0003A33EFE7231DAB4200DB6C1F029BA642E5
:10C1000000DBA3E0731CE41ADEE7029B0025049326
:10C110002B2303934CE7039689E71C00029B97E7C8
:10C120000025029B059504930CE7049B672B00D028
:10C130000DE7251E00D00AE701252C0007E7C046C1
:10C14000FFFF7F3FF8FF7F3F70B8020088B8020012
:10C15000000020410000A040CDCCCC3D3E490098DD
:10C160000DF0AEFF002824D030217B1E1A782E2A35
:10C170004FD010003038092842D901330193019B78
:10C180001B78302B15D1019A52782E2A45D104996B
:10C19000662942D001994B70039B0A702D2B3AD12E
:10C1A000013E002E3BD03B00019A9A423AD3312304
:10C1B0001370029B672B01D1002C39D1039B002BFC
:10C1C00019D02022079B0A2113401A00452313434C
:10C1D0003B70039B30007B700DF018FE0A210DF0C0
:10C1E000FBFE3031B97030000A210DF0F5FE3C1D28
:10C1F0003031F970270000233B70099BF81A04E6E0
:10C20000392A02D001321A70B8E7019A19709342A4
:10C21000B5D0013BAAE70136C5E70137C3E72B23B9
:10C220000393C0E75A1E117819701300BCE71F0072
:10C230007B1E1A78302AFAD02E2ABFD11F00BDE704
:10C2400001242EE6029B672B00D153E704932B2396
:10C2500000250393FEE6C0460000A040F8B50700A5
:10C2600008680C0016F00AFE05006068F6F744FD49
:10C270000600022F0AD9A068F6F700FC0200310080
:10C28000280018F020FB19F0FFF9F8BD004AF6E786
:10C2900040420F00F0B5486887B00F00F6F7EEFB9C
:10C2A000041E02DA002001F091F8BB68164A0193DF
:10C2B0009D186B1E9D41010002A81AF019FF049EF3
:10C2C0002200002130001CF063FD3868EDB2C30786
:10C2D0000AD433002200290019F0A3F902A90B485F
:10C2E000F4F700FE07B0F0BD43102000042C00D985
:10C2F00004200749019F00228F4200D0221AB21861
:10C3000029001AF0E5FBE9E75AECFFFF6092020012
:10C31000A6130000F0B50C0087B0012203A96068E5
:10C32000F6F766FDA3681349039A8B420DD10126E7
:10C33000049976424C1E01911419049900200D00B5
:10C34000002D05D119F0BBF90DE014000126F4E72A
:10C35000094F013DB84208D908481B18581E8341AF
:10C36000D8B219F04FF907B0F0BD27780002384372
:10C37000A419E5E7A6130000FFFF3F005AECFFFFFA
:10C3800070B546007508041C291C281C0EF004FE1C
:10C3900000280BD11649281C0DF088FE002808D073
:10C3A0001449154816F022FF00F098F9134801F0DF
:10C3B0000DF8002C11DA002E12D0FF23DB05E31854
:10C3C0009C22D20593420BD903F03EFA211C0500B2
:10C3D000043015F095FA280070BDE30DDB05EFE79A
:10C3E000201C0EF0EFFD012540000543F3E7C04699
:10C3F000FFFF7F7F7A3A030024AB0200933A0300E9
:10C40000F0B50C00002585B0110020001E0000953D
:10C4100002232A0005F050FF0120AC422BD08442B9
:10C4200031D13068204226D103230340AB4203D1EF
:10C430001C4A016891421ED01B4A0240062A06D0BF
:10C44000002B0DD10268194B92699A4208D103A9B9
:10C45000F5F7D6F900231A000399F6F77FF80AE0FA
:10C46000032302001A40022A07D1FF22D2058018B6
:10C470009843FFF785FF05B0F0BDF6F7FFFA0123FB
:10C4800040001843F7E703A93068F5F7B9F904004D
:10C490007068039FF6F7F2FA2B00020039002000C3
:10C4A000DBE7C046ECB80200070080FF9D1D0000DE
:10C4B000F8B51F000B4B15005918013909780DF01C
:10C4C0001BFC00260400B74204D0013003210DF00C
:10C4D00013FC0600281E01D01CF0AEFC0334A41986
:10C4E0002018F8BD6A3A0300F0B58DB00A9214AA7C
:10C4F000147815AA127806000F000792DA0742D5C1
:10C500005D100023002D01DA2D236D420693139A4E
:10C51000079B12992020FFF7CBFF3B6805908342D1
:10C5200004D219F0AAFE059B30603B6000213768F9
:10C53000059BFB185A1E11708D4240D00A3C09928F
:10C5400008920B94129928000DF05CFC0B0030331C
:10C55000092901D90B9B5B18089A541E2370079B6D
:10C56000002B48D000282DD0A7422BD2099B1B1BA3
:10C57000032B05D1079B013C2370A74222D20994CB
:10C5800005000894DEE79A0712D1244A19689142FF
:10C590000ED1079A02940392139A39000192129ACB
:10C5A00000920A9A19F004F8040020000DB0F0BDC2
:10C5B0000023326813700A9A34681360F5E79C1EF2
:10C5C00030232370139B002B05D018001CF034FC83
:10C5D000201A87421FD3069B002B04D0BC4202D9ED
:10C5E000069B013C23703368059A9B181B1B0A9A13
:10C5F000013B1360D9E7A742E4D20028C0D1E1E7AC
:10C60000C2540133139AD25C002AF9D1069B04006C
:10C61000002BE5D1E7E70023F4E7C046ECB80200C1
:10C620001300144A10B50400934204D101222000E3
:10C6300000F0D4FE10BD104A934201D10322F6E768
:10C640000020072CF6D10D4A1A40062A0ED09A0770
:10C65000F0D11A680A4CA24208D00A4CA24205D076
:10C66000094CA24202D0094CA242E3D10A000720A1
:10C670001900DDE784E702008CE70200070080FF75
:10C68000CC990200609202000CA0020048E7020070
:10C69000C4600561466187614146C16149460162E6
:10C6A00051464162594681626946C1627146816064
:10C6B00000490847BDC600000020C046024B9A68EA
:10C6C00002609860002070477C2E0020024B9A6820
:10C6D00012689A607047C0467C2E00200E4A93680C
:10C6E000002B01D116F08EF8196858609160181C63
:10C6F000C468056946698769C1698846016A8946CF
:10C70000416A8A46816A8B46C16A8D4681688E4637
:10C7100001207047FEE7C0467C2E002070B504F073
:10C720008DF90F4C0F4B0025A3620F4BE56263633D
:10C7300023002563A83303210C481D60A56403F082
:10C740003FFC0B4E0121300003F03AFC3000094A57
:10C75000094919F075F826606660E56570BDC04648
:10C760007C2E0020BCA9020004A00200B42E0020F0
:10C77000C82E0020760F0000860F000070B506243A
:10C78000134EC3001C437368002205002100181DCE
:10C79000FCF7F2F9021E18D1F06D002807D0043022
:10C7A0002100FCF7E9F9002801D0406870BD0022A3
:10C7B00021000848FCF7E0F9021E06D12A000649CC
:10C7C0000648FBF76FFEFFF789FF5068EEE7C046AB
:10C7D0007C2E0020289D0200A63B030070AA0200C8
:10C7E0000A4B10B5040018685B6898420AD006210D
:10C7F000E300194304300022FCF7BEF9002801D001
:10C80000406810BD2000FFF7B9FFFAE77C2E00203A
:10C81000074B10B5D86D002801D1064810BD043073
:10C8200000220549FCF7A8F90028F6D04068F5E792
:10C830007C2E0020F09B0200DE0E00000A00C100EA
:10C84000062010B5024B0143186818F0F9FF10BD1F
:10C850007C2E0020062110B5034BC0000143186850
:10C8600018F0F8FF10BDC0467C2E00200A00C10061
:10C87000062010B5024B0143586818F0E1FF10BDC7
:10C880007C2E0020062110B5034BC00001435868E0
:10C8900018F0E0FF10BDC0467C2E002037B5050023
:10C8A0000C00062806D10800F6F726FA00280DD05D
:10C8B0002C483EBDCB071BD54B10042816D80DF0D5
:10C8C00007FA03154E4E0700002BF1D02648F0E77B
:10C8D000C0221206934204D18020C00518F0D4FE75
:10C8E000E7E75B425B0001201843E2E7DB43F9E73F
:10C8F00002281AD11D4B0B40062B08D08B0714D1F0
:10C900000A681B4B92699A420FD1486802E0C80836
:10C9100019F00AF8002806D101A92000F4F752FB0B
:10C92000019904F079F84300DDE72000F5F7BEFF38
:10C930004369002B0DD10F4BAD002000ED5815F0D1
:10C940005AFE2A0003000C490C48FBF7ABFDFFF729
:10C95000C5FE2100280098470028AAD1EBE708006F
:10C96000A7E7C04684E702008CE70200070080FFCB
:10C970009D1D000054B80200323C030050AC020080
:10C98000F7B50400019116001F00F5F78FFF056948
:10C99000002D09D1200015F02EFE064902000648A0
:10C9A000FBF780FDFFF79AFE3B0032000199200063
:10C9B000A847FEBD4739030050AC0200F8B50E0091
:10C9C00015001C00930714D113681E4A934202D12C
:10C9D0006B682360F8BD1C4A934207D1002802D03F
:10C9E000F5F764FF06006B6848C4F3E7174A934203
:10C9F00001D12560EEE75A68022117008F431449E0
:10CA00008F4202D013498A42F3D1002817D1124A2B
:10CA100093420BD0114A934208D0114A934205D059
:10CA2000104A934202D0104A934208D10C2019F0C8
:10CA300024FC0E4B4660036085602060CAE72560D9
:10CA40006060C7E7A0B7020064B7020018B8020030
:10CA5000450200001A020000FCE9020038EA020068
:10CA600074EA0200B0EA0200ECEA020030B9020007
:10CA7000F8B500231360536006000D001400F5F7AD
:10CA800015FFF92307005B009D4205D1836A002B47
:10CA900002D00F4B48C4F8BDFB69002B04D0220024
:10CAA000290030009847F6E7B86B0028F3D006213C
:10CAB000ED00294304301A00FCF75EF80028EAD0A4
:10CAC0004268230039003000FFF778FFE3E7C046F3
:10CAD000B89C020070B5160004000D00FFF7C8FFF7
:10CAE0003368002B15D10B4EA3070BD10A4B2268DC
:10CAF0009A4207D12B00626808493000FBF7D2FC4C
:10CB0000FFF7ECFD200015F076FD2B000200044934
:10CB1000F3E770BDA0A7020018B80200BF3B0300F6
:10CB2000E63B030073B504000D001600F5F7BEFEEA
:10CB3000C369002B09D004220196009229006A469D
:10CB400020009847009B002B0AD0200015F053FDD1
:10CB50002B00020003490448FBF7A4FCFFF7BEFDCD
:10CB600073BDC046E63B0300A0A7020073B50400F6
:10CB70000D00F5F79BFE174B426A06009A4226D03D
:10CB8000002D03D1102019F078FB0500736A002BEB
:10CB900012D1E6216A46FF312000FFF769FF009BB2
:10CBA000002B0FD1200015F026FD0B4902000B4889
:10CBB000FBF778FCFFF792FD29002000984700283A
:10CBC000E7D076BD29006846FCF742FDF9E7200072
:10CBD000F7E7C04623260200553B030050AC020095
:10CBE00037B50400F5F762FE856A002D02D02000FB
:10CBF000A8473EBDF9216A4649002000FFF738FFEB
:10CC0000009B002B05D06A462900280017F0BAFEC9
:10CC1000EFE7200015F0EFFC034902000348FBF7A3
:10CC200041FCFFF75BFDC046873B030050AC0200B0
:10CC300030B505008FB003F0A3FE2800F5F736FEEF
:10CC4000846A002C05D02800A047040020000FB003
:10CC500030BDF9216A4649002800FFF709FF009B13
:10CC6000002B16D002A8FFF713FD002807D16A4653
:10CC7000010017F087FE0400FFF728FDE6E7039B9D
:10CC800008491868FFF728F80028DFD10398FFF754
:10CC900025FD280015F0AFFC034902000348FBF70F
:10CCA00001FCF4E79CAB0200873B030050AC0200A0
:10CCB000F0B513688FB00793002800D073E004002C
:10CCC000131D0393FF220B00090A13401140019327
:10CCD0004B000693069A019B05919B18039A9B00B3
:10CCE000D2580492039AD3185F68381E09D00020E6
:10CCF000BB0706D1944B3A689A4202D1380018F02B
:10CD00009CFD059B1818049B4600002B50D1019BED
:10CD1000581C83199800009319F0AFFA26000500FB
:10CD2000002C01D001260460019BB0009A00281855
:10CD300003991CF011F8019B9B190293029B980028
:10CD4000059B2818DA00019B9900039B59181CF0D9
:10CD500003F8029A069B944663440193002F12D075
:10CD600003243C4000D0A9E0774B3A689A4200D0B7
:10CD7000A4E0380018F079FD0323060000937368DF
:10CD80009C4200D27DE0019B029A02999A1A5208B5
:10CD90002B000798FFF7F4FD0400280019F09CFA17
:10CDA00020000FB0F0BD130008330393546889E7E7
:10CDB000049B9B072FD1049B644A1B68934202D0BB
:10CDC000634A934227D10AAA09A90498F5F7F8FE05
:10CDD000099B581C019BC01883199800009319F0F7
:10CDE0004CFA26000500002C01D001260460019BAE
:10CDF000B0009A00039928181BF0AEFF019B0A9916
:10CE00009819099B80009A0028181BF0A5FF019B28
:10CE1000099A9B1890E7019B181D831998000093AD
:10CE200019F02BFA26000500002C01D00126046021
:10CE3000019BB0009A00039928181BF08DFF019BFD
:10CE40000AA99B1904980293FFF790FE029B049095
:10CE50009C000498FFF7ECFE061E00D16EE7009BD5
:10CE6000029A934207D8D900280019F024FA050045
:10CE7000009B5B000093029B2E510133029304340C
:10CE8000E7E7B368E700D859002815D0042813D085
:10CE9000009B184205D12F4B02689A4201D115F030
:10CEA0009EFB019B019A9B00E85002320192B268FE
:10CEB000EB18D7197A685A60013460E70AAA264944
:10CEC0003800FFF707FE00210AAA080017F05AFDF4
:10CED0000021FFF74BFE019B03909E000398FFF794
:10CEE000A7FE041E00D14EE7019B009A01339A422F
:10CEF0000BD853000093042B01D204230093009B12
:10CF00002800990019F0D7F9050003231C4207D126
:10CF1000104B22689A4203D1200015F060FB0400F8
:10CF2000E6210AAAFF313800FFF7D4FD0AAA002142
:10CF300001200C9417F026FD019BAC5102330193A4
:10CF4000AB1958600836C9E734C202000CA00200D1
:10CF500048E70200CC9902006B02000070B50C009B
:10CF600086B0160083071CD10368204A934202D082
:10CF70001F4A934215D102AA01A9F5F721FE019B90
:10CF8000A3422CD31BD80023029DA000A34201D1B1
:10CF900006B070BD9900421A043AAA580133725083
:10CFA000F4E702A9FFF7E2FD002305000193019BCE
:10CFB0002800A34206D3FFF73BFE0028E8D022005A
:10CFC0000C490EE0FFF734FE002808D0019A0A4908
:10CFD000A31A5B189B00013298510192E7E7019A6E
:10CFE00006490748FBF75EFAFFF778FB0CA0020042
:10CFF00048E70200733C0300FFFFFF3F503C030083
:10D00000C8AC0200F7B5FF240E00090A264015003F
:10D010000C40830731D10368384A934202D0384A22
:10D0200093422AD101AA6946F5F7CAFD009833193F
:10D0300083425BD883009C46002301999A00A34257
:10D040000FD1B400801B0919C01AAD1819F0ECFCFF
:10D05000019B28601C190023013601339E4207D131
:10D06000F7BD6746BF1A043FCF590133AF50E5E71C
:10D070009A0051426158A950EFE70021FFF776FD71
:10D08000002307000093009BB34218D3002108003F
:10D0900019F0CAFC06003800FFF7CAFD011E1BD1BB
:10D0A000B168A14222D3A3008A00EB181E60AA181F
:10D0B000091B9D4214D1300019F0D2FCD0E7380092
:10D0C000FFF7B6FD002811D0009AB31A1B199B0078
:10D0D000013258510092D6E7300007F07DF8DAE7C8
:10D0E000F468D01A2058043B1860E2E7009A05491A
:10D0F0000548FBF7D7F9FFF7F1FAC0460CA002008C
:10D1000048E70200503C0300C8AC0200F0B591B003
:10D110001D0006000C001700F5F7C8FB334B9842C2
:10D1200007D12B003A002100300004F0E3FA11B0DF
:10D13000F0BD826A2E4B002A08D09C4230D13000CC
:10D14000904728600028F2D00120F0E79C4227D1C8
:10D15000F92101AA49003000FFF78AFC019B002B4E
:10D160000DD1D72101AA49003000FFF7B3FC039489
:10D1700001AA0021012017F005FC2860E4E704A8BB
:10D18000FFF786FA002807D101AA010017F0FAFB81
:10D190002860FFF79BFAD7E7059B2B600220C6E7C4
:10D1A000002CDED13800F5F781FB1249FEF794FD23
:10D1B00001AA00280ED010493000FFF759FC019B4E
:10D1C000002B10D001AA2100200017F0DBFB286003
:10D1D0002000ACE709493000FFF74AFC019B002B17
:10D1E00001D00397C4E72F60D8E7C046F4D102000E
:10D1F000A4B3020090A8020019020000CD020000B2
:10D2000010B50400FBF794F9002808D00023200093
:10D210001A001900FFF7B4FB0400200010BD200025
:10D2200015F0E8FF0028F8D10249034815F0DEFFA9
:10D23000F2E7C046083C030050AC02007FB5C300D3
:10D2400006201843054B01900491052001A9029383
:10D2500003930592FAF72AFB07B000BDA4B30200BE
:10D260001423F0B58DB000AFFA1805000C00FFF7DD
:10D27000FFFBBB69002B06D022002C492C48FBF792
:10D2800011F9FFF72BFA786900284CD1280015F026
:10D2900049FE0028F0D01423F821FA18280049008C
:10D2A000FFF7E6FB10227869B918F4F7A9FAB8601D
:10D2B000200018F03EFB6A463E69B968731C7B602B
:10D2C000C318FB600E33DB08DB00D31A9D466D46A6
:10D2D000320028001BF040FD2E23AB557B68200058
:10D2E000EB18BB6018F02AFB0600200018F021FBA9
:10D2F00031000200B8681BF02FFDF968280003F028
:10D30000DBFBC300062018430A4B10223B627B6202
:10D31000094BBA18BB620123FB620B33F861D118C9
:10D320000520FAF7C3FABD460DB0F0BD713B03000E
:10D33000CCA80200A4B302008CE70200F0B5174CA1
:10D340000F00616895B003912168060008A8049158
:10D3500062602360FFF79CF9051E06D0039B0998C5
:10D360006360049B2360FFF7B9F933683A0031002A
:10D3700005A8019304F06EFC2B002A00019905A872
:10D38000FDF740FF17F0EFFA0500FFF79FF92800BF
:10D39000039B6360049B236015B0F0BD7C2E0020CE
:10D3A00010B5040000F004FD031E054802D0054935
:10D3B00017F024FB22000449FBF774F8FFF78EF9FD
:10D3C00034AA0200C43A0300ED3A0300010010B58C
:10D3D000014817F013FBC046C8AC0200F0B58BB093
:10D3E00004900F000392202803D191420FD0AF4E3A
:10D3F000BFE0049B1B2B01D01E2B0DD103993800DD
:10D40000F5F7EAFA049B002803D01B2BEFD1A84EB6
:10D41000AFE01B2BFBD1EAE7049B212B3FD1039804
:10D42000FBF786F8002806D00399380015F0E8FECF
:10D430000028ECD1DBE70324039B1C4005D1039AB1
:10D440009C4B126805929A4223D0049B9A4A9B00F7
:10D4500038009C5815F0CFF80500039815F0CBF86C
:10D460002B000090220095499548FBF71BF847E1F7
:10D47000039AA300D3189D682800FBF759F80028E9
:10D4800000D158E12900380015F0BAFE0028BED1BD
:10D490000134039B5B680593A342E9D8A7E7012603
:10D4A000314200D116E1039B4D101E4000D1E7E050
:10D4B0005C10049B1D2BC8D818000CF013FC1E0038
:10D4C00028002A002D0045004C004E0050005D0051
:10D4D00066007B008300B4001E0028002A002D0097
:10D4E00045004C004E0050005D0066007B0083004C
:10D4F000CC00D000C6FFD400D80025432E00700019
:10D500000300734000D5B6E00126064331E06540D4
:10D51000F4E72C402600F2E7002C02DA6948FFF716
:10D5200055FF1F2C08DC684B2341AB4204DBC023B2
:10D530001B062341AB4205DDE917280018F095F8DA
:10D5400007004BE0A540D9E7002CE7DB1F2C00DDEE
:10D550001F242541D2E72E19D1E72E1BCFE721004A
:10D560002800FAF751FC0028E6D1012665436D003A
:10D570002E4330000BB0F0BD002C00D1DDE02100C7
:10D58000280015F061FD0600B9E7002C00D1D4E0B9
:10D5900028000DF037FD051C20000DF033FD011CA7
:10D5A000281C0DF02BF8032302269843474B064313
:10D5B000F618DEE7002C00D1BFE02100280015F0AE
:10D5C00033FDE0E72F00002C2ADA28000DF01AFDC9
:10D5D0000323022798433D4B0743FF183800F5F714
:10D5E00065F98369002B00D12FE7039A390004986D
:10D5F000984756E001231C4206D039003000FAF764
:10D6000003FC002898D17E43012C00D177E7390034
:10D6100038006410FAF7F8FB002800D08CE77F434D
:10D62000002CE7D16BE7002C00D186E0002102201E
:10D63000F9F720F821000600280015F005FD012764
:10D6400040003843B0602100280015F0EDFCB840E0
:10D650000743F7608DE7A54200DAD8E6C7E6A542A2
:10D6600000DDD4E6C3E6A54200DCD0E6BFE6A54275
:10D6700000DBCCE6BBE6300018F006F8060078E7E1
:10D680000323039A1340022B24D1114B1340062B82
:10D6900020D028000DF0B6FC039A011C0498FBF77B
:10D6A000E9F8061E00D064E7CFE6C04684E7020032
:10D6B0008CE702000CA00200CCB60200303B030055
:10D6C00050AC02001B3B0300FFFFFF3F00008080C7
:10D6D000070080FF049B1F2B00D07FE70398F5F71E
:10D6E000E5F883690400002B0CD1636A002B11D18B
:10D6F000039814F080FF134902001348FAF7D2FE92
:10D70000FEF7ECFF3A00039904989847061E00D0F4
:10D710002FE7EAE706A90398FFF728FA040020009C
:10D72000FFF786FA002800D161E63900F5F754F9D1
:10D730000028F4D06BE6039587E60449044817F007
:10D740005DF9C046553B030050AC0200A40D030038
:10D7500004AD0200010010B5014817F04FF9C046B2
:10D7600050AC0200F8B504000D0017001E0000299F
:10D7700008D01868F5F79AF86368834202D0054824
:10D78000FFF7E8FF33003A002900A068FFF7F8F838
:10D79000F8BDC046AC3A030001214000014310B57A
:10D7A000024815F01CFDFEF799FFC046E8AA0200EA
:10D7B000010010B5014817F021F9C046ACAA0200DB
:10D7C00010B5034A0349044819F008FB034810BD8B
:10D7D000733D0300190D030044E80200A4B30200E6
:10D7E00010B5034A0349044819F0F8FA034810BD7C
:10D7F0009B3C0300190D030044E80200A4B302009F
:10D80000F7B50600194D0C00280013F007F9310098
:10D81000174813F089F8174813F000F9164813F069
:10D82000FDF8FF239B00E61821787F2901D0A6424E
:10D8300006D1280013F0F2F8104813F0EFF8F7BD06
:10D840006278A37850290CD80D48475C0D48405C9D
:10D85000019300923B0002000B4813F065F804347A
:10D86000E2E70A4813F060F8F9E7C0466A3F0300B0
:10D87000973F03009F3F0300283F0300463F0300FC
:10D88000540C0300030C0300C03F0300E33F0300FC
:10D89000F0B51D0087B006001A4817000C0013F001
:10D8A000BDF82900184813F03FF8184813F0B6F8EF
:10D8B000174813F0B3F8AD006519AC4204D1114814
:10D8C00013F0ACF807B0F0BD3878A2780490206867
:10D8D00023780003400E0390E0789B060009029035
:10D8E00020883178C004400E0190E0789B0E00073C
:10D8F000000F00901209074813F016F8043401369F
:10D900000137DAE76A3F0300B73E0300E43E030055
:10D91000163F0300483F0300F7B50020214A224E7E
:10D9200012783368111D4900CC5A5F18598801904C
:10D93000A020C00584466405640D4C431B49A41215
:10D940000968787807270500BD43F82D1DD001250B
:10D95000C00885402800A1256746ED0001327851B6
:10D96000D2B2101D4000C55A1F186D0558886D0DA4
:10D9700068438012001BE4D00A4C2270019A002AEE
:10D9800002D00A4A33601160FEBD6046084A5C68F6
:10D990008450002903D001220B00002101920A00CB
:10D9A0000C00DEE7312E0020BC2A0020C02A002017
:10D9B0000C05000010B572B600220F4B18681A60F3
:10D9C00062B6904210D10D4B0D4A1B680D48934230
:10D9D00000D010001A7802705A8842805A6842605B
:10D9E000002219788A4200D310BD510044185918FA
:10D9F000098901322181F4E7C02A0020BC2A0020D5
:10DA0000C42A0020F42A0020044B054A1A6000238F
:10DA1000044A1360044A13707047C046BC2A0020B1
:10DA20000CBA0200C02A0020312E002010B5782246
:10DA30000249022000F068FF10BDC04619D900005D
:10DA4000421E084BFF3A10B504009A4207D8FFF770
:10DA5000B1FF054B241144801860002010BD012047
:10DA60004042FBE740410F00C02A0020044B1B68E6
:10DA7000002B01D1034B1B68588800017047C0463A
:10DA8000C02A0020BC2A0020F7B53D4A04000D0042
:10DA90000B00914200D913008022D200D31A0193C7
:10DAA000FFF788FF0122A24046680092164207D184
:10DAB0002300A0210327C133FF339B00C9055F501A
:10DAC000002703789F4206DB002D01D0132B0BD9D2
:10DAD0002C4B1860F7BD391D490042185278D20806
:10DAE000A24243D00137EDE7009A191D324342604C
:10DAF000019A490055050A5A6D0DD20AD2022A43ED
:10DB00000A525205E400520F4118144301334C707D
:10DB10000370851C012225E0009A013BDBB296438D
:10DB200003704660BB42F4DD04335B001B5A0B52AA
:10DB3000EFE72F00131D5B00195A2E894905490D87
:10DB4000531E1C1D6400245A6405640D8C4204D9C4
:10DB5000FC88023F7C81013BF3D205335B001E52FF
:10DB60000132023503789A42E3DBB1E7002DD3D0CE
:10DB7000019B5A050B5A520DDB0ADB021343D6E711
:10DB8000FF030000C02A002070B500210400FFF749
:10DB90007BFF00210D4B18680578A94200DB70BDA2
:10DBA0000B1D5B00C3185A78161CD208944201D092
:10DBB0000131F2E70822524232435A700123A02178
:10DBC000A340034AC9058B50E9E7C046BC2A0020A0
:10DBD0000C05000010B50C0017F093FD631E1842F1
:10DBE00007D00200230003490348FAF75BFCFEF765
:10DBF00075FD10BD04400300C8AC020010B54A68B2
:10DC00000249D20019F0EAF810BDC0462C400300CA
:10DC100070B50B0006001400101E0FD071681800BC
:10DC2000042A0ED1FFF7D6FF7368012B03D0022B15
:10DC300005D0006800E0007817F026FD70BD008870
:10DC4000FAE7FFF7C7FF05002000F4F743FF72680B
:10DC500003000548012A03D0022A03D02B60EDE718
:10DC60002B70EBE72B80E9E7A4B30200F7B52D4F4B
:10DC7000B43701972B4A2C49FC32536C8B4200D8A5
:10DC8000F7BD0325043B53641A68264B501CAC3384
:10DC90001E6804008108715C2C4064002141831AD5
:10DCA000294001300229F4D00326019912010968A4
:10DCB0001B018A181B499B08002BDBD00F2014681E
:10DCC000044229D119480068A04225D80D00B83572
:10DCD0002D68A54220D9241A200900900800AC30F4
:10DCE0000068A409009D0419207835406D00844621
:10DCF0002841304001280FD13700AF403D00674632
:10DD00003D4325700D00FC356C6C094FBC4206D2BA
:10DD1000201D686400982060013B0432CCE70C00B1
:10DD2000BC34F8E77C2E00203C2F0020302F002050
:10DD3000BC2F00200F23994370B506000D00081A70
:10DD400041210BF0D9FF0F4C02002300B0331860C3
:10DD500023002100AC331E608301EB1AB4310B6049
:10DD600023003000B83300211D601BF011F8802320
:10DD7000FC345B020122A36400235242E364226567
:10DD8000636570BD7C2E0020A222034952008B5A8D
:10DD900001338B527047C0467C2E0020A2220349DB
:10DDA00052008B5A013B8B527047C0467C2E00209C
:10DDB000A223034A5B00D05A431E9841C0B2704769
:10DDC0007C2E0020F7B50400032589004318019339
:10DDD000019B9C4200D1F7BD0F232168194229D134
:10DDE000184B1A00B43212688A4223D81800B8308F
:10DDF000006888421ED9891A1A000F093800AC320F
:10DE00001268890951180A78284040009446024156
:10DE10002A40012A0ED12E0086403000664630434B
:10DE200008701800FC30416C074EB14206D20B1D41
:10DE300043640F60FFF71AFF0434C9E7BC331A606C
:10DE4000F8E7C0467C2E0020BC2F0020A22210B58F
:10DE500008485200835A0100013383520300002214
:10DE6000FC33BC310A60DA64034A27215A64FFF7A5
:10DE7000A9FF10BD7C2E00203C2F0020F8B5032602
:10DE80002E4C00252200BC321368AB4213D1022273
:10DE90001900032794462200B03212689200914282
:10DEA0002AD323000022FC335A654532FF32A35A9D
:10DEB000013BA352F8BD23001560214AFC335A648C
:10DEC0002300B0331B689B009D42D9D22200AC32A4
:10DED0001268AB08D35C2A00324052001341334031
:10DEE000032B07D12200FC32536C191D51641D60B5
:10DEF000FFF7BCFE0135E3E72000AC3000688A087C
:10DF0000801802780D0016003D406D002E413E4005
:10DF1000022E09D0032E0BD0012E07D13B00AB40BF
:10DF20009A430270012301E0002BF7D10131B2E7DF
:10DF30006346AB409A4302700023F7E77C2E002033
:10DF40003C2F0020334BF0B51A001900B832B43121
:10DF500009681268521A1900B0331E680260032360
:10DF60000022AC310F68140011009C4642608260B0
:10DF7000C260026142618261B60065468B08FB5C4B
:10DF80000D406D002B4165462B404568012B33D079
:10DF9000002B2BD0022B32D001318E420AD06546A5
:10DFA0008B08FB5C0D406D002B4165462B4001D07A
:10DFB000012BE2D1012C26D1056901350561856966
:10DFC000A54200D284618E4201D0012BD5D1C36815
:10DFD000934200D2C2608E4206D143681B01436067
:10DFE00083681B018360F0BD0022C6E784680132AC
:10DFF000013484601C00CFE701354560FAE7013544
:10E0000045600134C8E7022CD9D145690135456125
:10E01000D5E7C0467C2E0020F7B50F3003090193E9
:10E0200002D100242000FEBDA223474A5B00D35A40
:10E03000002BF6D14733FF33D35A5E425E41002BAB
:10E0400007D0414BFC33DA6C1B6D9A4201D306F0CA
:10E0500071F8002430213F273B4A3B4BB032126815
:10E06000FC339446384A5B6DAC3210689C4505D849
:10E07000002ED6D106F05EF80136EBE70325C25C30
:10E080002A4231D1019D0134A5422ED89B00191B93
:10E090004E1C5A1C012C03D12B4C9708FC3467658D
:10E0A000B40800190324270037407F00A446023C2F
:10E0B000BC40077802313C43234F0470AC378B429D
:10E0C00034D22149204DB431FC350C68E96C330160
:10E0D0008C46E418019B921B63441201002120002E
:10E0E000EB641AF055FE9DE700240C252A4206D168
:10E0F000019D0134A54203D89B000133C7E70024EA
:10E100000A4206D1019D0134A54203D89B00023387
:10E11000BDE70024BA4306D1019A0134A24203D8D4
:10E120009B000333B3E7002401339FE73C68880872
:10E130002018644602250C406400A5402C00057898
:10E1400001312C430470BAE77C2E0020A22230B5A6
:10E15000164B52009A5A002A26D1002824D01A00C1
:10E16000B4321268801A1A00FC32546D0109800919
:10E17000A04200D25065AC331800032204688B081B
:10E18000E3180C00150014406400A5401C78013110
:10E19000AC431C7004688B08E35C0C001440640002
:10E1A00023411340022BE9D030BDC0467C2E002015
:10E1B0000F2203000240002070B5824228D1154C86
:10E1C00010002100B4310968994221D82000B830EC
:10E1D000056810009D421BD9AC345B1A24681909EC
:10E1E0009B09E55C0800032318404000054110002E
:10E1F0001D40012D0CD14D1C2E00AA08A25C1E4012
:10E2000076003241681A1A400135022AF4D0000122
:10E2100070BDC0467C2E0020F0B585B007000D0013
:10E220000292002807D101002800FFF7F5FE060042
:10E23000300005B0F0BD002903D1FFF787FF2E00A5
:10E24000F6E70F2100260140B142F1D153480E00FC
:10E250000300B4331B68BB42EAD80200B83212682C
:10E26000BA42E5D9FB1A1A0900920200AC321268D0
:10E270009B090192D25C0323009C23405B001A415E
:10E2800003231A40012AD3D14233FF33C35A002B50
:10E29000CED129000F310909B0308C460168032620
:10E2A00089000391210014000131039A914212D296
:10E2B00001988A08825C08003040400002413240E8
:10E2C000022A02D101340131EFE7002A03D10133E0
:10E2D000E2186245F7D3644501D13E00A8E76445E2
:10E2E00021D9009B032663441900009B0800E21813
:10E2F000AC239C46294B9C44634605001B6884085C
:10E300001C19330035406D00AB40257801309D432A
:10E3100025709042F0D1214B8908FC335A6D91420F
:10E32000DBD25965D9E71B19634523D303250226A0
:10E330001A49009BAC31E3180191009A62449A4259
:10E3400009D86346191B090120010A003818002169
:10E350001AF01EFDC1E70199180009689A088A1889
:10E360003100284040008140080011780133084303
:10E370001070E2E7029E002E00D159E7002128002C
:10E38000FFF74AFE061E00D152E7220139001AF0BB
:10E39000E3FC3800FFF7DAFE4AE7C0467C2E002097
:10E3A00010B58CB005A8FFF7CDFD079B0A4C039371
:10E3B0000093059A069B0949200018F00FFD089B61
:10E3C000099A01930B9B06490393009320000A9B33
:10E3D00018F004FD0CB010BD44E802007B400300BF
:10E3E0009E400300F8B5434E434F3300B4331A68E0
:10E3F0004249380018F0F2FC00243300B0331B68A7
:10E400009B00A34223D93F2214422CD13200250085
:10E41000AC3210680321AA08825C294049000A41F5
:10E4200003210A4202D10135AB42F3D12A1B7F2AD4
:10E4300012D992093249380018F0D0FC2C003F2341
:10E440009C433300B0331B689B00A34204D83800C0
:10E450002C4918F002FCF8BD2B4B22011A402B4925
:10E46000380018F0BBFC3200AC321268A308D35C51
:10E470000322224052001341032213403A32022B5E
:10E4800031D03032032B2ED03F3A012B2BD1330029
:10E49000B4331B682201D3581D4954228B4222D029
:10E4A0001C49083A8B421ED01B49083A8B421AD0AD
:10E4B0001A490F328B4216D019498B4213D0194991
:10E4C000123A8B420FD018498B420CD017490532B3
:10E4D0008B4208D01649043A8B4204D015492632A3
:10E4E0008B4200D11B3A1449380018F077FC0134F4
:10E4F00083E7C0467C2E002044E802003C40030035
:10E5000057400300254F0300F0FF0F007340030046
:10E510000CA0020048E7020034C20200CC990200BD
:10E5200060920200F0B20200B4B2020048B00200F1
:10E53000C0E9020058B1020042000300C37902485A
:10E54000002B00D1014870478CE7020084E70200ED
:10E5500010B5F4F7A7FE014810BDC046A4B30200F1
:10E5600010B50868F4F79EFE004810BDA4B3020081
:10E5700073B50D00022836D1012601A96868F3F7AA
:10E580003FF976423400019BC318834212D101A99E
:10E590002868F3F735F97342734162426241DBB296
:10E5A000D2B20199F4F7C2FF002820D110491148D6
:10E5B00016F024FA0278722A01D0772A06D1611C5B
:10E5C0000ED1723A544254410130DEE7622A01D042
:10E5D000742A05D1711C03D1743A56425641F3E7AF
:10E5E0000548FEF7F3FE012676423400CFE776BDFC
:10E5F000DB030300E8AA0200E340030007224368AC
:10E6000004481B791340044AD35C002B00D0034814
:10E610007047C0468CE70200DA00002084E7020061
:10E6200010B50124037A05499B005A580448224238
:10E6300000D10448A243CA5010BDC046242B00207C
:10E640008CE7020084E7020070B5037A064C0500EF
:10E650009B001859400817F017F801222B7A9B00ED
:10E6600019590A401A5170BD242B002030B5A2223E
:10E67000A025D200ED05AA580723CA401100164C68
:10E680000340E056421EC90700D5421C022A0ADC9C
:10E69000002082421ADB1149CD5C854201D0C8546A
:10E6A0000230E25430BD072A09DD0C2A10DC0B4988
:10E6B0000320CD5C002DF4D10238C854F1E707499E
:10E6C0000320C95C0029ECD10800EAE70200E8E772
:10E6D00003200C22E5E7C046E2000020DA0000201B
:10E6E0001D4B70B559791879FFF7C0FF022805D185
:10E6F0001A490B689A1C012313430B60184B597974
:10E700001879FFF7B3FF022805D114494B689A1C0A
:10E71000012313434B60134C2000FAF79DFB124D6D
:10E72000A84203D161792079FFF7A0FF0F4C2000A8
:10E73000FAF792FBA84203D161792079FFF796FF9F
:10E740000B4C2000FAF788FBA84203D161792079AD
:10E75000FFF78CFF70BDC046DCA20200242B002016
:10E760007CA202006CA20200E0B10200B4A202008E
:10E77000C4A20200072203791340014AD05C70470B
:10E78000DA0000208022044B52001A600123034A61
:10E790001360034A1360704700E100E00C8C0040F6
:10E7A000008000408022054B5200DA67044BFF3A9C
:10E7B0005A600022034B1A607047C04604E100E033
:10E7C000008000400C8C004070B5002501261E4BD7
:10E7D0001E4C1D601E4B18601E4BE650C046FFF7D6
:10E7E000E1FF1D4B1D4AE660E25002221C4BFF2058
:10E7F000E5500433E25008339218E250C1238022DE
:10E800009B001203E250053BFF3BE550C22440222F
:10E81000144BA400195981430A4380211A510C3426
:10E820001A5909061202120A0A431A51C022043464
:10E83000195981430A431A51802212041A60802216
:10E8400052041A6070BDC046D02F002000800040E6
:10E850003C2B0020FC0F00004C050000701700004E
:10E860000405000000E100E070B51F4C1F4D636C13
:10E87000002B0AD0002363641D4B1B689847A82314
:10E88000DB00EA5800018018E850A36C002B09D087
:10E890000023A364164B5B689847164B0001EA58A7
:10E8A0008018E850E36C002B0AD00023E364104B7F
:10E8B0009B689847A923DB00EA5800018018E850BC
:10E8C000236D002B0ED000230B4A2365AB580B4958
:10E8D0005B18AB500A4A1368063313608022094B59
:10E8E00012045A6070BDC046FC80004000800040A9
:10E8F0000C000020440500004C05000070170000CB
:10E90000D02F0020FCE100E0F7B50191032823D8C7
:10E91000134B8000C758C223124D9B00EF500123B8
:10E9200044192364A8230F210F4EDB009C46E358B3
:10E93000AE59921BD218D3170B409A1801990B4B62
:10E940001211C150C1239B00EF50634600200132D9
:10E9500012019619E650FEBD01204042FBE7C04679
:10E9600044BC0200008000404C0500000C00002068
:10E9700003280BD8074B8000C158C223064A9B00CE
:10E98000D150064B064AC250002070470120404239
:10E99000FBE7C04644BC0200008000400C000020A1
:10E9A000114A020010B5024B1B68984710BDC046C3
:10E9B0003C2B002010B50024054AA1008B58002BE9
:10E9C00002D00020885098470134042CF4D110BDA7
:10E9D0002C2B0020074A89008B58002B06D1885029
:10E9E00080211800044A49045160704701204042C8
:10E9F000FBE7C0462C2B0020FCE100E0F8B50E0040
:10EA000005001400FFF7CEFE330003272B433B42E3
:10EA10000BD1BC4209D9A208310028000AF092F8B3
:10EA20002300BB43ED18F6183C40002C04D0220014
:10EA30003100280019F0BAFD80220449D2008B5819
:10EA4000002BFCD0FFF79EFEF8BDC04600E0014061
:10EA5000F0B5060000248BB0194B1A48E15804F0B9
:10EA600001F803AFE05104341C2CF5D11423002429
:10EA7000734301930025AB00F958134816F090FC3E
:10EA80000135300014F009FE072DF4D1013DAB0033
:10EA90000D48F95816F084FC300014F0FEFD013DDD
:10EAA000F5D20134082C03D100F0D4FD0BB0F0BD39
:10EAB00001231C42DED1019814F0EFFDDAE7C046D5
:10EAC000B0BC0200ECB402001C00002010B51920FC
:10EAD000FFF7BEFF004810BDA4B3020070B51500DB
:10EAE000040015F0FAFF2A000249200015F0B3FFD8
:10EAF00070BDC046BD4A020070B543790D000024C8
:10EB0000032B06D9836A074C9200E41AC369D358D1
:10EB1000E418032115F0D2FF4470241205708470AC
:10EB200070BDC046FD7F0000F7B500230400617191
:10EB300083608371E260036101330F00150043615C
:10EB4000032906D80121836949429A00C0691AF055
:10EB50001FF90023A3622362AA8BEB8BD218002A31
:10EB600000D10132384E2000310015F074FF2A8C9C
:10EB70003100200015F06FFFE3682000197D15F0CB
:10EB800096FFE3682000997D15F091FFE36820006F
:10EB9000197E15F08CFFE3682000997E15F087FF41
:10EBA000042F27D1636A226A31009A1A200015F0D7
:10EBB00052FF3100EA89200015F04DFF3100AA898B
:10EBC000200015F048FF0026AB8CB34217DCFF2174
:10EBD000200015F082FF042F35D1EA8A2B8B0237F3
:10EBE000D31801930023019A9A422CD0AA8C0021B9
:10EBF000009223E00221200015F04CFFD9E7AA6A19
:10EC0000F300D3181A78032A03D19978200015F05D
:10EC100064FF0136D8E70126A86ACA008218507836
:10EC200030420AD05088984207D15268D200606BB7
:10EC300099003A430A500133D5E70131009A8A42DC
:10EC4000E9DC0222F2E7F7BD954A0200F7B5234B53
:10EC50000500A8331B680191022B0DD847698F422C
:10EC60000AD2836A0269CF1B9C1A3B00234304D15A
:10EC7000AB6A2B61019B6B61F7BD062F01D90F2C8D
:10EC800018D900941F2C01D91F230093009B002644
:10EC90009C4203D83E00032F00D9032601212800FF
:10ECA00015F0F8FE009A730113430370009BBF1B1D
:10ECB000E41ADAE70A4B3E009F4200D91E00022107
:10ECC000280015F0E7FE702233091340F03A224382
:10ECD0001343037046700094E8E7C0467C2E002082
:10ECE000FF07000070B50D000121040015F073FF4F
:10ECF0000E2D14D00F2D17D010210D2D10D017214F
:10ED0000200015F0EAFE0322A36A04210333934393
:10ED1000A362200015F0D2FE044B036003E0112132
:10ED2000200015F0DAFE70BD1221F9E7E88F02002D
:10ED3000F8B5174F05000C0016000F40002A1AD135
:10ED4000110015F048FF23040FD53221280015F0DB
:10ED5000C4FE3221280015F0C0FE3221280015F033
:10ED6000BCFE3221280015F0B8FE3A0035212800FB
:10ED7000FFF7C2FEF8BD3A004621FFF7BDFE7F2334
:10ED8000210A99433143C9B2280015F0A6FEF1E7E4
:10ED9000FF7FFFFFF0B5124B87B003AD40C90138CC
:10EDA00000930195032303F0B7FA68680D4F1E2402
:10EDB000B84202D014F062F844B2A8680023B84206
:10EDC00002D014F05BF843B2706803994371047188
:10EDD00009F0F2FE70680AF059FA380007B0F0BD89
:10EDE00080BD0200A4B3020030B5124B8BB003AC5F
:10EDF00020C9013800930194032303F08DFA616860
:10EE000006A818F075F9039B089A5900237A009315
:10EE10006868079B08F06CFA021E05D0064907488F
:10EE2000F9F740FBFDF75AFC06A90548F2F75AF836
:10EE30000BB030BD98BD0200F0400300E8AA02000C
:10EE40006092020030B5114B89B002AC20C9013884
:10EE500000930194032303F05FFA012205A960687F
:10EE6000F3F7C6FF029B059A5900237A009368685E
:10EE7000069B08F04DFA021E05D005490548F9F732
:10EE800011FBFDF72BFC044809B030BDB0BD0200FA
:10EE900002410300E8AA0200A4B302000021F8B571
:10EEA0004768080017F0C0FD08250600B1223B683E
:10EEB000D2009D508022002092001900985001221B
:10EEC000FC319A6088605A61104A8868002803D132
:10EED000002A19D0013AF8E70024A24204D00C4AD3
:10EEE0009C5863425C41E4B238000AF0CFF9002C30
:10EEF00005D001216B001943300005F06DF9013593
:10EF0000782DD3D13000F8BD1400EDE710270000B4
:10EF1000C404000010B5040001F018FD074B020006
:10EF20001B690749074817F059FFFFF739FA012C09
:10EF300001D1FFF757FA044810BDC0467C2E0020CF
:10EF40001541030044E80200A4B3020010B5F3F732
:10EF500095FDF5F763F8014810BDC046A4B3020063
:10EF600010B5FEF71BFF014810BDC046A4B3020058
:10EF700010B5FEF709FF014810BDC046A4B302005A
:10EF800010B586B0040005AB04AA03A902A801F0DD
:10EF900003FE059B029A0193049B064900930648D1
:10EFA000039B17F01BFF012C01D101F031FE034838
:10EFB00006B010BD2A41030044E80200A4B30200D9
:10EFC00010B5084C002805D1A834236801305B0037
:10EFD000184310BD0868F3F751FDA83420600248BB
:10EFE000F7E7C0467C2E0020A4B3020001220100F6
:10EFF00003001140100000290CD10800990709D125
:10F000001B68054910008B4204D00448181A43427B
:10F010005841C0B27047C046ECB8020094E7020005
:10F020000023FA21094A89001360094A1370094A2A
:10F030001360094A1160094A1370094A111D083208
:10F04000D3670122CB67074B1A707047442B00200F
:10F05000322E0020402B002018000020332E0020EC
:10F060007C2E0020342E002010B5084B084A197859
:10F07000002907D1916C002902D0FFF7D1FF10BD04
:10F0800030BFF4E700221A70F9E7C046342E0020A2
:10F090007C2E0020837F0248002B00D1014870475E
:10F0A0008CE7020084E702000023A022E02110B5D3
:10F0B00083770C4BD2050902D1500B48F9F7EAFED1
:10F0C0000A48F9F7E7FE0A48F9F7E4FE0948F9F7B4
:10F0D000E1FE0948F9F7DEFE0848F9F7DBFE0848CB
:10F0E00010BDC0460C050000CCA20200D4A2020054
:10F0F000E4A20200ECA20200FCA2020074A2020040
:10F10000A4B30200F8B5164C2368002B07D14820A1
:10F1100019F0B8FD0500134908F0DCF92560124824
:10F12000124902680B68D21A0123312A04D96233CA
:10F1300093429B415B420233002201260C4D2E700C
:10F140002F78032FFCD101329342F8D10368206855
:10F150000B6018F064FF430001201843F8BDC0465F
:10F16000482B002098BE0200D02F00204C2B0020FE
:10F17000352E002030B50D4C87B02378012B13D1EC
:10F180000B4B02221D680621002302A818F0D0F8BC
:10F19000082204A9684619F0DFFD039B029A2800A3
:10F1A00008F014F90223237007B030BD352E00207B
:10F1B000482B0020A02010B51049C0054B7F5A1CD9
:10F1C000002B09D14C8C0E4BA3430E4C03510E4B1C
:10F1D0004A775200D05A0FE010335B00CB185C889E
:10F1E000A123DB00C450092AF1D10120FFF7C0FBA5
:10F1F000FFF7C0FF0120404210BDC0461C000020A8
:10F20000F01F00000C050000B4F6020073B5041EE8
:10F2100009D11A4D2B78002B2CD01949194816F01A
:10F22000BFF82C7073BD184D2B1DDE6FF3F73EFB3E
:10F23000164B2100984214D0154B2340062B05D0C5
:10F24000A30712D1134B22689A420ED101A92000C4
:10F25000F2F7D6FA019B012B0CD1007817F003FBD3
:10F260000100300016F09CF8DCE70B490B4813F066
:10F27000BDFFA864FFF7D4FED4E7C046332E0020BC
:10F2800068E402001C0000207C2E0020C8E402007C
:10F29000070080FFCC990200DE41030050AC020061
:10F2A000F7B5A123A021214AC905DB00CA500123DB
:10F2B000C27F0D3293401E4A8B50C37F01920133AF
:10F2C000DBB2032B2FD0C3770200030000212233CF
:10F2D0003632198002339342FBD10424C17F154F8B
:10F2E0004D000522EB5D7E195343134A7678D318FF
:10F2F0009B190126A640B44662461B7901345B0087
:10F30000C3185E8C063516435E840D2CE9D10122AC
:10F310000D318A40A023A121DB05C9005A50828EFD
:10F3200001995A50F7BD0023CDE7C046F01F0000F9
:10F330000C050000724103001C00002070B5394B21
:10F340008CB01A78022A07D1A0223749D2008A58F5
:10F35000012A07D003221A70344DAB7F002B03D152
:10F36000FFF708FF0CB070BD2800FFF799FF304A87
:10F37000304913680968063313608B4207D30024B1
:10F380002D4B14601B78012B0FD0022B45D000238E
:10F390002A8C6B77FF33FF331A42E1D0E1222749F1
:10F3A000D2000120FFF7B0FADCE7254E331DDB6FFA
:10F3B000002B04D033000833DB6F002B02D1FFF7A2
:10F3C0002FFEE4E7FEF7E0FC6846FDF761F9002850
:10F3D0000CD11C4B1868FDF703FC0400FDF776F90F
:10F3E000FEF7DCFC2000FFF711FFD0E7FEF7D6FCAC
:10F3F000019B15491868FCF76FFC0028F2D10198B1
:10F40000F3F754FA114B984203D11149114817F000
:10F41000E5FC019B0024B364E4E70F49280015F0E4
:10F42000BFFFCCE7352E0020007000401C000020FC
:10F43000402B002018000020322E0020B5F10000E3
:10F440007C2E0020442B00209CAB020034AA02003A
:10F45000D608030044E8020068E40200F0B5002486
:10F4600085B0154D02930AAB1B782E1D0700083599
:10F470000800210001920393F467EC67FDF776FB27
:10F480000E4B019A18600E4BF7671A60029A0D4BEB
:10F49000E8671A700C4B1C70FDF7A2FBFFF7B6FE75
:10F4A00001220A4B1C600A4B1A70039BA34201D035
:10F4B000FFF7DAFD05B0F0BD7C2E0020442B0020C4
:10F4C00018000020332E0020342E0020402B002076
:10F4D000322E0020F0B50024384B8FB01D1D0833AC
:10F4E000DC67374BEC6709AD80C9013801950093A3
:10F4F000052302F011FF6B68099C049307942B7B92
:10F500002E7A05932B7C20000393FFF76FFD2D4D82
:10F51000002806D103232340022B09D12C40062CBE
:10F5200006D007AB002201212748F1F75BFD0790C9
:10F5300007980540062D05D0830730D1224B02687D
:10F540009A422CD108A9F2F75BF9089B002B23D033
:10F55000012B0DD1002E0BD1039B002B08D100787D
:10F5600017F081F907900799380015F019FF13E09B
:10F57000079803F05FFB079009AB1B7C002B03D0BF
:10F580000798F5F739FF0790059B049A00930799B0
:10F5900033003800FFF762FF0C480FB0F0BDF3F7FF
:10F5A00085F90B4B9842E7D1002E02D1039B002B2B
:10F5B000D9D007A90120F7F75DF8DCE77C2E002001
:10F5C00044BF0200070080FFCC990200A4B30200F0
:10F5D000C8E4020070B51B4B8AB005AD40C90138C4
:10F5E00000930195052302F097FE059C20000494EA
:10F5F000FFF7FCFC002807D103232340022B0AD18C
:10F60000114B1C40062C06D004AB002201210F48F0
:10F61000F1F7E8FC049003A90498F2F7F1F82A7CCA
:10F620002B7B03990092059A03F0EEFA2B7A0100E6
:10F630000093300000236A68FFF710FF04480AB007
:10F6400070BDC0466CBF0200070080FFCC9902006D
:10F65000A4B302000022074B10B51A70064B023209
:10F660001A70064B064A1B68063B1360FFF7FCFC4A
:10F6700010BDC046342E0020322E0020180000207D
:10F68000402B002010B5FFF7E5FF014810BDC04634
:10F69000A4B3020010B5042901D8042A02D90948EC
:10F6A000FDF794FE092B01D90748F9E705246143CA
:10F6B00041188A18137101229A40038C1343038462
:10F6C00010BDC04608090300EB410300F8B54868C7
:10F6D0000C000D68F3F7D2F90600A068F3F7CEF935
:10F6E0000700E068F3F7CAF93A0003003100280088
:10F6F000FFF7D0FF0048F8BDA4B3020010B50429FD
:10F7000001D8042A02D90448FDF760FE05235943B5
:10F7100040188018007910BD0809030070B5104C1E
:10F72000050021000F48F9F7CBFB21000E48F9F73F
:10F73000C7FB21000D48F9F7C3FB21000C48F9F77E
:10F74000BFFB21000B48F9F7BBFB21000A48F9F782
:10F75000B7FB15F0ABFE01230848AB7770BDC04680
:10F76000C0B10200CCA20200D4A20200E4A20200B6
:10F77000ECA20200FCA2020074A20200A4B30200E8
:10F7800070B50D00F3F7DEF9041C2800F3F7DAF981
:10F79000211C0BF03DFA051C15F095FE011C281CE0
:10F7A0000BF004F9211C0AF08FFD03230200022054
:10F7B0009A43024B1043C01870BDC04600008080C1
:10F7C00010B515F080FE0323020002209A43024B7D
:10F7D0001043C01810BDC0460000808010B5074C13
:10F7E000002802D00868A04203D106F05DFC20008A
:10F7F00010BDF3F76FF906F077FCF8E7A4B3020049
:10F8000010B50400F3F7ACFAF3F738F9002803DC7D
:10F810000021064815F0F2F806F020FC15F034FF40
:10F82000042201002000F3F7B1FA10BD44A9020040
:10F8300010B50400082016F020FD024B4460036060
:10F8400010BDC04680C0020010B5102016F015FD96
:10F850000400034B08C011F0DAFF200010BDC046C1
:10F86000ECB8020070B50C00052804D80AF030FA94
:10F8700006030C04131C0024200070BD8B680E4C82
:10F88000002BF9D10D4CF7E7081D12F027FC0124DD
:10F8900040000443F0E7FFF7D7FF211D05000430C7
:10F8A00012F042F92C00E7E7FFF7CEFF211D05001B
:10F8B000043012F049F9F5E78CE7020084E7020012
:10F8C00070B5050083070CD1104B02689A4208D12D
:10F8D000FFF7BAFF291D0400043012F01AF92000C6
:10F8E00070BD2800F3F7CAF8C0231B06984206D162
:10F8F00080200021C00515F0B8FE0400EFE70124C8
:10F90000C317C018584040000443E8E7ECB80200B1
:10F9100007B5C30701D540100EBD043001A9F1F7AA
:10F9200007FA002801D00198F6E70249024815F0CD
:10F9300065F8C0460442030024AB0200F0B58BB06A
:10F94000019001200D00170008402BD04B1002221F
:10F9500003A904A811F093FF04AEFB072BD57B107D
:10F96000022203A904A811F08AFF04AD019B092B10
:10F9700001D0162B3FD16B68002B68D0300012F0FD
:10F9800008FC041C280012F004FC011C201C0AF0D6
:10F9900035FE032302249843704B0443E4182000EF
:10F9A0000BB0F0BD03240C4023D16D4B0A689A4282
:10F9B000F5D10E1DD1E703231F4205D1684A3968EE
:10F9C000914201D13D1DD1E73B40022B0CD1654B4B
:10F9D0003B40062B08D0300012F0DBFB3A00011C44
:10F9E0000198F8F747FF04E03A0029000198FCF776
:10F9F00017FE0400D3E7019B182B00D98AE0FFF71C
:10FA000023FF040001980AF063F9444A3E50500D68
:10FA100013191F72336572444A3E50500D13191F5B
:10FA200072336500201D2A00310012F025F9B6E777
:10FA3000201D2A00310012F059F9B0E7201D2A00DC
:10FA4000310012F086FAAAE76B68002B03D1464911
:10FA5000464814F0D3FF07A811F0D9FE2B0032005E
:10FA6000201D07A9F0F7FEFF07A811F0D5FE96E7C5
:10FA70006B68002BEBD007A811F0C9FE211D2B00ED
:10FA8000320007A8EEE7201D2A00310012F06FF9BE
:10FA900085E7201D2A00310012F0E5F97FE7201DDF
:10FAA0002A003100F0F768FF79E73800FFF730FFF0
:10FAB000021E02DA2E48FDF789FC019B201D310051
:10FAC000032B01D0102B02D1F0F7EEFE67E712F006
:10FAD00072F864E76B68002B03D02B78DB0700D546
:10FAE00079E7201D2A00310012F0B6FA57E76B685B
:10FAF000002BACD0FFF7A8FE0700211D04302B001F
:10FB00003200F0F7AFFF07A9022007970894F6F735
:10FB1000B1FD6EE72900300011F0D8FF0300019815
:10FB200000241938042800D939E7124C0AF0D0F81B
:10FB30000308120B0F00002B00DB30E70E4C2EE702
:10FB4000002BFBDC2BE7002B00DD28E7F6E7002B82
:10FB5000F4DA24E7002B00D021E7EFE700008080F3
:10FB6000ECB80200070080FFA40D030004AD020002
:10FB70001B3B030084E702008CE70200044B886013
:10FB80000B60044B08004B600023CB607047C046FD
:10FB90002C98020067570200044B0B60037A0B712C
:10FBA000436808008B600023CB607047B0C102003F
:10FBB00010B504000C2016F060FB034B446003609A
:10FBC0000223037210BDC046ECC1020010B5043020
:10FBD00013F02DFC004810BDA4B30200002803D090
:10FBE000012808D0002005E007224B680448934311
:10FBF00000D1044870474B68DB085B001843F9E705
:10FC00008CE7020084E702000B6870B506000D0067
:10FC1000181D49681400F8F7AFFF002802D04368A8
:10FC2000002B10D1022E08D1094B022C06D1696895
:10FC3000084813F0D4FAFCF751FDAB68012C00D151
:10FC40004360180070BD022CFBD100224260F8E72F
:10FC5000A4B3020080A9020070B504000D000B7A65
:10FC6000164A9B0086B0995816F0F7FF14492000F9
:10FC700016F0F3FF134B02AA02932B7A012613719D
:10FC80006B68019304930023059302A815F075FD9A
:10FC9000051E05D10C49200016F0DFFF06B070BD2F
:10FCA000002E03D10949200016F0D7FF01222900B8
:10FCB0002000F2F713FE0026E7E7C04628C2020044
:10FCC0007A420300B0C102007D42030005FC02003D
:10FCD000F0B513681400012287B00F680D00009280
:10FCE000D9080223060002F0E7FA022E12D10323FC
:10FCF0006868034018D101682A4AC968914213D143
:10FD00002A68904206D0059305A9686815F016FD8B
:10FD1000061E01D100253EE0381D01223168F8F7AA
:10FD20002BFF73684360EFE70021FCF71FFF039090
:10FD30000398FCF77DFF0028ECD00021FCF716FFAC
:10FD40000500FCF775FF02902800FCF771FF060024
:10FD50002800FCF76DFF029B002B03D0002E01D082
:10FD6000002802D01048FDF731FB381D012202990E
:10FD7000F8F702FF4660DBE7A368EE009E193168E2
:10FD8000002907D0042905D0381D0122F8F7F4FE18
:10FD90007368436001356368AB42EDD8034807B030
:10FDA000F0BDC0461D00010054420300A4B3020090
:10FDB00030B5002585B001A90400019515F0BEFC01
:10FDC000A84203D109490A4814F018FE636802A941
:10FDD000083B63600368029343680393042328C0CD
:10FDE0000220F6F747FC05B030BDC04631420300A3
:10FDF00080A90200F7B50C0015001B280DD00023C8
:10FE00001F2808D1081D00222900F8F7B5FE2C4B49
:10FE1000002800D12B4B1800FEBD03222B001340FD
:10FE2000114225D1284922688A4221D1002BF1D1E3
:10FE3000296891421ED1009301936946200015F074
:10FE40007DFC01A90700280015F078FC0600002FB2
:10FE500031D00028DED031683868F2F7BDFD0028C7
:10FE6000D8D071687868F2F7B7FD0028E5D1D1E7FE
:10FE7000002BCFD1154B2A689A42CBD16A686368B0
:10FE8000534007229343C5D1019301A9200015F0E7
:10FE900055FC061E01D10A4BBDE7281D0022316822
:10FEA000F8F76AFE0028B5D041687068F2F794FD53
:10FEB0000028EAD1AEE7024B0028ABD1ABE7C04641
:10FEC0008CE7020084E7020070C2020034C2020024
:10FED000F7B50B681C4A04000D00934203D05A6822
:10FEE0001A4916F07BFF1A49200016F0B6FE0023CF
:10FEF0000127019301A9280015F020FC061E0CD152
:10FF00001449200016F0A9FE2B680F4A934203D033
:10FF10001149200016F0A1FEF7BD002F03D10F49B3
:10FF2000200016F09AFE012231682000F2F7D6FC7C
:10FF30000B49200016F091FE012271682000F2F7B3
:10FF4000CDFC0027D6E7C04634C202005042030071
:10FF500003FC02001E0703006002030005FC020010
:10FF6000213A030010B504000C2016F086F9034B6B
:10FF7000446003600023037210BDC046ECC1020060
:10FF800010B504000C2016F078F9034B44600360B0
:10FF90000123037210BDC046ECC1020010B504304D
:10FFA00000220C00F8F7E8FD002805D121000348E5
:10FFB00013F015F9FCF792FB406810BD80A9020010
:10FFC00010B5024B08C013F017FA10BD34C202007E
:10FFD000F8B50E00070000217068FCF7C7FD0E4C55
:10FFE0000500022F00D9B4687068F2F761FE00289E
:10FFF00009D115F0ECFB06002800FCF719FE011EE4
:020000040001F9
:1000000003D13000F8BD4010F3E7331D0122180082
:10001000F8F7B2FD4460EFE7A4B30200F0B50700C3
:1000200089B000201E000D00019215F0D0FB0E4B90
:10003000040007609F4203D1042302791343037134
:10004000019B2B430DD03368AA00B218019905A873
:100050000394049313F0DEF9681C05AA03A9FFF7C3
:1000600037FE200009B0F0BD70C2020010B50C00D0
:10007000002A03D115F0EEFB0A480EE0042A0DD148
:1000800004300022F8F778FD002805D12100064849
:1000900013F0A5F8FCF722FB406810BD15F0D0FB6B
:1000A000EAE7C046A4B3020080A9020010B501002F
:1000B00083880120A0229840044BD205D050CA88E2
:1000C000083117F0C7F8024810BDC0460C05000003
:1000D000A4B30200EFB5070008001500F98802007C
:1000E00000233868F2F7A2FD03267043002D14D0D8
:1000F0003F18042D14D101237A7A01A952001A4322
:1001000001923A7A30009A401A430292BA7A9A409F
:1001100013430393F6F7AEFA0500280004B0E0BDE0
:10012000310001AA2800F2F76DFD019B1868F2F773
:10013000A5FC019B06005868F2F7A0FC019B050096
:100140009868F2F79BFCFF2E03D8FF2D01D8FF28FB
:1001500002D90448FDF73AF93D727E72B872024D39
:10016000DBE7C046BA420300A4B30200F7B51C00A7
:10017000002300930233080011001A0002F09CF8DB
:10018000206812F07BFE47B26068F2F777FC041E2D
:1001900002DC1048FDF71AF90326300060430830EE
:1001A00016F06BF80C4BA2B2050087807243036017
:1001B000C4800021083018F0EBFD3B00A022C133C1
:1001C000FF33D2059B009E500123BB40034928000A
:1001D0005350FEBDA142030004C302000C05000001
:1001E000032210B50400C38800215A43083018F0D8
:1001F000CFFD2000FFF75AFF004810BDA4B3020056
:100200000523020070B5094C094D20684343094895
:100210009B189B0018582B682260C0180F231940A8
:1002200009012860F7F7BCFD70BDC046502B0020C7
:10023000442A002040C30200A839030000B508008A
:1002400006292ED809F044FD040A10161B212800A7
:100250009A18E223DB00D218107800BDC432920055
:10026000D05C8006800EF8E7C4329200D05AC004F9
:10027000400EF2E7C4329200D0580003F8E7C432CF
:1002800092009A1890780009E7E7C43292009A1811
:10029000D0780007000FE0E7C43292009A18D078B7
:1002A000F1E7024B024A00201A60D6E70400002062
:1002B000C9420300A83910B504000800062949D82E
:1002C00009F006FD040A141F2A343F00E221A21897
:1002D000C9005218137010BD3F210B401800C432E2
:1002E0009200135D8B4303431355F4E77F21C4321F
:1002F000920019401948135B890103400B431353C3
:10030000E9E77F21C432920019401059144B490388
:1003100003400B431351DEE70F20C4329200A218B2
:100320001901937803400B439370D4E70F210B40DE
:100330001800C4329200A218D3788B430343D370C1
:10034000C9E70F20C4329200A218D1781B010140E6
:100350000B43F4E7034B044A1A60BCE73FE0FFFF9E
:10036000FF1FF0FF04000020E7420300F0B5D2B207
:1003700085B00E000293072113000B40013BDBB256
:10038000042B02D9294C2A4D25608A431F02002ADA
:1003900024D1284B3578C45C274B2409E443E4B2CC
:1003A0002D1BDB19EDB2039308276319039ADBB207
:1003B000D35C5A00D2B25BB20192002B33DA1A211D
:1003C0000320013FFFB2FFF71BFF019B002FF0D17D
:1003D0000134E4B2002CE7D135701AE0D443174958
:1003E000E4B2CE5C0825144B1B19DB5D5A00D2B277
:1003F0005BB20192002B0FDA05210220FFF700FF0C
:10040000013DEDB2019B002DF0D10134E4B2002C8E
:10041000E8D1029805B0F0BD31000120FFF7F0FEF1
:10042000002EE9D0ECE706210420CAE704000020F2
:10043000D4420300190700005F480300BA4E0300CE
:100440000022F0B505000F00FF200F248BB008AB91
:10045000654EDA710100C431890069188B781A0978
:10046000B25C234012011343CA788B7013071B0F31
:10047000F35CA243234013431A09B25C23401201E8
:100480001343CB700138E5D2E223DB00EE5CB30806
:10049000F31ADBB20493554B1B68002B0BD0E222FE
:1004A000C4218120D200890000013B00AA186918EC
:1004B0002818FDF7EDF900244823029403930194D2
:1004C000009481222B1912019B181B7818000593A8
:1004D0000723984320D008A92300059A0731280054
:1004E000FFF744FF0230C4B2023FFFB2002F78D0C2
:1004F0002B780393013EF6B2002E47D1E2222B194E
:10050000D2009B181E78B308F31ADBB204930023C1
:10051000029301930093D4E7354B009A9C469A5C72
:100520002300C4339B00EB18997809090A43314929
:100530008A5C019907926246DB78525C1907090FC1
:100540000A432C491B098A5C2B490692029A8A5C51
:1005500006991343079A8A182649C95C012389180A
:10056000FF2A00DC031CC918882309061B06C918CA
:10057000090F0020FFF744FE039B013BDBB203930E
:10058000002BB7D10134E4B2013FAEE7049B013B3D
:10059000DBB20493002B02D1059B002B18D1220063
:1005A000C4329200535D00999B069B0ECB18DBB2C0
:1005B0000093535B0199DB045B0ECB18DBB2019314
:1005C0005359029A1B035B0ED318DBB2029378E7F0
:1005D00008A92300059A07312800FFF7C7FE040089
:1005E0008CE70BB0F0BDC046E3430300582A00205F
:1005F000AF4D0300BB4503005F470300064B1B5C88
:10060000002B05D0054B185C4843C011C0B27047A1
:10061000034B185CFBE7C0460B470300844503000F
:1006200044440300064B1B5C002B05D0054B185CB3
:100630004843C011C0B27047034B185CFBE7C0468B
:100640000B470300BF4E030094440300F0B5037A48
:100650008DB004007F2B00D157E103000700002577
:100660000933FF330837099301953E787F2E00D078
:1006700087E000230693019306998B00E318039308
:100680001A7A481C1B7BC0B206907F2B00D11BE15D
:100690009F49CE5C8D5C9F49AE4200D0F1E08D5CFD
:1006A000CB5C0493039B597A019B5918CBB20193FD
:1006B000049BEB18DBB20793023B1B06DCD4A82794
:1006C000019B5D1BEBB20593A82F00D0E1E0039BDB
:1006D000039A5B7A527B5B08520899180291019940
:1006E00001988A18E221C31AD2B2DBB2C900A2185B
:1006F000E31852185B18157818782D1AEDB27F227E
:100700002B006DB293430893EB17E81858400299F9
:1007100009F062FC2800CBB20299099309F076FB3C
:10072000059A00251600C3B20A93029B9B18DBB200
:100730000B93320039002000FFF77EFD0A9B013643
:100740000B9AC018F6B2C3B2964200D1B6E0099A2D
:10075000AD18029AEDB2AA420DD8AD1A20216A4610
:1007600052181278EDB252B2002A00DAA4E0002B3F
:1007700001D00133DBB2320039002000FFF79AFDCF
:10078000D7E7012E77D12B003100019A200015F018
:1007900076F8BA78604BA1789B185B7830000193AB
:1007A000FB780893FFF72AFF3F23E17803403000EE
:1007B0000293FFF737FF7F22584B9B5D1A40584B3F
:1007C00003929A5D0F231A400492564A925D1A4092
:1007D0000592554A925D1A4006923F22534B9B5D0B
:1007E00007937B78EB18DBB20A93029B13400293CA
:1007F0007F23184083019C462A003F21C432920087
:10080000135D0F268B4302990B431355135B484925
:100810000B4061460B431353039B10595903454B3F
:1008200003400B430498190C314000011351084355
:10083000A21890701B0E0598B34306990343090153
:100840001E400E43D67081226319079912019A182F
:100850001170E222D2009B180899019A01355218B2
:100860001A700A9BEDB29D42C6D1099B0437BB4268
:1008700000D0FAE6FDE6022E8BD12B00019AFF2173
:1008800084E72D48AE4201D9C55C09E78D5C835CE5
:1008900007E7049B019A39009A18D2B22000FFF7AB
:1008A000CBFC059A050039002000FFF7C5FC079B2B
:1008B0002D1AEDB2029322E7013B5BE70137FFB24D
:1008C000AF2F00D000E7D7E6023189006118019B05
:1008D000497859186368C9B2002B13D1E2238122E9
:1008E0001648DB001201E318A518001B1A18C432C1
:1008F0009200125D1E789206D20EB21A1A7001335F
:100900009D42F3D12000FFF79BFD0DB0F0BDC04626
:10091000F4430300BB460300AF4E0300E44403006E
:10092000F342030043430300934303005F4D03007E
:100930003FE0FFFFFF1FF0FF34450300F0F8FFFF2B
:10094000014BD8607047C0467C2E0020034B82B01C
:10095000D86801ABC01A02B07047C0467C2E002098
:10096000014B18617047C0467C2E002010B54E2107
:10097000024812F034FCFBF7B1FEC04660AB020047
:1009800007B5054A01ABD1681269CB1A9A4201D862
:10099000FFF7ECFF07BDC0467C2E0020074B5B69CC
:1009A000002B01D1180006E05A68824204D8801A50
:1009B00004308000C05870471B68F1E77C2E00208F
:1009C00070B5144D04006B699868DB68834215D3D9
:1009D0000230C00015F05EFC6B69002803D19868F6
:1009E0004000FCF7DDFC5A68D96803609B68521828
:1009F0005B00836000234260C36068616A69D368FA
:100A00005068591C04339B000138D16040189C5039
:100A100070BDC0467C2E0020074B4118884204D38D
:100A2000D8B2002800D1013070475A01D31802789B
:100A300001305340F2E7C04605150000034B044A5D
:100A40005A6100229C331A607047C0467C2E0020F9
:100A5000A4C30200F0B585B001900E00FFF7DCFFE3
:100A6000144B02905C69002C01D120001EE027008D
:100A700010373D00E3689B00FB180393039B9D42E6
:100A800001D32468EFE72868029A037893420FD1D4
:100A90004378B3420CD102303200019918F04DF97D
:100AA000002805D1ED1B6068AD10281805B0F0BD19
:100AB0000435E3E77C2E0020F0B585B0039001916A
:100AC000FFF7C8FF002861D1314D019B2F009C37F3
:100AD000DC1C3B68002B18D02E002E4AA036126872
:100AE00031680292A2188A420FD9020061181800D8
:100AF00015F0EEFB0290002822D1264B0200196867
:100B0000386815F0E5FB029B3B602B009C331B68AB
:100B1000002B20D12600802C00D2802630002F0010
:100B200015F0B8FB9C37386000280DD1200015F077
:100B3000B1FB26003860002806D12000FCF730FC0D
:100B400033681B193360E0E72B00A0331E602B00D5
:100B50000022A4331A602B00A4331A689C352D6838
:100B6000A41801990398AD181C60FFF755FF019B6D
:100B700028701A006B70A81C039918F0EDF8002279
:100B8000019B2800EB189A70FFF71AFF05B0F0BD23
:100B90007C2E0020202F0020F7B51D00160000231A
:100BA000070003600B6033602B60174B00915C699A
:100BB000002C02D0154B9C4204D133682A68D3180C
:100BC0002B60F7BD3B6801333B60E268009B9446B5
:100BD0001B68009A0193634413602200E36810329B
:100BE0009B00D3189A4207D32000FDF7E1FA2B6847
:100BF000246818182860DBE702CA30684978033097
:100C000009183160EEE7C0467C2E0020A4C3020024
:100C10000C4B70B55C69002C02D00B4B9C4200D190
:100C200070BD2600E36810369D007519AE4201D3F1
:100C30002468F0E704CE05490232054816F0CEF8E4
:100C4000F4E7C0467C2E0020A4C30200FC4E030043
:100C500044E80200044B054A98331B6804481A60B4
:100C6000044A9A807047C0467C2E00207800040019
:100C7000A4B3020004040000084A10B5130098331E
:100C80001B689979002908D0916C0029F9D00021BE
:100C900099711B695879FCF7F7FE10BD7C2E002076
:100CA00013B5084C98342368188814F0EDFC2368B9
:100CB0000090588814F0E8FC694601900220F5F78E
:100CC000D9FC16BD7C2E002010B50D4C002803D099
:100CD0000868F6F7ABFB04000A492000F8F7F0F8C3
:100CE00060790021FCF7D0FE2000F8F7D3F800224D
:100CF000054B064898331B681A619A7110BDC046AF
:100D00006CA20200D0B102007C2E0020A4B302002D
:100D10001FB50C4B02AC00930194022301F0FCFAC6
:100D2000029A002A03D0084B98331B685A806268E5
:100D3000002A03D0044B98331B681A80034804B080
:100D400010BDC04694D002007C2E0020A4B3020047
:100D5000F0B5254B89B004AC00930194042301F055
:100D6000DBFA224F224A3B0098331B6804989A8092
:100D7000204B0340062B06D0830730D102681E4B60
:100D800092699A422BD1012303940293002598374C
:100D90003B681869F8F77EF83B6860681D61F6F7F4
:100DA00045FB16490600F8F78BF83B68144A9D711D
:100DB000126802999A60227B9981DA71DD81039A27
:100DC000012900D112685A6101221E619A71237AA9
:100DD000002B01D0FFF750FF0A4809B0F0BD03AA6D
:100DE00002A9F1F7EDFED1E754D002007C2E0020DD
:100DF00004040000070080FF9D1D0000D0B1020028
:100E0000D02F0020A4B30200F0B5274B89B004AD69
:100E100001950093042301F07FFA6B68A868049E93
:100E20000393F6F703FB214F040098373B681869DA
:100E3000F8F730F800223B681D491A612000F8F7E6
:100E40003FF8607980212D7BFCF71EFE002E1CD11F
:100E50006079FCF799FE039B002B13DB0022134BF8
:100E6000144998331B6803989A710968DA7141181C
:100E7000DA605A61023299601C619A71002D01D0CA
:100E8000FFF7FAFE0C4809B0F0BD31000B4808F03E
:100E900033FFFCF7D5FD0028DDD06079FCF774FE48
:100EA0000748FCF793FAC04674D002007C2E00205D
:100EB000D0B10200D02F0020A4B3020040420F00A6
:100EC000AB6A030010B5182015F0D7F9064B98331C
:100ED0001860064B0360064B838000238371036117
:100EE0004361044810BDC0467C2E002078000400F9
:100EF00004040000A4B30200F0B56D4C87B02600D6
:100F000098363368002B40D09A79002A3DD0694D3D
:100F100099682A68914238D89A79022A0BD11B69BC
:100F200000215879FCF7B0FD2B6832680A339360D2
:100F30000123937129E09A79012A26D19A89D989C6
:100F4000914204D3DD79002D19D00021D98158694F
:100F5000012A02D0DA8992001058574A904216D1DD
:100F60001B69002158799834FCF78EFD246853489A
:100F7000218808F04BFF0123A060A37105E09D715B
:100F80001869F7F787FF33681D6107B0F0BD05A941
:100F9000F0F736FC9834236801901B69802158795A
:100FA0000293059EFCF770FD019B24681F781F23A8
:100FB000218842481F4008F029FF618808F026FF79
:100FC0007D1EEDB20390012E5AD9019B5B78232B35
:100FD0004DD0622B50D1002D4BD0023FFDB26A1E86
:100FE00053425A415242022E4ED00121022301980F
:100FF000C05C3A2803D00F27384020710133207994
:1010000084469E420ED90198C05C3A280AD1581CE9
:10101000864207D9019F0233385C0F2738409E4231
:1010200035D86071092D3DD86346043B9A1852B2F9
:101030006F00234B002900D1224BD85B002A2EDB06
:101040001041FCF7FDFC1A4B039998331A68537949
:1010500059430B0017490A3B09680A2B00DA0A2397
:101060005B189360D3890133D381022361E70022A7
:10107000B9E72A000625B6E7002101230A00B6E7F2
:10108000002101230A00BAE733000121B7E70A264D
:101090007043019E6071F65C3E408019C1E7524288
:1010A0009040CEE7029B00215879FCF7EDFCCAE79F
:1010B0007C2E0020D02F0020A4B3020060EA0000A4
:1010C000D4F60200C6F60200F7B5CC1CA400070057
:1010D00020000E00019215F0D0F822000500054B0B
:1010E0004760866003600C3A01990C3017F034FEBB
:1010F0002800FEBDECD002000021F0B5070087B04B
:10110000816414F0C3FCFB693C6ABB637B6AFC63CB
:10111000002B05DA3A00062140321170013306E057
:10112000002B07D03A00052140321170013B7B6251
:1011300007B0F0BD002833D0BB6A002B30D1390096
:10114000043340310B703A6BAE4B786BD3185B00B5
:101150001B5A013C9C42EBD017D9F96A8A4207D34B
:101160000831490015F0A7F8FB6A78630833FB6281
:101170003B6B5A1C3A637A6B5B009C527B6ACDE7EF
:10118000013B3B637B6A013B7B623B6B9D4A9A1848
:101190005200125A9442F3D3CAD002230B70C7E70D
:1011A0003C69631C03D1002240373A70C0E7380025
:1011B00014F014FC0490002800D129E13B004033D6
:1011C00005930023059A13703B69752B5AD0622B47
:1011D00007D17B69722B5CD001240B230022019282
:1011E00008E0722B51D17B69622B52D0049B012401
:1011F00001930A23390040310A78002A4ED10B703E
:10120000002C07D0380014F011FC022C02D1380059
:1012100014F00CFC3B690293222B01D0272302938C
:10122000380014F003FC0123029A03933B699342B4
:101230000BD113007A69934207D1380014F0F6FB02
:10124000380014F0F3FB0323039300263C69631C6E
:1012500000D1CEE0039B012B02D10A2C00D1C8E0C3
:10126000039B9E421DD338003100443015F0D3FF5C
:101270000121380014F00AFC380014F0AFFB0028FC
:10128000A2D155E701240A23A8E700240A230194E8
:10129000B0E7049B022401930B23ABE79A42AFD043
:1012A00046E7029BA34209D13800190044300136B9
:1012B00004F0B2FD380014F0B9FBC7E75C2C00D095
:1012C00091E0380014F0B2FB019B3D69002B06D081
:1012D00038005C21443004F09FFD2C0071E0622D49
:1012E00051D030D84E2D77D01AD8222D29D0272D85
:1012F00027D000260A2DDDD02C00303C0326072CF9
:10130000E6D87B69303B072B5BD8013E002E58D0D6
:10131000380014F08BFB3B69E400303B1C19F0E70C
:101320005C2D0ED00724612D21D0552DE4D13B003A
:1013300040331B780B2B2ED138005C21443004F055
:101340006BFD2C0013E0742D1FD007D86E2D1ED01E
:10135000722D0BD0662DCFD10C2408E0762D18D03D
:10136000E5D30226782DC7D1002428E00D243B00C8
:1013700040331B780A2B32D138002100443004F06E
:101380004BFD002696E70824F1E70924EFE70A243D
:10139000EDE70B24EBE70826752DE5D1043EE3E7E6
:1013A000380014F043FB3D692800F7F76DF9002879
:1013B00000D144E1280011F09FFF24012418013ED0
:1013C000EED20026631C00D174E70F4B9C42CED9AD
:1013D0000122059B1A70D4E70C48FCF7E9F9FF2CB1
:1013E000F6D80B2BF4D13800E1B2443015F0CFFE23
:1013F000C7E7039B9E4200D335E73B0003224033FF
:101400001A7030E7FFFFFF7FFFFF1000FA6A03004A
:101410002000F7F721F9041E386903D15F2801D0B5
:101420007F2842D93D0007233C0040352B704434CF
:10143000C1B2200015F0ABFE380014F0F7FA38699D
:10144000431C1BD1200015F090FE002406007E4FA7
:10145000A300F958300017F0E5FC00281ED10D3428
:10146000E4B22C70102C00D062E6784BA8331A68D6
:101470000D23002A00D102332B7059E6F7F7ECF860
:10148000002808D138695F2805D07F2803D8F7F7EE
:10149000EFF80028D6D03B69D9B2CAE7002800DAB5
:1014A00046E60134222CD3D142E6F7F7E1F80028D2
:1014B0000FD03E00396940362E2916D109233370EA
:1014C0003D004435280004F0A7FC380014F0AEFAC3
:1014D00031E03B692E2B04D17869F7F7C9F8002871
:1014E000E7D100255A4C02234AE008233370302903
:1014F000E6D17A6918331343623B0024162BDFD8F8
:10150000544CDC4001231C40DAE7002C17D10300C7
:1015100020229343452B12D13C3B33706521280098
:1015200004F07AFC380014F081FA396902220B00C9
:101530002B3B9343C6D03869431CE6D1F8E5F7F757
:101540008BF8002805D039692E290BD10923337077
:10155000B8E73869F7F78CF80028F4D13B692E2BEF
:10156000F1D0E5E50B00202293434A2BAAD1EDE709
:10157000633E9E43F6B272425641A41901350134CE
:101580002678002E02D03A69B242F1D1380014F028
:101590004DFA002E02D14037012206E6212E08D155
:1015A0003B693D2BF7D1380014F040FA4037412217
:1015B000FBE52E2E12D13C003B6940342E2B02D18C
:1015C0007B692E2B02D04A232370B1E5380014F03A
:1015D0002DFA380014F02AFA0C23F5E72A0001341A
:1015E000267802213300633B8B43DBB2002B0ED104
:1015F000637839690135994207D1380014F016FA39
:101600002A00652E03D00234EAE7632EFBD1124B89
:101610009B5C3A0040321370190004229143422926
:1016200001D0442B03D1BB6A0133BB6280E543295F
:1016300002D0452B00D07BE5BB6A013BF5E70122D8
:10164000059B04001A7092E628D102007C2E00202F
:10165000B96A030001204000766B0300F7B54568C6
:101660001600A8681F00019111F0B2FA0400A868E2
:1016700011F0B4FA11F0ACFA030003205843073418
:101680000019800014F0F9FD074B040003606B683B
:101690003200436000238560C36001993B0008303D
:1016A000F3F780F92000FEBDF4D1020070B505000B
:1016B00088680C0015F060FC230002000249280035
:1016C00015F08CFB70BDC046C06B030010B502481E
:1016D00011F07FFDFBF702F89CAB020010B504008F
:1016E000082014F0CAFD024B4460036010BDC046E0
:1016F00030D20200F7B5C56804001E00002D02D1EB
:101700001D602800FEBD03691830834205D1184BC7
:10171000994203D01748FCF71DF819602000164FB6
:1017200011007B680830019363687B6001F0A6FDBF
:10173000019B05007B60012807D002280CD0002304
:10174000E36023691B683360DBE723691B68336050
:10175000002BD6D1E360D4E7A368986811F038FA7B
:10176000002305308000E36024186368EBE7C0467F
:10177000A4B30200DE6B03007C2E002013B501AB86
:10178000FFF7B8FF01280ED0104C02280DD0019BA6
:10179000A34219D0002B17D001AA01210C4811F047
:1017A00012FDFAF79BFF019816BD0198F1F77EF83C
:1017B0000749FAF791FA002801D10198F1E7019859
:1017C000F6F73CFEA042F8D10020EDE7A4B30200FA
:1017D0009CAB020010B50B00022808D14A680549ED
:1017E0001868FFF7CBFF002803D1FFF76FFF8A6867
:1017F000F5E710BDA4B3020010B500220149FFF7C0
:10180000BDFF10BDA4B3020013B5114C01AB114ACA
:101810002100FFF76FFF012803D0022805D0200028
:1018200016BD0D490D4813F0E9F80198F1F73EF89F
:101830000B49FAF751FA0028F1D10198F1F736F87F
:101840000849FAF749FA0028E9D10198FAF746FF62
:10185000A4B3020008A70200A06B030060AB020063
:1018600090A802009CAB0200F0B585B00500160000
:10187000080003AB02AA01A911F0F5FB0398364F4B
:10188000B84209D0032807D0F1F7F8F8B060002873
:1018900004D13248FBF79AFD0123B3600198B842A6
:1018A00029D10024B368A34200DC6C1E0298B84220
:1018B00025D1B368002B47DD2800002C2ADA6419F3
:1018C00001D5B368DC17002834DA401901D50120AE
:1018D0004042B368002B00DA0130B368002B2DDDE5
:1018E000A04200DA2000013B706058425841C0B26B
:1018F000346005B0F0BDF1F7C1F80400D6E7F1F7A8
:10190000BDF8B368002801DBDA0F8018002CD6DBA5
:10191000002B03DDAC42D6D92C00D4E7002BD2D06B
:10192000A54200D86C1E002804DA4019D4D5012045
:101930004042D1E7A842D0D92800CEE7002BD2D030
:10194000A042D0DD601CCEE7002C01DA0020B6E713
:1019500000208342E4D1C0E7A4B30200146C03006A
:10196000F0B5060085B017001B2805D10A9A9742EA
:1019700009D0002005B0F0BD19281AD01C281AD0B3
:101980000A9A0A9717001A000B0011000A9A01928E
:10199000BA4200D901971D000C0000230093009B60
:1019A000019A934209D10A9BBB4220D0E1D3012086
:1019B000E0E71A26EAE71D26E8E70295039401CD41
:1019C00002CCF1F709F8002802D0009B0133E5E7CB
:1019D0001B2ECED0039B30001A68029B1968FBF7C0
:1019E000FDFC044BC01A43425841C0B2C2E71A2E54
:1019F000DDD1BEE78CE70200F0B51E0085B0039094
:101A000018680D001700F0F751FF736801900293FA
:101A10000024022F0ED90123B2682900F1F706F93C
:101A20000400032F06D029000123F2680198F1F782
:101A3000FDF80500A54202D80848FBF7C7FC039A49
:101A4000A3000299D058F0F7C7FF002801D1013454
:101A5000F0E701206400204305B0F0BD2E6C0300C8
:101A6000002313B5044A046A09050093890C8A58B7
:101A7000A16B14F0A0F913BD6CD20200F0B587B0D1
:101A800000931B7804000F0002922A2B05D1826874
:101A9000525C002A01D0A62A14D11A00213A022A47
:101AA0002DD8A568E8190378032B5CD104A96668D2
:101AB00014F04BFAAB19984206D1676004992000E4
:101AC00014F0A7F907B0F0BD0378032B4BD105A99B
:101AD00014F03BFA009B1B78212B04D1049B059A40
:101AE00013430493E6E7222B03D1049B059A53404A
:101AF000F7E7232BDED1059B049A1340F1E71A0088
:101B0000243A022A00D986E0A368D8190193037801
:101B1000032B28D1636804A9039314F016FA060076
:101B2000019B039A9B189E42C7D0B378B01C75786E
:101B3000032B18D105A914F008FA0600372D35D16A
:101B4000059A1F2A0FDC4249049B114199420ADB86
:101B5000C021090611418B4205DB93400493049A8E
:101B600053005340DCD500226368029DDB1B0193C8
:101B7000561CED0969D1019B0135DB09FCD102320C
:101B800052193900200015F017FB0400009B029A3F
:101B90001B7831001A330370013014F08EF8701C7A
:101BA0002018019A290014F088F88BE7392D08D104
:101BB000059B1F2B01DD1F230593049B059A1341F1
:101BC000CCE72F2D03D1049B059A9B18C6E7302D37
:101BD00003D1049B059A9B1AC0E7312D09D10599C1
:101BE0000498F6F711F90028BDD1059B049A5343D8
:101BF000B4E7332DB7D00599352D06D10029B2D0E1
